{
	"contracts/Orcal.sol": {
		"Orcale": {
			"abi": [
				{
					"inputs": [],
					"name": "ETH",
					"outputs": [
						{
							"internalType": "string",
							"name": "",
							"type": "string"
						}
					],
					"stateMutability": "view",
					"type": "function"
				},
				{
					"inputs": [
						{
							"internalType": "bytes32",
							"name": "_myid",
							"type": "bytes32"
						},
						{
							"internalType": "string",
							"name": "_result",
							"type": "string"
						}
					],
					"name": "__callback",
					"outputs": [],
					"stateMutability": "nonpayable",
					"type": "function"
				},
				{
					"inputs": [],
					"name": "getEthProce",
					"outputs": [],
					"stateMutability": "nonpayable",
					"type": "function"
				}
			],
			"devdoc": {
				"kind": "dev",
				"methods": {},
				"version": 1
			},
			"evm": {
				"assembly": "    /* \"contracts/Orcal.sol\":174:587  contract Orcale is usingProvable {... */\n  mstore(0x40, 0x80)\n  callvalue\n  dup1\n  iszero\n  tag_1\n  jumpi\n  0x00\n  dup1\n  revert\ntag_1:\n  pop\n  dataSize(sub_0)\n  dup1\n  dataOffset(sub_0)\n  0x00\n  codecopy\n  0x00\n  return\nstop\n\nsub_0: assembly {\n        /* \"contracts/Orcal.sol\":174:587  contract Orcale is usingProvable {... */\n      mstore(0x40, 0x80)\n      callvalue\n      dup1\n      iszero\n      tag_1\n      jumpi\n      0x00\n      dup1\n      revert\n    tag_1:\n      pop\n      jumpi(tag_2, lt(calldatasize, 0x04))\n      shr(0xe0, calldataload(0x00))\n      dup1\n      0x27dc297e\n      eq\n      tag_3\n      jumpi\n      dup1\n      0x8322fff2\n      eq\n      tag_4\n      jumpi\n      dup1\n      0xfbe39bcf\n      eq\n      tag_5\n      jumpi\n    tag_2:\n      0x00\n      dup1\n      revert\n        /* \"contracts/Orcal.sol\":422:585  function __callback(bytes32 _myid, string memory _result) public {... */\n    tag_3:\n      tag_6\n      0x04\n      dup1\n      calldatasize\n      sub\n      dup2\n      add\n      swap1\n      tag_7\n      swap2\n      swap1\n      tag_8\n      jump\t// in\n    tag_7:\n      tag_9\n      jump\t// in\n    tag_6:\n      stop\n        /* \"contracts/Orcal.sol\":213:230  string public ETH */\n    tag_4:\n      tag_10\n      tag_11\n      jump\t// in\n    tag_10:\n      mload(0x40)\n      tag_12\n      swap2\n      swap1\n      tag_13\n      jump\t// in\n    tag_12:\n      mload(0x40)\n      dup1\n      swap2\n      sub\n      swap1\n      return\n        /* \"contracts/Orcal.sol\":237:416  function getEthProce() public {... */\n    tag_5:\n      tag_14\n      tag_15\n      jump\t// in\n    tag_14:\n      stop\n        /* \"contracts/Orcal.sol\":422:585  function __callback(bytes32 _myid, string memory _result) public {... */\n    tag_9:\n        /* \"contracts/Orcal.sol\":519:527  provable */\n      0x00\n      dup1\n      sload\n      swap1\n      0x0100\n      exp\n      swap1\n      div\n      0xffffffffffffffffffffffffffffffffffffffff\n      and\n        /* \"contracts/Orcal.sol\":519:537  provable.cbAddress */\n      0xffffffffffffffffffffffffffffffffffffffff\n      and\n      0xc281d19e\n        /* \"contracts/Orcal.sol\":519:539  provable.cbAddress() */\n      mload(0x40)\n      dup2\n      0xffffffff\n      and\n      0xe0\n      shl\n      dup2\n      mstore\n      0x04\n      add\n      0x20\n      mload(0x40)\n      dup1\n      dup4\n      sub\n      dup2\n      0x00\n      dup8\n      gas\n      call\n      iszero\n      dup1\n      iszero\n      tag_18\n      jumpi\n      returndatasize\n      0x00\n      dup1\n      returndatacopy\n      revert(0x00, returndatasize)\n    tag_18:\n      pop\n      pop\n      pop\n      pop\n      mload(0x40)\n      returndatasize\n      not(0x1f)\n      0x1f\n      dup3\n      add\n      and\n      dup3\n      add\n      dup1\n      0x40\n      mstore\n      pop\n      dup2\n      add\n      swap1\n      tag_19\n      swap2\n      swap1\n      tag_20\n      jump\t// in\n    tag_19:\n        /* \"contracts/Orcal.sol\":505:539  msg.sender == provable.cbAddress() */\n      0xffffffffffffffffffffffffffffffffffffffff\n      and\n        /* \"contracts/Orcal.sol\":505:515  msg.sender */\n      caller\n        /* \"contracts/Orcal.sol\":505:539  msg.sender == provable.cbAddress() */\n      0xffffffffffffffffffffffffffffffffffffffff\n      and\n      eq\n        /* \"contracts/Orcal.sol\":497:540  require(msg.sender == provable.cbAddress()) */\n      tag_21\n      jumpi\n      0x00\n      dup1\n      revert\n    tag_21:\n        /* \"contracts/Orcal.sol\":556:563  _result */\n      dup1\n        /* \"contracts/Orcal.sol\":550:553  ETH */\n      0x05\n        /* \"contracts/Orcal.sol\":550:563  ETH = _result */\n      swap1\n      dup2\n      tag_22\n      swap2\n      swap1\n      tag_23\n      jump\t// in\n    tag_22:\n      pop\n        /* \"contracts/Orcal.sol\":422:585  function __callback(bytes32 _myid, string memory _result) public {... */\n      pop\n      pop\n      jump\t// out\n        /* \"contracts/Orcal.sol\":213:230  string public ETH */\n    tag_11:\n      0x05\n      dup1\n      sload\n      tag_24\n      swap1\n      tag_25\n      jump\t// in\n    tag_24:\n      dup1\n      0x1f\n      add\n      0x20\n      dup1\n      swap2\n      div\n      mul\n      0x20\n      add\n      mload(0x40)\n      swap1\n      dup2\n      add\n      0x40\n      mstore\n      dup1\n      swap3\n      swap2\n      swap1\n      dup2\n      dup2\n      mstore\n      0x20\n      add\n      dup3\n      dup1\n      sload\n      tag_26\n      swap1\n      tag_25\n      jump\t// in\n    tag_26:\n      dup1\n      iszero\n      tag_27\n      jumpi\n      dup1\n      0x1f\n      lt\n      tag_28\n      jumpi\n      0x0100\n      dup1\n      dup4\n      sload\n      div\n      mul\n      dup4\n      mstore\n      swap2\n      0x20\n      add\n      swap2\n      jump(tag_27)\n    tag_28:\n      dup3\n      add\n      swap2\n      swap1\n      0x00\n      mstore\n      keccak256(0x00, 0x20)\n      swap1\n    tag_29:\n      dup2\n      sload\n      dup2\n      mstore\n      swap1\n      0x01\n      add\n      swap1\n      0x20\n      add\n      dup1\n      dup4\n      gt\n      tag_29\n      jumpi\n      dup3\n      swap1\n      sub\n      0x1f\n      and\n      dup3\n      add\n      swap2\n    tag_27:\n      pop\n      pop\n      pop\n      pop\n      pop\n      dup2\n      jump\t// out\n        /* \"contracts/Orcal.sol\":237:416  function getEthProce() public {... */\n    tag_15:\n        /* \"contracts/Orcal.sol\":277:409  provable_query(... */\n      tag_31\n      mload(0x40)\n      dup1\n      0x40\n      add\n      0x40\n      mstore\n      dup1\n      0x03\n      dup2\n      mstore\n      0x20\n      add\n      0x55524c0000000000000000000000000000000000000000000000000000000000\n      dup2\n      mstore\n      pop\n      mload(0x40)\n      dup1\n      0x80\n      add\n      0x40\n      mstore\n      dup1\n      0x49\n      dup2\n      mstore\n      0x20\n      add\n      data_5ce1bdb13e69e977a5dc5594f30e56d66526a5351fa78f20573104ffe824a92a\n      0x49\n      swap2\n      codecopy\n        /* \"contracts/Orcal.sol\":277:291  provable_query */\n      tag_32\n        /* \"contracts/Orcal.sol\":277:409  provable_query(... */\n      jump\t// in\n    tag_31:\n      pop\n        /* \"contracts/Orcal.sol\":237:416  function getEthProce() public {... */\n      jump\t// out\n        /* \"https://github.com/provable-things/ethereum-api/blob/master/contracts/solc-v0.8.x/provableAPI.sol\":7016:7370  function provable_query(string memory _datasource, string memory _arg) provableAPI internal returns (bytes32 _id) {... */\n    tag_32:\n        /* \"https://github.com/provable-things/ethereum-api/blob/master/contracts/solc-v0.8.x/provableAPI.sol\":7117:7128  bytes32 _id */\n      0x00\n        /* \"https://github.com/provable-things/ethereum-api/blob/master/contracts/solc-v0.8.x/provableAPI.sol\":2651:2652  0 */\n      dup1\n        /* \"https://github.com/provable-things/ethereum-api/blob/master/contracts/solc-v0.8.x/provableAPI.sol\":2627:2653  address(OAR) == address(0) */\n      0xffffffffffffffffffffffffffffffffffffffff\n      and\n        /* \"https://github.com/provable-things/ethereum-api/blob/master/contracts/solc-v0.8.x/provableAPI.sol\":2635:2638  OAR */\n      0x01\n      0x00\n      swap1\n      sload\n      swap1\n      0x0100\n      exp\n      swap1\n      div\n      0xffffffffffffffffffffffffffffffffffffffff\n      and\n        /* \"https://github.com/provable-things/ethereum-api/blob/master/contracts/solc-v0.8.x/provableAPI.sol\":2627:2653  address(OAR) == address(0) */\n      0xffffffffffffffffffffffffffffffffffffffff\n      and\n      eq\n        /* \"https://github.com/provable-things/ethereum-api/blob/master/contracts/solc-v0.8.x/provableAPI.sol\":2626:2690  (address(OAR) == address(0)) || (getCodeSize(address(OAR)) == 0) */\n      dup1\n      tag_34\n      jumpi\n      pop\n        /* \"https://github.com/provable-things/ethereum-api/blob/master/contracts/solc-v0.8.x/provableAPI.sol\":2688:2689  0 */\n      0x00\n        /* \"https://github.com/provable-things/ethereum-api/blob/master/contracts/solc-v0.8.x/provableAPI.sol\":2659:2684  getCodeSize(address(OAR)) */\n      tag_35\n        /* \"https://github.com/provable-things/ethereum-api/blob/master/contracts/solc-v0.8.x/provableAPI.sol\":2679:2682  OAR */\n      0x01\n      0x00\n      swap1\n      sload\n      swap1\n      0x0100\n      exp\n      swap1\n      div\n      0xffffffffffffffffffffffffffffffffffffffff\n      and\n        /* \"https://github.com/provable-things/ethereum-api/blob/master/contracts/solc-v0.8.x/provableAPI.sol\":2659:2670  getCodeSize */\n      tag_36\n        /* \"https://github.com/provable-things/ethereum-api/blob/master/contracts/solc-v0.8.x/provableAPI.sol\":2659:2684  getCodeSize(address(OAR)) */\n      jump\t// in\n    tag_35:\n        /* \"https://github.com/provable-things/ethereum-api/blob/master/contracts/solc-v0.8.x/provableAPI.sol\":2659:2689  getCodeSize(address(OAR)) == 0 */\n      eq\n        /* \"https://github.com/provable-things/ethereum-api/blob/master/contracts/solc-v0.8.x/provableAPI.sol\":2626:2690  (address(OAR) == address(0)) || (getCodeSize(address(OAR)) == 0) */\n    tag_34:\n        /* \"https://github.com/provable-things/ethereum-api/blob/master/contracts/solc-v0.8.x/provableAPI.sol\":2622:2752  if ((address(OAR) == address(0)) || (getCodeSize(address(OAR)) == 0)) {... */\n      iszero\n      tag_37\n      jumpi\n        /* \"https://github.com/provable-things/ethereum-api/blob/master/contracts/solc-v0.8.x/provableAPI.sol\":2706:2741  provable_setNetwork(networkID_auto) */\n      tag_38\n        /* \"https://github.com/provable-things/ethereum-api/blob/master/contracts/solc-v0.8.x/provableAPI.sol\":2283:2284  0 */\n      0x00\n        /* \"https://github.com/provable-things/ethereum-api/blob/master/contracts/solc-v0.8.x/provableAPI.sol\":2706:2725  provable_setNetwork */\n      tag_39\n        /* \"https://github.com/provable-things/ethereum-api/blob/master/contracts/solc-v0.8.x/provableAPI.sol\":2706:2741  provable_setNetwork(networkID_auto) */\n      jump\t// in\n    tag_38:\n      pop\n        /* \"https://github.com/provable-things/ethereum-api/blob/master/contracts/solc-v0.8.x/provableAPI.sol\":2622:2752  if ((address(OAR) == address(0)) || (getCodeSize(address(OAR)) == 0)) {... */\n    tag_37:\n        /* \"https://github.com/provable-things/ethereum-api/blob/master/contracts/solc-v0.8.x/provableAPI.sol\":2786:2789  OAR */\n      0x01\n      0x00\n      swap1\n      sload\n      swap1\n      0x0100\n      exp\n      swap1\n      div\n      0xffffffffffffffffffffffffffffffffffffffff\n      and\n        /* \"https://github.com/provable-things/ethereum-api/blob/master/contracts/solc-v0.8.x/provableAPI.sol\":2786:2800  OAR.getAddress */\n      0xffffffffffffffffffffffffffffffffffffffff\n      and\n      0x38cc4831\n        /* \"https://github.com/provable-things/ethereum-api/blob/master/contracts/solc-v0.8.x/provableAPI.sol\":2786:2802  OAR.getAddress() */\n      mload(0x40)\n      dup2\n      0xffffffff\n      and\n      0xe0\n      shl\n      dup2\n      mstore\n      0x04\n      add\n      0x20\n      mload(0x40)\n      dup1\n      dup4\n      sub\n      dup2\n      0x00\n      dup8\n      gas\n      call\n      iszero\n      dup1\n      iszero\n      tag_41\n      jumpi\n      returndatasize\n      0x00\n      dup1\n      returndatacopy\n      revert(0x00, returndatasize)\n    tag_41:\n      pop\n      pop\n      pop\n      pop\n      mload(0x40)\n      returndatasize\n      not(0x1f)\n      0x1f\n      dup3\n      add\n      and\n      dup3\n      add\n      dup1\n      0x40\n      mstore\n      pop\n      dup2\n      add\n      swap1\n      tag_42\n      swap2\n      swap1\n      tag_20\n      jump\t// in\n    tag_42:\n        /* \"https://github.com/provable-things/ethereum-api/blob/master/contracts/solc-v0.8.x/provableAPI.sol\":2765:2802  address(provable) != OAR.getAddress() */\n      0xffffffffffffffffffffffffffffffffffffffff\n      and\n        /* \"https://github.com/provable-things/ethereum-api/blob/master/contracts/solc-v0.8.x/provableAPI.sol\":2773:2781  provable */\n      0x00\n      dup1\n      sload\n      swap1\n      0x0100\n      exp\n      swap1\n      div\n      0xffffffffffffffffffffffffffffffffffffffff\n      and\n        /* \"https://github.com/provable-things/ethereum-api/blob/master/contracts/solc-v0.8.x/provableAPI.sol\":2765:2802  address(provable) != OAR.getAddress() */\n      0xffffffffffffffffffffffffffffffffffffffff\n      and\n      eq\n        /* \"https://github.com/provable-things/ethereum-api/blob/master/contracts/solc-v0.8.x/provableAPI.sol\":2761:2867  if (address(provable) != OAR.getAddress()) {... */\n      tag_43\n      jumpi\n        /* \"https://github.com/provable-things/ethereum-api/blob/master/contracts/solc-v0.8.x/provableAPI.sol\":2839:2842  OAR */\n      0x01\n      0x00\n      swap1\n      sload\n      swap1\n      0x0100\n      exp\n      swap1\n      div\n      0xffffffffffffffffffffffffffffffffffffffff\n      and\n        /* \"https://github.com/provable-things/ethereum-api/blob/master/contracts/solc-v0.8.x/provableAPI.sol\":2839:2853  OAR.getAddress */\n      0xffffffffffffffffffffffffffffffffffffffff\n      and\n      0x38cc4831\n        /* \"https://github.com/provable-things/ethereum-api/blob/master/contracts/solc-v0.8.x/provableAPI.sol\":2839:2855  OAR.getAddress() */\n      mload(0x40)\n      dup2\n      0xffffffff\n      and\n      0xe0\n      shl\n      dup2\n      mstore\n      0x04\n      add\n      0x20\n      mload(0x40)\n      dup1\n      dup4\n      sub\n      dup2\n      0x00\n      dup8\n      gas\n      call\n      iszero\n      dup1\n      iszero\n      tag_45\n      jumpi\n      returndatasize\n      0x00\n      dup1\n      returndatacopy\n      revert(0x00, returndatasize)\n    tag_45:\n      pop\n      pop\n      pop\n      pop\n      mload(0x40)\n      returndatasize\n      not(0x1f)\n      0x1f\n      dup3\n      add\n      and\n      dup3\n      add\n      dup1\n      0x40\n      mstore\n      pop\n      dup2\n      add\n      swap1\n      tag_46\n      swap2\n      swap1\n      tag_20\n      jump\t// in\n    tag_46:\n        /* \"https://github.com/provable-things/ethereum-api/blob/master/contracts/solc-v0.8.x/provableAPI.sol\":2818:2826  provable */\n      0x00\n      dup1\n        /* \"https://github.com/provable-things/ethereum-api/blob/master/contracts/solc-v0.8.x/provableAPI.sol\":2818:2856  provable = ProvableI(OAR.getAddress()) */\n      0x0100\n      exp\n      dup2\n      sload\n      dup2\n      0xffffffffffffffffffffffffffffffffffffffff\n      mul\n      not\n      and\n      swap1\n      dup4\n      0xffffffffffffffffffffffffffffffffffffffff\n      and\n      mul\n      or\n      swap1\n      sstore\n      pop\n        /* \"https://github.com/provable-things/ethereum-api/blob/master/contracts/solc-v0.8.x/provableAPI.sol\":2761:2867  if (address(provable) != OAR.getAddress()) {... */\n    tag_43:\n        /* \"https://github.com/provable-things/ethereum-api/blob/master/contracts/solc-v0.8.x/provableAPI.sol\":7140:7150  uint price */\n      0x00\n        /* \"https://github.com/provable-things/ethereum-api/blob/master/contracts/solc-v0.8.x/provableAPI.sol\":7153:7161  provable */\n      dup1\n      0x00\n      swap1\n      sload\n      swap1\n      0x0100\n      exp\n      swap1\n      div\n      0xffffffffffffffffffffffffffffffffffffffff\n      and\n        /* \"https://github.com/provable-things/ethereum-api/blob/master/contracts/solc-v0.8.x/provableAPI.sol\":7153:7170  provable.getPrice */\n      0xffffffffffffffffffffffffffffffffffffffff\n      and\n      0x524f3889\n        /* \"https://github.com/provable-things/ethereum-api/blob/master/contracts/solc-v0.8.x/provableAPI.sol\":7171:7182  _datasource */\n      dup6\n        /* \"https://github.com/provable-things/ethereum-api/blob/master/contracts/solc-v0.8.x/provableAPI.sol\":7153:7183  provable.getPrice(_datasource) */\n      mload(0x40)\n      dup3\n      0xffffffff\n      and\n      0xe0\n      shl\n      dup2\n      mstore\n      0x04\n      add\n      tag_48\n      swap2\n      swap1\n      tag_13\n      jump\t// in\n    tag_48:\n      0x20\n      mload(0x40)\n      dup1\n      dup4\n      sub\n      dup2\n      0x00\n      dup8\n      gas\n      call\n      iszero\n      dup1\n      iszero\n      tag_50\n      jumpi\n      returndatasize\n      0x00\n      dup1\n      returndatacopy\n      revert(0x00, returndatasize)\n    tag_50:\n      pop\n      pop\n      pop\n      pop\n      mload(0x40)\n      returndatasize\n      not(0x1f)\n      0x1f\n      dup3\n      add\n      and\n      dup3\n      add\n      dup1\n      0x40\n      mstore\n      pop\n      dup2\n      add\n      swap1\n      tag_51\n      swap2\n      swap1\n      tag_52\n      jump\t// in\n    tag_51:\n        /* \"https://github.com/provable-things/ethereum-api/blob/master/contracts/solc-v0.8.x/provableAPI.sol\":7140:7183  uint price = provable.getPrice(_datasource) */\n      swap1\n      pop\n        /* \"https://github.com/provable-things/ethereum-api/blob/master/contracts/solc-v0.8.x/provableAPI.sol\":7229:7235  200000 */\n      0x030d40\n        /* \"https://github.com/provable-things/ethereum-api/blob/master/contracts/solc-v0.8.x/provableAPI.sol\":7215:7226  tx.gasprice */\n      gasprice\n        /* \"https://github.com/provable-things/ethereum-api/blob/master/contracts/solc-v0.8.x/provableAPI.sol\":7215:7235  tx.gasprice * 200000 */\n      tag_53\n      swap2\n      swap1\n      tag_54\n      jump\t// in\n    tag_53:\n        /* \"https://github.com/provable-things/ethereum-api/blob/master/contracts/solc-v0.8.x/provableAPI.sol\":7205:7212  1 ether */\n      0x0de0b6b3a7640000\n        /* \"https://github.com/provable-things/ethereum-api/blob/master/contracts/solc-v0.8.x/provableAPI.sol\":7205:7235  1 ether + tx.gasprice * 200000 */\n      tag_55\n      swap2\n      swap1\n      tag_56\n      jump\t// in\n    tag_55:\n        /* \"https://github.com/provable-things/ethereum-api/blob/master/contracts/solc-v0.8.x/provableAPI.sol\":7197:7202  price */\n      dup2\n        /* \"https://github.com/provable-things/ethereum-api/blob/master/contracts/solc-v0.8.x/provableAPI.sol\":7197:7235  price > 1 ether + tx.gasprice * 200000 */\n      gt\n        /* \"https://github.com/provable-things/ethereum-api/blob/master/contracts/solc-v0.8.x/provableAPI.sol\":7193:7297  if (price > 1 ether + tx.gasprice * 200000) {... */\n      iszero\n      tag_57\n      jumpi\n        /* \"https://github.com/provable-things/ethereum-api/blob/master/contracts/solc-v0.8.x/provableAPI.sol\":7258:7259  0 */\n      0x00\n        /* \"https://github.com/provable-things/ethereum-api/blob/master/contracts/solc-v0.8.x/provableAPI.sol\":7251:7259  return 0 */\n      dup1\n      shl\n      swap2\n      pop\n      pop\n      jump(tag_47)\n        /* \"https://github.com/provable-things/ethereum-api/blob/master/contracts/solc-v0.8.x/provableAPI.sol\":7193:7297  if (price > 1 ether + tx.gasprice * 200000) {... */\n    tag_57:\n        /* \"https://github.com/provable-things/ethereum-api/blob/master/contracts/solc-v0.8.x/provableAPI.sol\":7313:7321  provable */\n      0x00\n      dup1\n      sload\n      swap1\n      0x0100\n      exp\n      swap1\n      div\n      0xffffffffffffffffffffffffffffffffffffffff\n      and\n        /* \"https://github.com/provable-things/ethereum-api/blob/master/contracts/solc-v0.8.x/provableAPI.sol\":7313:7327  provable.query */\n      0xffffffffffffffffffffffffffffffffffffffff\n      and\n      0xadf59f99\n        /* \"https://github.com/provable-things/ethereum-api/blob/master/contracts/solc-v0.8.x/provableAPI.sol\":7335:7340  price */\n      dup3\n        /* \"https://github.com/provable-things/ethereum-api/blob/master/contracts/solc-v0.8.x/provableAPI.sol\":7342:7343  0 */\n      0x00\n        /* \"https://github.com/provable-things/ethereum-api/blob/master/contracts/solc-v0.8.x/provableAPI.sol\":7345:7356  _datasource */\n      dup8\n        /* \"https://github.com/provable-things/ethereum-api/blob/master/contracts/solc-v0.8.x/provableAPI.sol\":7358:7362  _arg */\n      dup8\n        /* \"https://github.com/provable-things/ethereum-api/blob/master/contracts/solc-v0.8.x/provableAPI.sol\":7313:7363  provable.query{value: price}(0, _datasource, _arg) */\n      mload(0x40)\n      dup6\n      0xffffffff\n      and\n      0xe0\n      shl\n      dup2\n      mstore\n      0x04\n      add\n      tag_58\n      swap4\n      swap3\n      swap2\n      swap1\n      tag_59\n      jump\t// in\n    tag_58:\n      0x20\n      mload(0x40)\n      dup1\n      dup4\n      sub\n      dup2\n      dup6\n      dup9\n      gas\n      call\n      iszero\n      dup1\n      iszero\n      tag_61\n      jumpi\n      returndatasize\n      0x00\n      dup1\n      returndatacopy\n      revert(0x00, returndatasize)\n    tag_61:\n      pop\n      pop\n      pop\n      pop\n      pop\n      mload(0x40)\n      returndatasize\n      not(0x1f)\n      0x1f\n      dup3\n      add\n      and\n      dup3\n      add\n      dup1\n      0x40\n      mstore\n      pop\n      dup2\n      add\n      swap1\n      tag_62\n      swap2\n      swap1\n      tag_63\n      jump\t// in\n    tag_62:\n        /* \"https://github.com/provable-things/ethereum-api/blob/master/contracts/solc-v0.8.x/provableAPI.sol\":7306:7363  return provable.query{value: price}(0, _datasource, _arg) */\n      swap2\n      pop\n      pop\n        /* \"https://github.com/provable-things/ethereum-api/blob/master/contracts/solc-v0.8.x/provableAPI.sol\":2876:2877  _ */\n    tag_47:\n        /* \"https://github.com/provable-things/ethereum-api/blob/master/contracts/solc-v0.8.x/provableAPI.sol\":7016:7370  function provable_query(string memory _datasource, string memory _arg) provableAPI internal returns (bytes32 _id) {... */\n      swap3\n      swap2\n      pop\n      pop\n      jump\t// out\n        /* \"https://github.com/provable-things/ethereum-api/blob/master/contracts/solc-v0.8.x/provableAPI.sol\":28367:28514  function getCodeSize(address _addr) view internal returns (uint _size) {... */\n    tag_36:\n        /* \"https://github.com/provable-things/ethereum-api/blob/master/contracts/solc-v0.8.x/provableAPI.sol\":28426:28436  uint _size */\n      0x00\n        /* \"https://github.com/provable-things/ethereum-api/blob/master/contracts/solc-v0.8.x/provableAPI.sol\":28492:28497  _addr */\n      dup2\n        /* \"https://github.com/provable-things/ethereum-api/blob/master/contracts/solc-v0.8.x/provableAPI.sol\":28480:28498  extcodesize(_addr) */\n      extcodesize\n        /* \"https://github.com/provable-things/ethereum-api/blob/master/contracts/solc-v0.8.x/provableAPI.sol\":28471:28498  _size := extcodesize(_addr) */\n      swap1\n      pop\n        /* \"https://github.com/provable-things/ethereum-api/blob/master/contracts/solc-v0.8.x/provableAPI.sol\":28367:28514  function getCodeSize(address _addr) view internal returns (uint _size) {... */\n      swap2\n      swap1\n      pop\n      jump\t// out\n        /* \"https://github.com/provable-things/ethereum-api/blob/master/contracts/solc-v0.8.x/provableAPI.sol\":3359:3564  function provable_setNetwork(uint8 _networkID) internal returns (bool _networkSet) {... */\n    tag_39:\n        /* \"https://github.com/provable-things/ethereum-api/blob/master/contracts/solc-v0.8.x/provableAPI.sol\":3424:3440  bool _networkSet */\n      0x00\n        /* \"https://github.com/provable-things/ethereum-api/blob/master/contracts/solc-v0.8.x/provableAPI.sol\":3536:3557  provable_setNetwork() */\n      tag_66\n        /* \"https://github.com/provable-things/ethereum-api/blob/master/contracts/solc-v0.8.x/provableAPI.sol\":3536:3555  provable_setNetwork */\n      tag_67\n        /* \"https://github.com/provable-things/ethereum-api/blob/master/contracts/solc-v0.8.x/provableAPI.sol\":3536:3557  provable_setNetwork() */\n      jump\t// in\n    tag_66:\n        /* \"https://github.com/provable-things/ethereum-api/blob/master/contracts/solc-v0.8.x/provableAPI.sol\":3529:3557  return provable_setNetwork() */\n      swap1\n      pop\n        /* \"https://github.com/provable-things/ethereum-api/blob/master/contracts/solc-v0.8.x/provableAPI.sol\":3359:3564  function provable_setNetwork(uint8 _networkID) internal returns (bool _networkSet) {... */\n      swap2\n      swap1\n      pop\n      jump\t// out\n        /* \"https://github.com/provable-things/ethereum-api/blob/master/contracts/solc-v0.8.x/provableAPI.sol\":3838:6659  function provable_setNetwork() internal returns (bool _networkSet) {... */\n    tag_67:\n        /* \"https://github.com/provable-things/ethereum-api/blob/master/contracts/solc-v0.8.x/provableAPI.sol\":3887:3903  bool _networkSet */\n      0x00\n        /* \"https://github.com/provable-things/ethereum-api/blob/master/contracts/solc-v0.8.x/provableAPI.sol\":3977:3978  0 */\n      dup1\n        /* \"https://github.com/provable-things/ethereum-api/blob/master/contracts/solc-v0.8.x/provableAPI.sol\":3919:3974  getCodeSize(0x1d3B2638a7cC9f2CB3D298A3DA7a90B67E5506ed) */\n      tag_69\n        /* \"https://github.com/provable-things/ethereum-api/blob/master/contracts/solc-v0.8.x/provableAPI.sol\":3931:3973  0x1d3B2638a7cC9f2CB3D298A3DA7a90B67E5506ed */\n      0x1d3b2638a7cc9f2cb3d298a3da7a90b67e5506ed\n        /* \"https://github.com/provable-things/ethereum-api/blob/master/contracts/solc-v0.8.x/provableAPI.sol\":3919:3930  getCodeSize */\n      tag_36\n        /* \"https://github.com/provable-things/ethereum-api/blob/master/contracts/solc-v0.8.x/provableAPI.sol\":3919:3974  getCodeSize(0x1d3B2638a7cC9f2CB3D298A3DA7a90B67E5506ed) */\n      jump\t// in\n    tag_69:\n        /* \"https://github.com/provable-things/ethereum-api/blob/master/contracts/solc-v0.8.x/provableAPI.sol\":3919:3978  getCodeSize(0x1d3B2638a7cC9f2CB3D298A3DA7a90B67E5506ed) > 0 */\n      gt\n        /* \"https://github.com/provable-things/ethereum-api/blob/master/contracts/solc-v0.8.x/provableAPI.sol\":3915:4161  if (getCodeSize(0x1d3B2638a7cC9f2CB3D298A3DA7a90B67E5506ed) > 0) { //mainnet... */\n      iszero\n      tag_70\n      jumpi\n        /* \"https://github.com/provable-things/ethereum-api/blob/master/contracts/solc-v0.8.x/provableAPI.sol\":4030:4072  0x1d3B2638a7cC9f2CB3D298A3DA7a90B67E5506ed */\n      0x1d3b2638a7cc9f2cb3d298a3da7a90b67e5506ed\n        /* \"https://github.com/provable-things/ethereum-api/blob/master/contracts/solc-v0.8.x/provableAPI.sol\":4004:4007  OAR */\n      0x01\n      0x00\n        /* \"https://github.com/provable-things/ethereum-api/blob/master/contracts/solc-v0.8.x/provableAPI.sol\":4004:4073  OAR = OracleAddrResolverI(0x1d3B2638a7cC9f2CB3D298A3DA7a90B67E5506ed) */\n      0x0100\n      exp\n      dup2\n      sload\n      dup2\n      0xffffffffffffffffffffffffffffffffffffffff\n      mul\n      not\n      and\n      swap1\n      dup4\n      0xffffffffffffffffffffffffffffffffffffffff\n      and\n      mul\n      or\n      swap1\n      sstore\n      pop\n        /* \"https://github.com/provable-things/ethereum-api/blob/master/contracts/solc-v0.8.x/provableAPI.sol\":4087:4125  provable_setNetworkName(\"eth_mainnet\") */\n      tag_71\n      mload(0x40)\n      dup1\n      0x40\n      add\n      0x40\n      mstore\n      dup1\n      0x0b\n      dup2\n      mstore\n      0x20\n      add\n      0x6574685f6d61696e6e6574000000000000000000000000000000000000000000\n      dup2\n      mstore\n      pop\n        /* \"https://github.com/provable-things/ethereum-api/blob/master/contracts/solc-v0.8.x/provableAPI.sol\":4087:4110  provable_setNetworkName */\n      tag_72\n        /* \"https://github.com/provable-things/ethereum-api/blob/master/contracts/solc-v0.8.x/provableAPI.sol\":4087:4125  provable_setNetworkName(\"eth_mainnet\") */\n      jump\t// in\n    tag_71:\n        /* \"https://github.com/provable-things/ethereum-api/blob/master/contracts/solc-v0.8.x/provableAPI.sol\":4146:4150  true */\n      0x01\n        /* \"https://github.com/provable-things/ethereum-api/blob/master/contracts/solc-v0.8.x/provableAPI.sol\":4139:4150  return true */\n      swap1\n      pop\n      jump(tag_68)\n        /* \"https://github.com/provable-things/ethereum-api/blob/master/contracts/solc-v0.8.x/provableAPI.sol\":3915:4161  if (getCodeSize(0x1d3B2638a7cC9f2CB3D298A3DA7a90B67E5506ed) > 0) { //mainnet... */\n    tag_70:\n        /* \"https://github.com/provable-things/ethereum-api/blob/master/contracts/solc-v0.8.x/provableAPI.sol\":4232:4233  0 */\n      0x00\n        /* \"https://github.com/provable-things/ethereum-api/blob/master/contracts/solc-v0.8.x/provableAPI.sol\":4174:4229  getCodeSize(0xc03A2615D5efaf5F49F60B7BB6583eaec212fdf1) */\n      tag_73\n        /* \"https://github.com/provable-things/ethereum-api/blob/master/contracts/solc-v0.8.x/provableAPI.sol\":4186:4228  0xc03A2615D5efaf5F49F60B7BB6583eaec212fdf1 */\n      0xc03a2615d5efaf5f49f60b7bb6583eaec212fdf1\n        /* \"https://github.com/provable-things/ethereum-api/blob/master/contracts/solc-v0.8.x/provableAPI.sol\":4174:4185  getCodeSize */\n      tag_36\n        /* \"https://github.com/provable-things/ethereum-api/blob/master/contracts/solc-v0.8.x/provableAPI.sol\":4174:4229  getCodeSize(0xc03A2615D5efaf5F49F60B7BB6583eaec212fdf1) */\n      jump\t// in\n    tag_73:\n        /* \"https://github.com/provable-things/ethereum-api/blob/master/contracts/solc-v0.8.x/provableAPI.sol\":4174:4233  getCodeSize(0xc03A2615D5efaf5F49F60B7BB6583eaec212fdf1) > 0 */\n      gt\n        /* \"https://github.com/provable-things/ethereum-api/blob/master/contracts/solc-v0.8.x/provableAPI.sol\":4170:4425  if (getCodeSize(0xc03A2615D5efaf5F49F60B7BB6583eaec212fdf1) > 0) { //ropsten testnet... */\n      iszero\n      tag_74\n      jumpi\n        /* \"https://github.com/provable-things/ethereum-api/blob/master/contracts/solc-v0.8.x/provableAPI.sol\":4293:4335  0xc03A2615D5efaf5F49F60B7BB6583eaec212fdf1 */\n      0xc03a2615d5efaf5f49f60b7bb6583eaec212fdf1\n        /* \"https://github.com/provable-things/ethereum-api/blob/master/contracts/solc-v0.8.x/provableAPI.sol\":4267:4270  OAR */\n      0x01\n      0x00\n        /* \"https://github.com/provable-things/ethereum-api/blob/master/contracts/solc-v0.8.x/provableAPI.sol\":4267:4336  OAR = OracleAddrResolverI(0xc03A2615D5efaf5F49F60B7BB6583eaec212fdf1) */\n      0x0100\n      exp\n      dup2\n      sload\n      dup2\n      0xffffffffffffffffffffffffffffffffffffffff\n      mul\n      not\n      and\n      swap1\n      dup4\n      0xffffffffffffffffffffffffffffffffffffffff\n      and\n      mul\n      or\n      swap1\n      sstore\n      pop\n        /* \"https://github.com/provable-things/ethereum-api/blob/master/contracts/solc-v0.8.x/provableAPI.sol\":4350:4389  provable_setNetworkName(\"eth_ropsten3\") */\n      tag_75\n      mload(0x40)\n      dup1\n      0x40\n      add\n      0x40\n      mstore\n      dup1\n      0x0c\n      dup2\n      mstore\n      0x20\n      add\n      0x6574685f726f707374656e330000000000000000000000000000000000000000\n      dup2\n      mstore\n      pop\n        /* \"https://github.com/provable-things/ethereum-api/blob/master/contracts/solc-v0.8.x/provableAPI.sol\":4350:4373  provable_setNetworkName */\n      tag_72\n        /* \"https://github.com/provable-things/ethereum-api/blob/master/contracts/solc-v0.8.x/provableAPI.sol\":4350:4389  provable_setNetworkName(\"eth_ropsten3\") */\n      jump\t// in\n    tag_75:\n        /* \"https://github.com/provable-things/ethereum-api/blob/master/contracts/solc-v0.8.x/provableAPI.sol\":4410:4414  true */\n      0x01\n        /* \"https://github.com/provable-things/ethereum-api/blob/master/contracts/solc-v0.8.x/provableAPI.sol\":4403:4414  return true */\n      swap1\n      pop\n      jump(tag_68)\n        /* \"https://github.com/provable-things/ethereum-api/blob/master/contracts/solc-v0.8.x/provableAPI.sol\":4170:4425  if (getCodeSize(0xc03A2615D5efaf5F49F60B7BB6583eaec212fdf1) > 0) { //ropsten testnet... */\n    tag_74:\n        /* \"https://github.com/provable-things/ethereum-api/blob/master/contracts/solc-v0.8.x/provableAPI.sol\":4496:4497  0 */\n      0x00\n        /* \"https://github.com/provable-things/ethereum-api/blob/master/contracts/solc-v0.8.x/provableAPI.sol\":4438:4493  getCodeSize(0xB7A07BcF2Ba2f2703b24C0691b5278999C59AC7e) */\n      tag_76\n        /* \"https://github.com/provable-things/ethereum-api/blob/master/contracts/solc-v0.8.x/provableAPI.sol\":4450:4492  0xB7A07BcF2Ba2f2703b24C0691b5278999C59AC7e */\n      0xb7a07bcf2ba2f2703b24c0691b5278999c59ac7e\n        /* \"https://github.com/provable-things/ethereum-api/blob/master/contracts/solc-v0.8.x/provableAPI.sol\":4438:4449  getCodeSize */\n      tag_36\n        /* \"https://github.com/provable-things/ethereum-api/blob/master/contracts/solc-v0.8.x/provableAPI.sol\":4438:4493  getCodeSize(0xB7A07BcF2Ba2f2703b24C0691b5278999C59AC7e) */\n      jump\t// in\n    tag_76:\n        /* \"https://github.com/provable-things/ethereum-api/blob/master/contracts/solc-v0.8.x/provableAPI.sol\":4438:4497  getCodeSize(0xB7A07BcF2Ba2f2703b24C0691b5278999C59AC7e) > 0 */\n      gt\n        /* \"https://github.com/provable-things/ethereum-api/blob/master/contracts/solc-v0.8.x/provableAPI.sol\":4434:4684  if (getCodeSize(0xB7A07BcF2Ba2f2703b24C0691b5278999C59AC7e) > 0) { //kovan testnet... */\n      iszero\n      tag_77\n      jumpi\n        /* \"https://github.com/provable-things/ethereum-api/blob/master/contracts/solc-v0.8.x/provableAPI.sol\":4555:4597  0xB7A07BcF2Ba2f2703b24C0691b5278999C59AC7e */\n      0xb7a07bcf2ba2f2703b24c0691b5278999c59ac7e\n        /* \"https://github.com/provable-things/ethereum-api/blob/master/contracts/solc-v0.8.x/provableAPI.sol\":4529:4532  OAR */\n      0x01\n      0x00\n        /* \"https://github.com/provable-things/ethereum-api/blob/master/contracts/solc-v0.8.x/provableAPI.sol\":4529:4598  OAR = OracleAddrResolverI(0xB7A07BcF2Ba2f2703b24C0691b5278999C59AC7e) */\n      0x0100\n      exp\n      dup2\n      sload\n      dup2\n      0xffffffffffffffffffffffffffffffffffffffff\n      mul\n      not\n      and\n      swap1\n      dup4\n      0xffffffffffffffffffffffffffffffffffffffff\n      and\n      mul\n      or\n      swap1\n      sstore\n      pop\n        /* \"https://github.com/provable-things/ethereum-api/blob/master/contracts/solc-v0.8.x/provableAPI.sol\":4612:4648  provable_setNetworkName(\"eth_kovan\") */\n      tag_78\n      mload(0x40)\n      dup1\n      0x40\n      add\n      0x40\n      mstore\n      dup1\n      0x09\n      dup2\n      mstore\n      0x20\n      add\n      0x6574685f6b6f76616e0000000000000000000000000000000000000000000000\n      dup2\n      mstore\n      pop\n        /* \"https://github.com/provable-things/ethereum-api/blob/master/contracts/solc-v0.8.x/provableAPI.sol\":4612:4635  provable_setNetworkName */\n      tag_72\n        /* \"https://github.com/provable-things/ethereum-api/blob/master/contracts/solc-v0.8.x/provableAPI.sol\":4612:4648  provable_setNetworkName(\"eth_kovan\") */\n      jump\t// in\n    tag_78:\n        /* \"https://github.com/provable-things/ethereum-api/blob/master/contracts/solc-v0.8.x/provableAPI.sol\":4669:4673  true */\n      0x01\n        /* \"https://github.com/provable-things/ethereum-api/blob/master/contracts/solc-v0.8.x/provableAPI.sol\":4662:4673  return true */\n      swap1\n      pop\n      jump(tag_68)\n        /* \"https://github.com/provable-things/ethereum-api/blob/master/contracts/solc-v0.8.x/provableAPI.sol\":4434:4684  if (getCodeSize(0xB7A07BcF2Ba2f2703b24C0691b5278999C59AC7e) > 0) { //kovan testnet... */\n    tag_77:\n        /* \"https://github.com/provable-things/ethereum-api/blob/master/contracts/solc-v0.8.x/provableAPI.sol\":4755:4756  0 */\n      0x00\n        /* \"https://github.com/provable-things/ethereum-api/blob/master/contracts/solc-v0.8.x/provableAPI.sol\":4697:4752  getCodeSize(0x146500cfd35B22E4A392Fe0aDc06De1a1368Ed48) */\n      tag_79\n        /* \"https://github.com/provable-things/ethereum-api/blob/master/contracts/solc-v0.8.x/provableAPI.sol\":4709:4751  0x146500cfd35B22E4A392Fe0aDc06De1a1368Ed48 */\n      0x146500cfd35b22e4a392fe0adc06de1a1368ed48\n        /* \"https://github.com/provable-things/ethereum-api/blob/master/contracts/solc-v0.8.x/provableAPI.sol\":4697:4708  getCodeSize */\n      tag_36\n        /* \"https://github.com/provable-things/ethereum-api/blob/master/contracts/solc-v0.8.x/provableAPI.sol\":4697:4752  getCodeSize(0x146500cfd35B22E4A392Fe0aDc06De1a1368Ed48) */\n      jump\t// in\n    tag_79:\n        /* \"https://github.com/provable-things/ethereum-api/blob/master/contracts/solc-v0.8.x/provableAPI.sol\":4697:4756  getCodeSize(0x146500cfd35B22E4A392Fe0aDc06De1a1368Ed48) > 0 */\n      gt\n        /* \"https://github.com/provable-things/ethereum-api/blob/master/contracts/solc-v0.8.x/provableAPI.sol\":4693:4947  if (getCodeSize(0x146500cfd35B22E4A392Fe0aDc06De1a1368Ed48) > 0) { //rinkeby testnet... */\n      iszero\n      tag_80\n      jumpi\n        /* \"https://github.com/provable-things/ethereum-api/blob/master/contracts/solc-v0.8.x/provableAPI.sol\":4816:4858  0x146500cfd35B22E4A392Fe0aDc06De1a1368Ed48 */\n      0x146500cfd35b22e4a392fe0adc06de1a1368ed48\n        /* \"https://github.com/provable-things/ethereum-api/blob/master/contracts/solc-v0.8.x/provableAPI.sol\":4790:4793  OAR */\n      0x01\n      0x00\n        /* \"https://github.com/provable-things/ethereum-api/blob/master/contracts/solc-v0.8.x/provableAPI.sol\":4790:4859  OAR = OracleAddrResolverI(0x146500cfd35B22E4A392Fe0aDc06De1a1368Ed48) */\n      0x0100\n      exp\n      dup2\n      sload\n      dup2\n      0xffffffffffffffffffffffffffffffffffffffff\n      mul\n      not\n      and\n      swap1\n      dup4\n      0xffffffffffffffffffffffffffffffffffffffff\n      and\n      mul\n      or\n      swap1\n      sstore\n      pop\n        /* \"https://github.com/provable-things/ethereum-api/blob/master/contracts/solc-v0.8.x/provableAPI.sol\":4873:4911  provable_setNetworkName(\"eth_rinkeby\") */\n      tag_81\n      mload(0x40)\n      dup1\n      0x40\n      add\n      0x40\n      mstore\n      dup1\n      0x0b\n      dup2\n      mstore\n      0x20\n      add\n      0x6574685f72696e6b656279000000000000000000000000000000000000000000\n      dup2\n      mstore\n      pop\n        /* \"https://github.com/provable-things/ethereum-api/blob/master/contracts/solc-v0.8.x/provableAPI.sol\":4873:4896  provable_setNetworkName */\n      tag_72\n        /* \"https://github.com/provable-things/ethereum-api/blob/master/contracts/solc-v0.8.x/provableAPI.sol\":4873:4911  provable_setNetworkName(\"eth_rinkeby\") */\n      jump\t// in\n    tag_81:\n        /* \"https://github.com/provable-things/ethereum-api/blob/master/contracts/solc-v0.8.x/provableAPI.sol\":4932:4936  true */\n      0x01\n        /* \"https://github.com/provable-things/ethereum-api/blob/master/contracts/solc-v0.8.x/provableAPI.sol\":4925:4936  return true */\n      swap1\n      pop\n      jump(tag_68)\n        /* \"https://github.com/provable-things/ethereum-api/blob/master/contracts/solc-v0.8.x/provableAPI.sol\":4693:4947  if (getCodeSize(0x146500cfd35B22E4A392Fe0aDc06De1a1368Ed48) > 0) { //rinkeby testnet... */\n    tag_80:\n        /* \"https://github.com/provable-things/ethereum-api/blob/master/contracts/solc-v0.8.x/provableAPI.sol\":5018:5019  0 */\n      0x00\n        /* \"https://github.com/provable-things/ethereum-api/blob/master/contracts/solc-v0.8.x/provableAPI.sol\":4960:5015  getCodeSize(0xa2998EFD205FB9D4B4963aFb70778D6354ad3A41) */\n      tag_82\n        /* \"https://github.com/provable-things/ethereum-api/blob/master/contracts/solc-v0.8.x/provableAPI.sol\":4972:5014  0xa2998EFD205FB9D4B4963aFb70778D6354ad3A41 */\n      0xa2998efd205fb9d4b4963afb70778d6354ad3a41\n        /* \"https://github.com/provable-things/ethereum-api/blob/master/contracts/solc-v0.8.x/provableAPI.sol\":4960:4971  getCodeSize */\n      tag_36\n        /* \"https://github.com/provable-things/ethereum-api/blob/master/contracts/solc-v0.8.x/provableAPI.sol\":4960:5015  getCodeSize(0xa2998EFD205FB9D4B4963aFb70778D6354ad3A41) */\n      jump\t// in\n    tag_82:\n        /* \"https://github.com/provable-things/ethereum-api/blob/master/contracts/solc-v0.8.x/provableAPI.sol\":4960:5019  getCodeSize(0xa2998EFD205FB9D4B4963aFb70778D6354ad3A41) > 0 */\n      gt\n        /* \"https://github.com/provable-things/ethereum-api/blob/master/contracts/solc-v0.8.x/provableAPI.sol\":4956:5208  if (getCodeSize(0xa2998EFD205FB9D4B4963aFb70778D6354ad3A41) > 0) { //goerli testnet... */\n      iszero\n      tag_83\n      jumpi\n        /* \"https://github.com/provable-things/ethereum-api/blob/master/contracts/solc-v0.8.x/provableAPI.sol\":5078:5120  0xa2998EFD205FB9D4B4963aFb70778D6354ad3A41 */\n      0xa2998efd205fb9d4b4963afb70778d6354ad3a41\n        /* \"https://github.com/provable-things/ethereum-api/blob/master/contracts/solc-v0.8.x/provableAPI.sol\":5052:5055  OAR */\n      0x01\n      0x00\n        /* \"https://github.com/provable-things/ethereum-api/blob/master/contracts/solc-v0.8.x/provableAPI.sol\":5052:5121  OAR = OracleAddrResolverI(0xa2998EFD205FB9D4B4963aFb70778D6354ad3A41) */\n      0x0100\n      exp\n      dup2\n      sload\n      dup2\n      0xffffffffffffffffffffffffffffffffffffffff\n      mul\n      not\n      and\n      swap1\n      dup4\n      0xffffffffffffffffffffffffffffffffffffffff\n      and\n      mul\n      or\n      swap1\n      sstore\n      pop\n        /* \"https://github.com/provable-things/ethereum-api/blob/master/contracts/solc-v0.8.x/provableAPI.sol\":5135:5172  provable_setNetworkName(\"eth_goerli\") */\n      tag_84\n      mload(0x40)\n      dup1\n      0x40\n      add\n      0x40\n      mstore\n      dup1\n      0x0a\n      dup2\n      mstore\n      0x20\n      add\n      0x6574685f676f65726c6900000000000000000000000000000000000000000000\n      dup2\n      mstore\n      pop\n        /* \"https://github.com/provable-things/ethereum-api/blob/master/contracts/solc-v0.8.x/provableAPI.sol\":5135:5158  provable_setNetworkName */\n      tag_72\n        /* \"https://github.com/provable-things/ethereum-api/blob/master/contracts/solc-v0.8.x/provableAPI.sol\":5135:5172  provable_setNetworkName(\"eth_goerli\") */\n      jump\t// in\n    tag_84:\n        /* \"https://github.com/provable-things/ethereum-api/blob/master/contracts/solc-v0.8.x/provableAPI.sol\":5193:5197  true */\n      0x01\n        /* \"https://github.com/provable-things/ethereum-api/blob/master/contracts/solc-v0.8.x/provableAPI.sol\":5186:5197  return true */\n      swap1\n      pop\n      jump(tag_68)\n        /* \"https://github.com/provable-things/ethereum-api/blob/master/contracts/solc-v0.8.x/provableAPI.sol\":4956:5208  if (getCodeSize(0xa2998EFD205FB9D4B4963aFb70778D6354ad3A41) > 0) { //goerli testnet... */\n    tag_83:\n        /* \"https://github.com/provable-things/ethereum-api/blob/master/contracts/solc-v0.8.x/provableAPI.sol\":5279:5280  0 */\n      0x00\n        /* \"https://github.com/provable-things/ethereum-api/blob/master/contracts/solc-v0.8.x/provableAPI.sol\":5221:5276  getCodeSize(0x90A0F94702c9630036FB9846B52bf31A1C991a84) */\n      tag_85\n        /* \"https://github.com/provable-things/ethereum-api/blob/master/contracts/solc-v0.8.x/provableAPI.sol\":5233:5275  0x90A0F94702c9630036FB9846B52bf31A1C991a84 */\n      0x90a0f94702c9630036fb9846b52bf31a1c991a84\n        /* \"https://github.com/provable-things/ethereum-api/blob/master/contracts/solc-v0.8.x/provableAPI.sol\":5221:5232  getCodeSize */\n      tag_36\n        /* \"https://github.com/provable-things/ethereum-api/blob/master/contracts/solc-v0.8.x/provableAPI.sol\":5221:5276  getCodeSize(0x90A0F94702c9630036FB9846B52bf31A1C991a84) */\n      jump\t// in\n    tag_85:\n        /* \"https://github.com/provable-things/ethereum-api/blob/master/contracts/solc-v0.8.x/provableAPI.sol\":5221:5280  getCodeSize(0x90A0F94702c9630036FB9846B52bf31A1C991a84) > 0 */\n      gt\n        /* \"https://github.com/provable-things/ethereum-api/blob/master/contracts/solc-v0.8.x/provableAPI.sol\":5217:5466  if (getCodeSize(0x90A0F94702c9630036FB9846B52bf31A1C991a84) > 0){ //bsc mainnet... */\n      iszero\n      tag_86\n      jumpi\n        /* \"https://github.com/provable-things/ethereum-api/blob/master/contracts/solc-v0.8.x/provableAPI.sol\":5335:5377  0x90A0F94702c9630036FB9846B52bf31A1C991a84 */\n      0x90a0f94702c9630036fb9846b52bf31a1c991a84\n        /* \"https://github.com/provable-things/ethereum-api/blob/master/contracts/solc-v0.8.x/provableAPI.sol\":5309:5312  OAR */\n      0x01\n      0x00\n        /* \"https://github.com/provable-things/ethereum-api/blob/master/contracts/solc-v0.8.x/provableAPI.sol\":5309:5378  OAR = OracleAddrResolverI(0x90A0F94702c9630036FB9846B52bf31A1C991a84) */\n      0x0100\n      exp\n      dup2\n      sload\n      dup2\n      0xffffffffffffffffffffffffffffffffffffffff\n      mul\n      not\n      and\n      swap1\n      dup4\n      0xffffffffffffffffffffffffffffffffffffffff\n      and\n      mul\n      or\n      swap1\n      sstore\n      pop\n        /* \"https://github.com/provable-things/ethereum-api/blob/master/contracts/solc-v0.8.x/provableAPI.sol\":5392:5430  provable_setNetworkName(\"bsc_mainnet\") */\n      tag_87\n      mload(0x40)\n      dup1\n      0x40\n      add\n      0x40\n      mstore\n      dup1\n      0x0b\n      dup2\n      mstore\n      0x20\n      add\n      0x6273635f6d61696e6e6574000000000000000000000000000000000000000000\n      dup2\n      mstore\n      pop\n        /* \"https://github.com/provable-things/ethereum-api/blob/master/contracts/solc-v0.8.x/provableAPI.sol\":5392:5415  provable_setNetworkName */\n      tag_72\n        /* \"https://github.com/provable-things/ethereum-api/blob/master/contracts/solc-v0.8.x/provableAPI.sol\":5392:5430  provable_setNetworkName(\"bsc_mainnet\") */\n      jump\t// in\n    tag_87:\n        /* \"https://github.com/provable-things/ethereum-api/blob/master/contracts/solc-v0.8.x/provableAPI.sol\":5451:5455  true */\n      0x01\n        /* \"https://github.com/provable-things/ethereum-api/blob/master/contracts/solc-v0.8.x/provableAPI.sol\":5444:5455  return true */\n      swap1\n      pop\n      jump(tag_68)\n        /* \"https://github.com/provable-things/ethereum-api/blob/master/contracts/solc-v0.8.x/provableAPI.sol\":5217:5466  if (getCodeSize(0x90A0F94702c9630036FB9846B52bf31A1C991a84) > 0){ //bsc mainnet... */\n    tag_86:\n        /* \"https://github.com/provable-things/ethereum-api/blob/master/contracts/solc-v0.8.x/provableAPI.sol\":5537:5538  0 */\n      0x00\n        /* \"https://github.com/provable-things/ethereum-api/blob/master/contracts/solc-v0.8.x/provableAPI.sol\":5479:5534  getCodeSize(0x816ec2AF1b56183F82f8C05759E99FEc3c3De609) */\n      tag_88\n        /* \"https://github.com/provable-things/ethereum-api/blob/master/contracts/solc-v0.8.x/provableAPI.sol\":5491:5533  0x816ec2AF1b56183F82f8C05759E99FEc3c3De609 */\n      0x816ec2af1b56183f82f8c05759e99fec3c3de609\n        /* \"https://github.com/provable-things/ethereum-api/blob/master/contracts/solc-v0.8.x/provableAPI.sol\":5479:5490  getCodeSize */\n      tag_36\n        /* \"https://github.com/provable-things/ethereum-api/blob/master/contracts/solc-v0.8.x/provableAPI.sol\":5479:5534  getCodeSize(0x816ec2AF1b56183F82f8C05759E99FEc3c3De609) */\n      jump\t// in\n    tag_88:\n        /* \"https://github.com/provable-things/ethereum-api/blob/master/contracts/solc-v0.8.x/provableAPI.sol\":5479:5538  getCodeSize(0x816ec2AF1b56183F82f8C05759E99FEc3c3De609) > 0 */\n      gt\n        /* \"https://github.com/provable-things/ethereum-api/blob/master/contracts/solc-v0.8.x/provableAPI.sol\":5475:5732  if (getCodeSize(0x816ec2AF1b56183F82f8C05759E99FEc3c3De609) > 0){ //polygon mainnet... */\n      iszero\n      tag_89\n      jumpi\n        /* \"https://github.com/provable-things/ethereum-api/blob/master/contracts/solc-v0.8.x/provableAPI.sol\":5597:5639  0x816ec2AF1b56183F82f8C05759E99FEc3c3De609 */\n      0x816ec2af1b56183f82f8c05759e99fec3c3de609\n        /* \"https://github.com/provable-things/ethereum-api/blob/master/contracts/solc-v0.8.x/provableAPI.sol\":5571:5574  OAR */\n      0x01\n      0x00\n        /* \"https://github.com/provable-things/ethereum-api/blob/master/contracts/solc-v0.8.x/provableAPI.sol\":5571:5640  OAR = OracleAddrResolverI(0x816ec2AF1b56183F82f8C05759E99FEc3c3De609) */\n      0x0100\n      exp\n      dup2\n      sload\n      dup2\n      0xffffffffffffffffffffffffffffffffffffffff\n      mul\n      not\n      and\n      swap1\n      dup4\n      0xffffffffffffffffffffffffffffffffffffffff\n      and\n      mul\n      or\n      swap1\n      sstore\n      pop\n        /* \"https://github.com/provable-things/ethereum-api/blob/master/contracts/solc-v0.8.x/provableAPI.sol\":5654:5696  provable_setNetworkName(\"polygon_mainnet\") */\n      tag_90\n      mload(0x40)\n      dup1\n      0x40\n      add\n      0x40\n      mstore\n      dup1\n      0x0f\n      dup2\n      mstore\n      0x20\n      add\n      0x706f6c79676f6e5f6d61696e6e65740000000000000000000000000000000000\n      dup2\n      mstore\n      pop\n        /* \"https://github.com/provable-things/ethereum-api/blob/master/contracts/solc-v0.8.x/provableAPI.sol\":5654:5677  provable_setNetworkName */\n      tag_72\n        /* \"https://github.com/provable-things/ethereum-api/blob/master/contracts/solc-v0.8.x/provableAPI.sol\":5654:5696  provable_setNetworkName(\"polygon_mainnet\") */\n      jump\t// in\n    tag_90:\n        /* \"https://github.com/provable-things/ethereum-api/blob/master/contracts/solc-v0.8.x/provableAPI.sol\":5717:5721  true */\n      0x01\n        /* \"https://github.com/provable-things/ethereum-api/blob/master/contracts/solc-v0.8.x/provableAPI.sol\":5710:5721  return true */\n      swap1\n      pop\n      jump(tag_68)\n        /* \"https://github.com/provable-things/ethereum-api/blob/master/contracts/solc-v0.8.x/provableAPI.sol\":5475:5732  if (getCodeSize(0x816ec2AF1b56183F82f8C05759E99FEc3c3De609) > 0){ //polygon mainnet... */\n    tag_89:\n        /* \"https://github.com/provable-things/ethereum-api/blob/master/contracts/solc-v0.8.x/provableAPI.sol\":5803:5804  0 */\n      0x00\n        /* \"https://github.com/provable-things/ethereum-api/blob/master/contracts/solc-v0.8.x/provableAPI.sol\":5745:5800  getCodeSize(0x14B31A1C66a9f3D18DFaC2d123FE8cE5847b7F85) */\n      tag_91\n        /* \"https://github.com/provable-things/ethereum-api/blob/master/contracts/solc-v0.8.x/provableAPI.sol\":5757:5799  0x14B31A1C66a9f3D18DFaC2d123FE8cE5847b7F85 */\n      0x14b31a1c66a9f3d18dfac2d123fe8ce5847b7f85\n        /* \"https://github.com/provable-things/ethereum-api/blob/master/contracts/solc-v0.8.x/provableAPI.sol\":5745:5756  getCodeSize */\n      tag_36\n        /* \"https://github.com/provable-things/ethereum-api/blob/master/contracts/solc-v0.8.x/provableAPI.sol\":5745:5800  getCodeSize(0x14B31A1C66a9f3D18DFaC2d123FE8cE5847b7F85) */\n      jump\t// in\n    tag_91:\n        /* \"https://github.com/provable-things/ethereum-api/blob/master/contracts/solc-v0.8.x/provableAPI.sol\":5745:5804  getCodeSize(0x14B31A1C66a9f3D18DFaC2d123FE8cE5847b7F85) > 0 */\n      gt\n        /* \"https://github.com/provable-things/ethereum-api/blob/master/contracts/solc-v0.8.x/provableAPI.sol\":5741:5998  if (getCodeSize(0x14B31A1C66a9f3D18DFaC2d123FE8cE5847b7F85) > 0){ //sepolia mainnet... */\n      iszero\n      tag_92\n      jumpi\n        /* \"https://github.com/provable-things/ethereum-api/blob/master/contracts/solc-v0.8.x/provableAPI.sol\":5863:5905  0x14B31A1C66a9f3D18DFaC2d123FE8cE5847b7F85 */\n      0x14b31a1c66a9f3d18dfac2d123fe8ce5847b7f85\n        /* \"https://github.com/provable-things/ethereum-api/blob/master/contracts/solc-v0.8.x/provableAPI.sol\":5837:5840  OAR */\n      0x01\n      0x00\n        /* \"https://github.com/provable-things/ethereum-api/blob/master/contracts/solc-v0.8.x/provableAPI.sol\":5837:5906  OAR = OracleAddrResolverI(0x14B31A1C66a9f3D18DFaC2d123FE8cE5847b7F85) */\n      0x0100\n      exp\n      dup2\n      sload\n      dup2\n      0xffffffffffffffffffffffffffffffffffffffff\n      mul\n      not\n      and\n      swap1\n      dup4\n      0xffffffffffffffffffffffffffffffffffffffff\n      and\n      mul\n      or\n      swap1\n      sstore\n      pop\n        /* \"https://github.com/provable-things/ethereum-api/blob/master/contracts/solc-v0.8.x/provableAPI.sol\":5920:5962  provable_setNetworkName(\"sepolia_mainnet\") */\n      tag_93\n      mload(0x40)\n      dup1\n      0x40\n      add\n      0x40\n      mstore\n      dup1\n      0x0f\n      dup2\n      mstore\n      0x20\n      add\n      0x7365706f6c69615f6d61696e6e65740000000000000000000000000000000000\n      dup2\n      mstore\n      pop\n        /* \"https://github.com/provable-things/ethereum-api/blob/master/contracts/solc-v0.8.x/provableAPI.sol\":5920:5943  provable_setNetworkName */\n      tag_72\n        /* \"https://github.com/provable-things/ethereum-api/blob/master/contracts/solc-v0.8.x/provableAPI.sol\":5920:5962  provable_setNetworkName(\"sepolia_mainnet\") */\n      jump\t// in\n    tag_93:\n        /* \"https://github.com/provable-things/ethereum-api/blob/master/contracts/solc-v0.8.x/provableAPI.sol\":5983:5987  true */\n      0x01\n        /* \"https://github.com/provable-things/ethereum-api/blob/master/contracts/solc-v0.8.x/provableAPI.sol\":5976:5987  return true */\n      swap1\n      pop\n      jump(tag_68)\n        /* \"https://github.com/provable-things/ethereum-api/blob/master/contracts/solc-v0.8.x/provableAPI.sol\":5741:5998  if (getCodeSize(0x14B31A1C66a9f3D18DFaC2d123FE8cE5847b7F85) > 0){ //sepolia mainnet... */\n    tag_92:\n        /* \"https://github.com/provable-things/ethereum-api/blob/master/contracts/solc-v0.8.x/provableAPI.sol\":6069:6070  0 */\n      0x00\n        /* \"https://github.com/provable-things/ethereum-api/blob/master/contracts/solc-v0.8.x/provableAPI.sol\":6011:6066  getCodeSize(0x6f485C8BF6fc43eA212E93BBF8ce046C7f1cb475) */\n      tag_94\n        /* \"https://github.com/provable-things/ethereum-api/blob/master/contracts/solc-v0.8.x/provableAPI.sol\":6023:6065  0x6f485C8BF6fc43eA212E93BBF8ce046C7f1cb475 */\n      0x6f485c8bf6fc43ea212e93bbf8ce046c7f1cb475\n        /* \"https://github.com/provable-things/ethereum-api/blob/master/contracts/solc-v0.8.x/provableAPI.sol\":6011:6022  getCodeSize */\n      tag_36\n        /* \"https://github.com/provable-things/ethereum-api/blob/master/contracts/solc-v0.8.x/provableAPI.sol\":6011:6066  getCodeSize(0x6f485C8BF6fc43eA212E93BBF8ce046C7f1cb475) */\n      jump\t// in\n    tag_94:\n        /* \"https://github.com/provable-things/ethereum-api/blob/master/contracts/solc-v0.8.x/provableAPI.sol\":6011:6070  getCodeSize(0x6f485C8BF6fc43eA212E93BBF8ce046C7f1cb475) > 0 */\n      gt\n        /* \"https://github.com/provable-things/ethereum-api/blob/master/contracts/solc-v0.8.x/provableAPI.sol\":6007:6209  if (getCodeSize(0x6f485C8BF6fc43eA212E93BBF8ce046C7f1cb475) > 0) { //ethereum-bridge... */\n      iszero\n      tag_95\n      jumpi\n        /* \"https://github.com/provable-things/ethereum-api/blob/master/contracts/solc-v0.8.x/provableAPI.sol\":6130:6172  0x6f485C8BF6fc43eA212E93BBF8ce046C7f1cb475 */\n      0x6f485c8bf6fc43ea212e93bbf8ce046c7f1cb475\n        /* \"https://github.com/provable-things/ethereum-api/blob/master/contracts/solc-v0.8.x/provableAPI.sol\":6104:6107  OAR */\n      0x01\n      0x00\n        /* \"https://github.com/provable-things/ethereum-api/blob/master/contracts/solc-v0.8.x/provableAPI.sol\":6104:6173  OAR = OracleAddrResolverI(0x6f485C8BF6fc43eA212E93BBF8ce046C7f1cb475) */\n      0x0100\n      exp\n      dup2\n      sload\n      dup2\n      0xffffffffffffffffffffffffffffffffffffffff\n      mul\n      not\n      and\n      swap1\n      dup4\n      0xffffffffffffffffffffffffffffffffffffffff\n      and\n      mul\n      or\n      swap1\n      sstore\n      pop\n        /* \"https://github.com/provable-things/ethereum-api/blob/master/contracts/solc-v0.8.x/provableAPI.sol\":6194:6198  true */\n      0x01\n        /* \"https://github.com/provable-things/ethereum-api/blob/master/contracts/solc-v0.8.x/provableAPI.sol\":6187:6198  return true */\n      swap1\n      pop\n      jump(tag_68)\n        /* \"https://github.com/provable-things/ethereum-api/blob/master/contracts/solc-v0.8.x/provableAPI.sol\":6007:6209  if (getCodeSize(0x6f485C8BF6fc43eA212E93BBF8ce046C7f1cb475) > 0) { //ethereum-bridge... */\n    tag_95:\n        /* \"https://github.com/provable-things/ethereum-api/blob/master/contracts/solc-v0.8.x/provableAPI.sol\":6280:6281  0 */\n      0x00\n        /* \"https://github.com/provable-things/ethereum-api/blob/master/contracts/solc-v0.8.x/provableAPI.sol\":6222:6277  getCodeSize(0x20e12A1F859B3FeaE5Fb2A0A32C18F5a65555bBF) */\n      tag_96\n        /* \"https://github.com/provable-things/ethereum-api/blob/master/contracts/solc-v0.8.x/provableAPI.sol\":6234:6276  0x20e12A1F859B3FeaE5Fb2A0A32C18F5a65555bBF */\n      0x20e12a1f859b3feae5fb2a0a32c18f5a65555bbf\n        /* \"https://github.com/provable-things/ethereum-api/blob/master/contracts/solc-v0.8.x/provableAPI.sol\":6222:6233  getCodeSize */\n      tag_36\n        /* \"https://github.com/provable-things/ethereum-api/blob/master/contracts/solc-v0.8.x/provableAPI.sol\":6222:6277  getCodeSize(0x20e12A1F859B3FeaE5Fb2A0A32C18F5a65555bBF) */\n      jump\t// in\n    tag_96:\n        /* \"https://github.com/provable-things/ethereum-api/blob/master/contracts/solc-v0.8.x/provableAPI.sol\":6222:6281  getCodeSize(0x20e12A1F859B3FeaE5Fb2A0A32C18F5a65555bBF) > 0 */\n      gt\n        /* \"https://github.com/provable-things/ethereum-api/blob/master/contracts/solc-v0.8.x/provableAPI.sol\":6218:6419  if (getCodeSize(0x20e12A1F859B3FeaE5Fb2A0A32C18F5a65555bBF) > 0) { //ether.camp ide... */\n      iszero\n      tag_97\n      jumpi\n        /* \"https://github.com/provable-things/ethereum-api/blob/master/contracts/solc-v0.8.x/provableAPI.sol\":6340:6382  0x20e12A1F859B3FeaE5Fb2A0A32C18F5a65555bBF */\n      0x20e12a1f859b3feae5fb2a0a32c18f5a65555bbf\n        /* \"https://github.com/provable-things/ethereum-api/blob/master/contracts/solc-v0.8.x/provableAPI.sol\":6314:6317  OAR */\n      0x01\n      0x00\n        /* \"https://github.com/provable-things/ethereum-api/blob/master/contracts/solc-v0.8.x/provableAPI.sol\":6314:6383  OAR = OracleAddrResolverI(0x20e12A1F859B3FeaE5Fb2A0A32C18F5a65555bBF) */\n      0x0100\n      exp\n      dup2\n      sload\n      dup2\n      0xffffffffffffffffffffffffffffffffffffffff\n      mul\n      not\n      and\n      swap1\n      dup4\n      0xffffffffffffffffffffffffffffffffffffffff\n      and\n      mul\n      or\n      swap1\n      sstore\n      pop\n        /* \"https://github.com/provable-things/ethereum-api/blob/master/contracts/solc-v0.8.x/provableAPI.sol\":6404:6408  true */\n      0x01\n        /* \"https://github.com/provable-things/ethereum-api/blob/master/contracts/solc-v0.8.x/provableAPI.sol\":6397:6408  return true */\n      swap1\n      pop\n      jump(tag_68)\n        /* \"https://github.com/provable-things/ethereum-api/blob/master/contracts/solc-v0.8.x/provableAPI.sol\":6218:6419  if (getCodeSize(0x20e12A1F859B3FeaE5Fb2A0A32C18F5a65555bBF) > 0) { //ether.camp ide... */\n    tag_97:\n        /* \"https://github.com/provable-things/ethereum-api/blob/master/contracts/solc-v0.8.x/provableAPI.sol\":6490:6491  0 */\n      0x00\n        /* \"https://github.com/provable-things/ethereum-api/blob/master/contracts/solc-v0.8.x/provableAPI.sol\":6432:6487  getCodeSize(0x51efaF4c8B3C9AfBD5aB9F4bbC82784Ab6ef8fAA) */\n      tag_98\n        /* \"https://github.com/provable-things/ethereum-api/blob/master/contracts/solc-v0.8.x/provableAPI.sol\":6444:6486  0x51efaF4c8B3C9AfBD5aB9F4bbC82784Ab6ef8fAA */\n      0x51efaf4c8b3c9afbd5ab9f4bbc82784ab6ef8faa\n        /* \"https://github.com/provable-things/ethereum-api/blob/master/contracts/solc-v0.8.x/provableAPI.sol\":6432:6443  getCodeSize */\n      tag_36\n        /* \"https://github.com/provable-things/ethereum-api/blob/master/contracts/solc-v0.8.x/provableAPI.sol\":6432:6487  getCodeSize(0x51efaF4c8B3C9AfBD5aB9F4bbC82784Ab6ef8fAA) */\n      jump\t// in\n    tag_98:\n        /* \"https://github.com/provable-things/ethereum-api/blob/master/contracts/solc-v0.8.x/provableAPI.sol\":6432:6491  getCodeSize(0x51efaF4c8B3C9AfBD5aB9F4bbC82784Ab6ef8fAA) > 0 */\n      gt\n        /* \"https://github.com/provable-things/ethereum-api/blob/master/contracts/solc-v0.8.x/provableAPI.sol\":6428:6631  if (getCodeSize(0x51efaF4c8B3C9AfBD5aB9F4bbC82784Ab6ef8fAA) > 0) { //browser-solidity... */\n      iszero\n      tag_99\n      jumpi\n        /* \"https://github.com/provable-things/ethereum-api/blob/master/contracts/solc-v0.8.x/provableAPI.sol\":6552:6594  0x51efaF4c8B3C9AfBD5aB9F4bbC82784Ab6ef8fAA */\n      0x51efaf4c8b3c9afbd5ab9f4bbc82784ab6ef8faa\n        /* \"https://github.com/provable-things/ethereum-api/blob/master/contracts/solc-v0.8.x/provableAPI.sol\":6526:6529  OAR */\n      0x01\n      0x00\n        /* \"https://github.com/provable-things/ethereum-api/blob/master/contracts/solc-v0.8.x/provableAPI.sol\":6526:6595  OAR = OracleAddrResolverI(0x51efaF4c8B3C9AfBD5aB9F4bbC82784Ab6ef8fAA) */\n      0x0100\n      exp\n      dup2\n      sload\n      dup2\n      0xffffffffffffffffffffffffffffffffffffffff\n      mul\n      not\n      and\n      swap1\n      dup4\n      0xffffffffffffffffffffffffffffffffffffffff\n      and\n      mul\n      or\n      swap1\n      sstore\n      pop\n        /* \"https://github.com/provable-things/ethereum-api/blob/master/contracts/solc-v0.8.x/provableAPI.sol\":6616:6620  true */\n      0x01\n        /* \"https://github.com/provable-things/ethereum-api/blob/master/contracts/solc-v0.8.x/provableAPI.sol\":6609:6620  return true */\n      swap1\n      pop\n      jump(tag_68)\n        /* \"https://github.com/provable-things/ethereum-api/blob/master/contracts/solc-v0.8.x/provableAPI.sol\":6428:6631  if (getCodeSize(0x51efaF4c8B3C9AfBD5aB9F4bbC82784Ab6ef8fAA) > 0) { //browser-solidity... */\n    tag_99:\n        /* \"https://github.com/provable-things/ethereum-api/blob/master/contracts/solc-v0.8.x/provableAPI.sol\":6647:6652  false */\n      0x00\n        /* \"https://github.com/provable-things/ethereum-api/blob/master/contracts/solc-v0.8.x/provableAPI.sol\":6640:6652  return false */\n      swap1\n      pop\n        /* \"https://github.com/provable-things/ethereum-api/blob/master/contracts/solc-v0.8.x/provableAPI.sol\":3838:6659  function provable_setNetwork() internal returns (bool _networkSet) {... */\n    tag_68:\n      swap1\n      jump\t// out\n        /* \"https://github.com/provable-things/ethereum-api/blob/master/contracts/solc-v0.8.x/provableAPI.sol\":3570:3695  function provable_setNetworkName(string memory _network_name) internal {... */\n    tag_72:\n        /* \"https://github.com/provable-things/ethereum-api/blob/master/contracts/solc-v0.8.x/provableAPI.sol\":3675:3688  _network_name */\n      dup1\n        /* \"https://github.com/provable-things/ethereum-api/blob/master/contracts/solc-v0.8.x/provableAPI.sol\":3651:3672  provable_network_name */\n      0x02\n        /* \"https://github.com/provable-things/ethereum-api/blob/master/contracts/solc-v0.8.x/provableAPI.sol\":3651:3688  provable_network_name = _network_name */\n      swap1\n      dup2\n      tag_101\n      swap2\n      swap1\n      tag_23\n      jump\t// in\n    tag_101:\n      pop\n        /* \"https://github.com/provable-things/ethereum-api/blob/master/contracts/solc-v0.8.x/provableAPI.sol\":3570:3695  function provable_setNetworkName(string memory _network_name) internal {... */\n      pop\n      jump\t// out\n        /* \"#utility.yul\":7:82   */\n    tag_102:\n        /* \"#utility.yul\":40:46   */\n      0x00\n        /* \"#utility.yul\":73:75   */\n      0x40\n        /* \"#utility.yul\":67:76   */\n      mload\n        /* \"#utility.yul\":57:76   */\n      swap1\n      pop\n        /* \"#utility.yul\":7:82   */\n      swap1\n      jump\t// out\n        /* \"#utility.yul\":88:205   */\n    tag_103:\n        /* \"#utility.yul\":197:198   */\n      0x00\n        /* \"#utility.yul\":194:195   */\n      dup1\n        /* \"#utility.yul\":187:199   */\n      revert\n        /* \"#utility.yul\":211:328   */\n    tag_104:\n        /* \"#utility.yul\":320:321   */\n      0x00\n        /* \"#utility.yul\":317:318   */\n      dup1\n        /* \"#utility.yul\":310:322   */\n      revert\n        /* \"#utility.yul\":334:411   */\n    tag_105:\n        /* \"#utility.yul\":371:378   */\n      0x00\n        /* \"#utility.yul\":400:405   */\n      dup2\n        /* \"#utility.yul\":389:405   */\n      swap1\n      pop\n        /* \"#utility.yul\":334:411   */\n      swap2\n      swap1\n      pop\n      jump\t// out\n        /* \"#utility.yul\":417:539   */\n    tag_106:\n        /* \"#utility.yul\":490:514   */\n      tag_156\n        /* \"#utility.yul\":508:513   */\n      dup2\n        /* \"#utility.yul\":490:514   */\n      tag_105\n      jump\t// in\n    tag_156:\n        /* \"#utility.yul\":483:488   */\n      dup2\n        /* \"#utility.yul\":480:515   */\n      eq\n        /* \"#utility.yul\":470:533   */\n      tag_157\n      jumpi\n        /* \"#utility.yul\":529:530   */\n      0x00\n        /* \"#utility.yul\":526:527   */\n      dup1\n        /* \"#utility.yul\":519:531   */\n      revert\n        /* \"#utility.yul\":470:533   */\n    tag_157:\n        /* \"#utility.yul\":417:539   */\n      pop\n      jump\t// out\n        /* \"#utility.yul\":545:684   */\n    tag_107:\n        /* \"#utility.yul\":591:596   */\n      0x00\n        /* \"#utility.yul\":629:635   */\n      dup2\n        /* \"#utility.yul\":616:636   */\n      calldataload\n        /* \"#utility.yul\":607:636   */\n      swap1\n      pop\n        /* \"#utility.yul\":645:678   */\n      tag_159\n        /* \"#utility.yul\":672:677   */\n      dup2\n        /* \"#utility.yul\":645:678   */\n      tag_106\n      jump\t// in\n    tag_159:\n        /* \"#utility.yul\":545:684   */\n      swap3\n      swap2\n      pop\n      pop\n      jump\t// out\n        /* \"#utility.yul\":690:807   */\n    tag_108:\n        /* \"#utility.yul\":799:800   */\n      0x00\n        /* \"#utility.yul\":796:797   */\n      dup1\n        /* \"#utility.yul\":789:801   */\n      revert\n        /* \"#utility.yul\":813:930   */\n    tag_109:\n        /* \"#utility.yul\":922:923   */\n      0x00\n        /* \"#utility.yul\":919:920   */\n      dup1\n        /* \"#utility.yul\":912:924   */\n      revert\n        /* \"#utility.yul\":936:1038   */\n    tag_110:\n        /* \"#utility.yul\":977:983   */\n      0x00\n        /* \"#utility.yul\":1028:1030   */\n      0x1f\n        /* \"#utility.yul\":1024:1031   */\n      not\n        /* \"#utility.yul\":1019:1021   */\n      0x1f\n        /* \"#utility.yul\":1012:1017   */\n      dup4\n        /* \"#utility.yul\":1008:1022   */\n      add\n        /* \"#utility.yul\":1004:1032   */\n      and\n        /* \"#utility.yul\":994:1032   */\n      swap1\n      pop\n        /* \"#utility.yul\":936:1038   */\n      swap2\n      swap1\n      pop\n      jump\t// out\n        /* \"#utility.yul\":1044:1224   */\n    tag_111:\n        /* \"#utility.yul\":1092:1169   */\n      0x4e487b7100000000000000000000000000000000000000000000000000000000\n        /* \"#utility.yul\":1089:1090   */\n      0x00\n        /* \"#utility.yul\":1082:1170   */\n      mstore\n        /* \"#utility.yul\":1189:1193   */\n      0x41\n        /* \"#utility.yul\":1186:1187   */\n      0x04\n        /* \"#utility.yul\":1179:1194   */\n      mstore\n        /* \"#utility.yul\":1213:1217   */\n      0x24\n        /* \"#utility.yul\":1210:1211   */\n      0x00\n        /* \"#utility.yul\":1203:1218   */\n      revert\n        /* \"#utility.yul\":1230:1511   */\n    tag_112:\n        /* \"#utility.yul\":1313:1340   */\n      tag_165\n        /* \"#utility.yul\":1335:1339   */\n      dup3\n        /* \"#utility.yul\":1313:1340   */\n      tag_110\n      jump\t// in\n    tag_165:\n        /* \"#utility.yul\":1305:1311   */\n      dup2\n        /* \"#utility.yul\":1301:1341   */\n      add\n        /* \"#utility.yul\":1443:1449   */\n      dup2\n        /* \"#utility.yul\":1431:1441   */\n      dup2\n        /* \"#utility.yul\":1428:1450   */\n      lt\n        /* \"#utility.yul\":1407:1425   */\n      0xffffffffffffffff\n        /* \"#utility.yul\":1395:1405   */\n      dup3\n        /* \"#utility.yul\":1392:1426   */\n      gt\n        /* \"#utility.yul\":1389:1451   */\n      or\n        /* \"#utility.yul\":1386:1474   */\n      iszero\n      tag_166\n      jumpi\n        /* \"#utility.yul\":1454:1472   */\n      tag_167\n      tag_111\n      jump\t// in\n    tag_167:\n        /* \"#utility.yul\":1386:1474   */\n    tag_166:\n        /* \"#utility.yul\":1494:1504   */\n      dup1\n        /* \"#utility.yul\":1490:1492   */\n      0x40\n        /* \"#utility.yul\":1483:1505   */\n      mstore\n        /* \"#utility.yul\":1273:1511   */\n      pop\n        /* \"#utility.yul\":1230:1511   */\n      pop\n      pop\n      jump\t// out\n        /* \"#utility.yul\":1517:1646   */\n    tag_113:\n        /* \"#utility.yul\":1551:1557   */\n      0x00\n        /* \"#utility.yul\":1578:1598   */\n      tag_169\n      tag_102\n      jump\t// in\n    tag_169:\n        /* \"#utility.yul\":1568:1598   */\n      swap1\n      pop\n        /* \"#utility.yul\":1607:1640   */\n      tag_170\n        /* \"#utility.yul\":1635:1639   */\n      dup3\n        /* \"#utility.yul\":1627:1633   */\n      dup3\n        /* \"#utility.yul\":1607:1640   */\n      tag_112\n      jump\t// in\n    tag_170:\n        /* \"#utility.yul\":1517:1646   */\n      swap2\n      swap1\n      pop\n      jump\t// out\n        /* \"#utility.yul\":1652:1960   */\n    tag_114:\n        /* \"#utility.yul\":1714:1718   */\n      0x00\n        /* \"#utility.yul\":1804:1822   */\n      0xffffffffffffffff\n        /* \"#utility.yul\":1796:1802   */\n      dup3\n        /* \"#utility.yul\":1793:1823   */\n      gt\n        /* \"#utility.yul\":1790:1846   */\n      iszero\n      tag_172\n      jumpi\n        /* \"#utility.yul\":1826:1844   */\n      tag_173\n      tag_111\n      jump\t// in\n    tag_173:\n        /* \"#utility.yul\":1790:1846   */\n    tag_172:\n        /* \"#utility.yul\":1864:1893   */\n      tag_174\n        /* \"#utility.yul\":1886:1892   */\n      dup3\n        /* \"#utility.yul\":1864:1893   */\n      tag_110\n      jump\t// in\n    tag_174:\n        /* \"#utility.yul\":1856:1893   */\n      swap1\n      pop\n        /* \"#utility.yul\":1948:1952   */\n      0x20\n        /* \"#utility.yul\":1942:1946   */\n      dup2\n        /* \"#utility.yul\":1938:1953   */\n      add\n        /* \"#utility.yul\":1930:1953   */\n      swap1\n      pop\n        /* \"#utility.yul\":1652:1960   */\n      swap2\n      swap1\n      pop\n      jump\t// out\n        /* \"#utility.yul\":1966:2114   */\n    tag_115:\n        /* \"#utility.yul\":2064:2070   */\n      dup3\n        /* \"#utility.yul\":2059:2062   */\n      dup2\n        /* \"#utility.yul\":2054:2057   */\n      dup4\n        /* \"#utility.yul\":2041:2071   */\n      calldatacopy\n        /* \"#utility.yul\":2105:2106   */\n      0x00\n        /* \"#utility.yul\":2096:2102   */\n      dup4\n        /* \"#utility.yul\":2091:2094   */\n      dup4\n        /* \"#utility.yul\":2087:2103   */\n      add\n        /* \"#utility.yul\":2080:2107   */\n      mstore\n        /* \"#utility.yul\":1966:2114   */\n      pop\n      pop\n      pop\n      jump\t// out\n        /* \"#utility.yul\":2120:2545   */\n    tag_116:\n        /* \"#utility.yul\":2198:2203   */\n      0x00\n        /* \"#utility.yul\":2223:2289   */\n      tag_177\n        /* \"#utility.yul\":2239:2288   */\n      tag_178\n        /* \"#utility.yul\":2281:2287   */\n      dup5\n        /* \"#utility.yul\":2239:2288   */\n      tag_114\n      jump\t// in\n    tag_178:\n        /* \"#utility.yul\":2223:2289   */\n      tag_113\n      jump\t// in\n    tag_177:\n        /* \"#utility.yul\":2214:2289   */\n      swap1\n      pop\n        /* \"#utility.yul\":2312:2318   */\n      dup3\n        /* \"#utility.yul\":2305:2310   */\n      dup2\n        /* \"#utility.yul\":2298:2319   */\n      mstore\n        /* \"#utility.yul\":2350:2354   */\n      0x20\n        /* \"#utility.yul\":2343:2348   */\n      dup2\n        /* \"#utility.yul\":2339:2355   */\n      add\n        /* \"#utility.yul\":2388:2391   */\n      dup5\n        /* \"#utility.yul\":2379:2385   */\n      dup5\n        /* \"#utility.yul\":2374:2377   */\n      dup5\n        /* \"#utility.yul\":2370:2386   */\n      add\n        /* \"#utility.yul\":2367:2392   */\n      gt\n        /* \"#utility.yul\":2364:2476   */\n      iszero\n      tag_179\n      jumpi\n        /* \"#utility.yul\":2395:2474   */\n      tag_180\n      tag_109\n      jump\t// in\n    tag_180:\n        /* \"#utility.yul\":2364:2476   */\n    tag_179:\n        /* \"#utility.yul\":2485:2539   */\n      tag_181\n        /* \"#utility.yul\":2532:2538   */\n      dup5\n        /* \"#utility.yul\":2527:2530   */\n      dup3\n        /* \"#utility.yul\":2522:2525   */\n      dup6\n        /* \"#utility.yul\":2485:2539   */\n      tag_115\n      jump\t// in\n    tag_181:\n        /* \"#utility.yul\":2204:2545   */\n      pop\n        /* \"#utility.yul\":2120:2545   */\n      swap4\n      swap3\n      pop\n      pop\n      pop\n      jump\t// out\n        /* \"#utility.yul\":2565:2905   */\n    tag_117:\n        /* \"#utility.yul\":2621:2626   */\n      0x00\n        /* \"#utility.yul\":2670:2673   */\n      dup3\n        /* \"#utility.yul\":2663:2667   */\n      0x1f\n        /* \"#utility.yul\":2655:2661   */\n      dup4\n        /* \"#utility.yul\":2651:2668   */\n      add\n        /* \"#utility.yul\":2647:2674   */\n      slt\n        /* \"#utility.yul\":2637:2759   */\n      tag_183\n      jumpi\n        /* \"#utility.yul\":2678:2757   */\n      tag_184\n      tag_108\n      jump\t// in\n    tag_184:\n        /* \"#utility.yul\":2637:2759   */\n    tag_183:\n        /* \"#utility.yul\":2795:2801   */\n      dup2\n        /* \"#utility.yul\":2782:2802   */\n      calldataload\n        /* \"#utility.yul\":2820:2899   */\n      tag_185\n        /* \"#utility.yul\":2895:2898   */\n      dup5\n        /* \"#utility.yul\":2887:2893   */\n      dup3\n        /* \"#utility.yul\":2880:2884   */\n      0x20\n        /* \"#utility.yul\":2872:2878   */\n      dup7\n        /* \"#utility.yul\":2868:2885   */\n      add\n        /* \"#utility.yul\":2820:2899   */\n      tag_116\n      jump\t// in\n    tag_185:\n        /* \"#utility.yul\":2811:2899   */\n      swap2\n      pop\n        /* \"#utility.yul\":2627:2905   */\n      pop\n        /* \"#utility.yul\":2565:2905   */\n      swap3\n      swap2\n      pop\n      pop\n      jump\t// out\n        /* \"#utility.yul\":2911:3565   */\n    tag_8:\n        /* \"#utility.yul\":2989:2995   */\n      0x00\n        /* \"#utility.yul\":2997:3003   */\n      dup1\n        /* \"#utility.yul\":3046:3048   */\n      0x40\n        /* \"#utility.yul\":3034:3043   */\n      dup4\n        /* \"#utility.yul\":3025:3032   */\n      dup6\n        /* \"#utility.yul\":3021:3044   */\n      sub\n        /* \"#utility.yul\":3017:3049   */\n      slt\n        /* \"#utility.yul\":3014:3133   */\n      iszero\n      tag_187\n      jumpi\n        /* \"#utility.yul\":3052:3131   */\n      tag_188\n      tag_103\n      jump\t// in\n    tag_188:\n        /* \"#utility.yul\":3014:3133   */\n    tag_187:\n        /* \"#utility.yul\":3172:3173   */\n      0x00\n        /* \"#utility.yul\":3197:3250   */\n      tag_189\n        /* \"#utility.yul\":3242:3249   */\n      dup6\n        /* \"#utility.yul\":3233:3239   */\n      dup3\n        /* \"#utility.yul\":3222:3231   */\n      dup7\n        /* \"#utility.yul\":3218:3240   */\n      add\n        /* \"#utility.yul\":3197:3250   */\n      tag_107\n      jump\t// in\n    tag_189:\n        /* \"#utility.yul\":3187:3250   */\n      swap3\n      pop\n        /* \"#utility.yul\":3143:3260   */\n      pop\n        /* \"#utility.yul\":3327:3329   */\n      0x20\n        /* \"#utility.yul\":3316:3325   */\n      dup4\n        /* \"#utility.yul\":3312:3330   */\n      add\n        /* \"#utility.yul\":3299:3331   */\n      calldataload\n        /* \"#utility.yul\":3358:3376   */\n      0xffffffffffffffff\n        /* \"#utility.yul\":3350:3356   */\n      dup2\n        /* \"#utility.yul\":3347:3377   */\n      gt\n        /* \"#utility.yul\":3344:3461   */\n      iszero\n      tag_190\n      jumpi\n        /* \"#utility.yul\":3380:3459   */\n      tag_191\n      tag_104\n      jump\t// in\n    tag_191:\n        /* \"#utility.yul\":3344:3461   */\n    tag_190:\n        /* \"#utility.yul\":3485:3548   */\n      tag_192\n        /* \"#utility.yul\":3540:3547   */\n      dup6\n        /* \"#utility.yul\":3531:3537   */\n      dup3\n        /* \"#utility.yul\":3520:3529   */\n      dup7\n        /* \"#utility.yul\":3516:3538   */\n      add\n        /* \"#utility.yul\":3485:3548   */\n      tag_117\n      jump\t// in\n    tag_192:\n        /* \"#utility.yul\":3475:3548   */\n      swap2\n      pop\n        /* \"#utility.yul\":3270:3558   */\n      pop\n        /* \"#utility.yul\":2911:3565   */\n      swap3\n      pop\n      swap3\n      swap1\n      pop\n      jump\t// out\n        /* \"#utility.yul\":3571:3670   */\n    tag_118:\n        /* \"#utility.yul\":3623:3629   */\n      0x00\n        /* \"#utility.yul\":3657:3662   */\n      dup2\n        /* \"#utility.yul\":3651:3663   */\n      mload\n        /* \"#utility.yul\":3641:3663   */\n      swap1\n      pop\n        /* \"#utility.yul\":3571:3670   */\n      swap2\n      swap1\n      pop\n      jump\t// out\n        /* \"#utility.yul\":3676:3845   */\n    tag_119:\n        /* \"#utility.yul\":3760:3771   */\n      0x00\n        /* \"#utility.yul\":3794:3800   */\n      dup3\n        /* \"#utility.yul\":3789:3792   */\n      dup3\n        /* \"#utility.yul\":3782:3801   */\n      mstore\n        /* \"#utility.yul\":3834:3838   */\n      0x20\n        /* \"#utility.yul\":3829:3832   */\n      dup3\n        /* \"#utility.yul\":3825:3839   */\n      add\n        /* \"#utility.yul\":3810:3839   */\n      swap1\n      pop\n        /* \"#utility.yul\":3676:3845   */\n      swap3\n      swap2\n      pop\n      pop\n      jump\t// out\n        /* \"#utility.yul\":3851:3990   */\n    tag_120:\n        /* \"#utility.yul\":3940:3946   */\n      dup3\n        /* \"#utility.yul\":3935:3938   */\n      dup2\n        /* \"#utility.yul\":3930:3933   */\n      dup4\n        /* \"#utility.yul\":3924:3947   */\n      mcopy\n        /* \"#utility.yul\":3981:3982   */\n      0x00\n        /* \"#utility.yul\":3972:3978   */\n      dup4\n        /* \"#utility.yul\":3967:3970   */\n      dup4\n        /* \"#utility.yul\":3963:3979   */\n      add\n        /* \"#utility.yul\":3956:3983   */\n      mstore\n        /* \"#utility.yul\":3851:3990   */\n      pop\n      pop\n      pop\n      jump\t// out\n        /* \"#utility.yul\":3996:4373   */\n    tag_121:\n        /* \"#utility.yul\":4084:4087   */\n      0x00\n        /* \"#utility.yul\":4112:4151   */\n      tag_197\n        /* \"#utility.yul\":4145:4150   */\n      dup3\n        /* \"#utility.yul\":4112:4151   */\n      tag_118\n      jump\t// in\n    tag_197:\n        /* \"#utility.yul\":4167:4238   */\n      tag_198\n        /* \"#utility.yul\":4231:4237   */\n      dup2\n        /* \"#utility.yul\":4226:4229   */\n      dup6\n        /* \"#utility.yul\":4167:4238   */\n      tag_119\n      jump\t// in\n    tag_198:\n        /* \"#utility.yul\":4160:4238   */\n      swap4\n      pop\n        /* \"#utility.yul\":4247:4312   */\n      tag_199\n        /* \"#utility.yul\":4305:4311   */\n      dup2\n        /* \"#utility.yul\":4300:4303   */\n      dup6\n        /* \"#utility.yul\":4293:4297   */\n      0x20\n        /* \"#utility.yul\":4286:4291   */\n      dup7\n        /* \"#utility.yul\":4282:4298   */\n      add\n        /* \"#utility.yul\":4247:4312   */\n      tag_120\n      jump\t// in\n    tag_199:\n        /* \"#utility.yul\":4337:4366   */\n      tag_200\n        /* \"#utility.yul\":4359:4365   */\n      dup2\n        /* \"#utility.yul\":4337:4366   */\n      tag_110\n      jump\t// in\n    tag_200:\n        /* \"#utility.yul\":4332:4335   */\n      dup5\n        /* \"#utility.yul\":4328:4367   */\n      add\n        /* \"#utility.yul\":4321:4367   */\n      swap2\n      pop\n        /* \"#utility.yul\":4088:4373   */\n      pop\n        /* \"#utility.yul\":3996:4373   */\n      swap3\n      swap2\n      pop\n      pop\n      jump\t// out\n        /* \"#utility.yul\":4379:4692   */\n    tag_13:\n        /* \"#utility.yul\":4492:4496   */\n      0x00\n        /* \"#utility.yul\":4530:4532   */\n      0x20\n        /* \"#utility.yul\":4519:4528   */\n      dup3\n        /* \"#utility.yul\":4515:4533   */\n      add\n        /* \"#utility.yul\":4507:4533   */\n      swap1\n      pop\n        /* \"#utility.yul\":4579:4588   */\n      dup2\n        /* \"#utility.yul\":4573:4577   */\n      dup2\n        /* \"#utility.yul\":4569:4589   */\n      sub\n        /* \"#utility.yul\":4565:4566   */\n      0x00\n        /* \"#utility.yul\":4554:4563   */\n      dup4\n        /* \"#utility.yul\":4550:4567   */\n      add\n        /* \"#utility.yul\":4543:4590   */\n      mstore\n        /* \"#utility.yul\":4607:4685   */\n      tag_202\n        /* \"#utility.yul\":4680:4684   */\n      dup2\n        /* \"#utility.yul\":4671:4677   */\n      dup5\n        /* \"#utility.yul\":4607:4685   */\n      tag_121\n      jump\t// in\n    tag_202:\n        /* \"#utility.yul\":4599:4685   */\n      swap1\n      pop\n        /* \"#utility.yul\":4379:4692   */\n      swap3\n      swap2\n      pop\n      pop\n      jump\t// out\n        /* \"#utility.yul\":4698:4824   */\n    tag_122:\n        /* \"#utility.yul\":4735:4742   */\n      0x00\n        /* \"#utility.yul\":4775:4817   */\n      0xffffffffffffffffffffffffffffffffffffffff\n        /* \"#utility.yul\":4768:4773   */\n      dup3\n        /* \"#utility.yul\":4764:4818   */\n      and\n        /* \"#utility.yul\":4753:4818   */\n      swap1\n      pop\n        /* \"#utility.yul\":4698:4824   */\n      swap2\n      swap1\n      pop\n      jump\t// out\n        /* \"#utility.yul\":4830:4926   */\n    tag_123:\n        /* \"#utility.yul\":4867:4874   */\n      0x00\n        /* \"#utility.yul\":4896:4920   */\n      tag_205\n        /* \"#utility.yul\":4914:4919   */\n      dup3\n        /* \"#utility.yul\":4896:4920   */\n      tag_122\n      jump\t// in\n    tag_205:\n        /* \"#utility.yul\":4885:4920   */\n      swap1\n      pop\n        /* \"#utility.yul\":4830:4926   */\n      swap2\n      swap1\n      pop\n      jump\t// out\n        /* \"#utility.yul\":4932:5054   */\n    tag_124:\n        /* \"#utility.yul\":5005:5029   */\n      tag_207\n        /* \"#utility.yul\":5023:5028   */\n      dup2\n        /* \"#utility.yul\":5005:5029   */\n      tag_123\n      jump\t// in\n    tag_207:\n        /* \"#utility.yul\":4998:5003   */\n      dup2\n        /* \"#utility.yul\":4995:5030   */\n      eq\n        /* \"#utility.yul\":4985:5048   */\n      tag_208\n      jumpi\n        /* \"#utility.yul\":5044:5045   */\n      0x00\n        /* \"#utility.yul\":5041:5042   */\n      dup1\n        /* \"#utility.yul\":5034:5046   */\n      revert\n        /* \"#utility.yul\":4985:5048   */\n    tag_208:\n        /* \"#utility.yul\":4932:5054   */\n      pop\n      jump\t// out\n        /* \"#utility.yul\":5060:5203   */\n    tag_125:\n        /* \"#utility.yul\":5117:5122   */\n      0x00\n        /* \"#utility.yul\":5148:5154   */\n      dup2\n        /* \"#utility.yul\":5142:5155   */\n      mload\n        /* \"#utility.yul\":5133:5155   */\n      swap1\n      pop\n        /* \"#utility.yul\":5164:5197   */\n      tag_210\n        /* \"#utility.yul\":5191:5196   */\n      dup2\n        /* \"#utility.yul\":5164:5197   */\n      tag_124\n      jump\t// in\n    tag_210:\n        /* \"#utility.yul\":5060:5203   */\n      swap3\n      swap2\n      pop\n      pop\n      jump\t// out\n        /* \"#utility.yul\":5209:5560   */\n    tag_20:\n        /* \"#utility.yul\":5279:5285   */\n      0x00\n        /* \"#utility.yul\":5328:5330   */\n      0x20\n        /* \"#utility.yul\":5316:5325   */\n      dup3\n        /* \"#utility.yul\":5307:5314   */\n      dup5\n        /* \"#utility.yul\":5303:5326   */\n      sub\n        /* \"#utility.yul\":5299:5331   */\n      slt\n        /* \"#utility.yul\":5296:5415   */\n      iszero\n      tag_212\n      jumpi\n        /* \"#utility.yul\":5334:5413   */\n      tag_213\n      tag_103\n      jump\t// in\n    tag_213:\n        /* \"#utility.yul\":5296:5415   */\n    tag_212:\n        /* \"#utility.yul\":5454:5455   */\n      0x00\n        /* \"#utility.yul\":5479:5543   */\n      tag_214\n        /* \"#utility.yul\":5535:5542   */\n      dup5\n        /* \"#utility.yul\":5526:5532   */\n      dup3\n        /* \"#utility.yul\":5515:5524   */\n      dup6\n        /* \"#utility.yul\":5511:5533   */\n      add\n        /* \"#utility.yul\":5479:5543   */\n      tag_125\n      jump\t// in\n    tag_214:\n        /* \"#utility.yul\":5469:5543   */\n      swap2\n      pop\n        /* \"#utility.yul\":5425:5553   */\n      pop\n        /* \"#utility.yul\":5209:5560   */\n      swap3\n      swap2\n      pop\n      pop\n      jump\t// out\n        /* \"#utility.yul\":5566:5746   */\n    tag_126:\n        /* \"#utility.yul\":5614:5691   */\n      0x4e487b7100000000000000000000000000000000000000000000000000000000\n        /* \"#utility.yul\":5611:5612   */\n      0x00\n        /* \"#utility.yul\":5604:5692   */\n      mstore\n        /* \"#utility.yul\":5711:5715   */\n      0x22\n        /* \"#utility.yul\":5708:5709   */\n      0x04\n        /* \"#utility.yul\":5701:5716   */\n      mstore\n        /* \"#utility.yul\":5735:5739   */\n      0x24\n        /* \"#utility.yul\":5732:5733   */\n      0x00\n        /* \"#utility.yul\":5725:5740   */\n      revert\n        /* \"#utility.yul\":5752:6072   */\n    tag_25:\n        /* \"#utility.yul\":5796:5802   */\n      0x00\n        /* \"#utility.yul\":5833:5834   */\n      0x02\n        /* \"#utility.yul\":5827:5831   */\n      dup3\n        /* \"#utility.yul\":5823:5835   */\n      div\n        /* \"#utility.yul\":5813:5835   */\n      swap1\n      pop\n        /* \"#utility.yul\":5880:5881   */\n      0x01\n        /* \"#utility.yul\":5874:5878   */\n      dup3\n        /* \"#utility.yul\":5870:5882   */\n      and\n        /* \"#utility.yul\":5901:5919   */\n      dup1\n        /* \"#utility.yul\":5891:5972   */\n      tag_217\n      jumpi\n        /* \"#utility.yul\":5957:5961   */\n      0x7f\n        /* \"#utility.yul\":5949:5955   */\n      dup3\n        /* \"#utility.yul\":5945:5962   */\n      and\n        /* \"#utility.yul\":5935:5962   */\n      swap2\n      pop\n        /* \"#utility.yul\":5891:5972   */\n    tag_217:\n        /* \"#utility.yul\":6019:6021   */\n      0x20\n        /* \"#utility.yul\":6011:6017   */\n      dup3\n        /* \"#utility.yul\":6008:6022   */\n      lt\n        /* \"#utility.yul\":5988:6006   */\n      dup2\n        /* \"#utility.yul\":5985:6023   */\n      sub\n        /* \"#utility.yul\":5982:6066   */\n      tag_218\n      jumpi\n        /* \"#utility.yul\":6038:6056   */\n      tag_219\n      tag_126\n      jump\t// in\n    tag_219:\n        /* \"#utility.yul\":5982:6066   */\n    tag_218:\n        /* \"#utility.yul\":5803:6072   */\n      pop\n        /* \"#utility.yul\":5752:6072   */\n      swap2\n      swap1\n      pop\n      jump\t// out\n        /* \"#utility.yul\":6078:6219   */\n    tag_127:\n        /* \"#utility.yul\":6127:6131   */\n      0x00\n        /* \"#utility.yul\":6150:6153   */\n      dup2\n        /* \"#utility.yul\":6142:6153   */\n      swap1\n      pop\n        /* \"#utility.yul\":6173:6176   */\n      dup2\n        /* \"#utility.yul\":6170:6171   */\n      0x00\n        /* \"#utility.yul\":6163:6177   */\n      mstore\n        /* \"#utility.yul\":6207:6211   */\n      0x20\n        /* \"#utility.yul\":6204:6205   */\n      0x00\n        /* \"#utility.yul\":6194:6212   */\n      keccak256\n        /* \"#utility.yul\":6186:6212   */\n      swap1\n      pop\n        /* \"#utility.yul\":6078:6219   */\n      swap2\n      swap1\n      pop\n      jump\t// out\n        /* \"#utility.yul\":6225:6318   */\n    tag_128:\n        /* \"#utility.yul\":6262:6268   */\n      0x00\n        /* \"#utility.yul\":6309:6311   */\n      0x20\n        /* \"#utility.yul\":6304:6306   */\n      0x1f\n        /* \"#utility.yul\":6297:6302   */\n      dup4\n        /* \"#utility.yul\":6293:6307   */\n      add\n        /* \"#utility.yul\":6289:6312   */\n      div\n        /* \"#utility.yul\":6279:6312   */\n      swap1\n      pop\n        /* \"#utility.yul\":6225:6318   */\n      swap2\n      swap1\n      pop\n      jump\t// out\n        /* \"#utility.yul\":6324:6431   */\n    tag_129:\n        /* \"#utility.yul\":6368:6376   */\n      0x00\n        /* \"#utility.yul\":6418:6423   */\n      dup3\n        /* \"#utility.yul\":6412:6416   */\n      dup3\n        /* \"#utility.yul\":6408:6424   */\n      shl\n        /* \"#utility.yul\":6387:6424   */\n      swap1\n      pop\n        /* \"#utility.yul\":6324:6431   */\n      swap3\n      swap2\n      pop\n      pop\n      jump\t// out\n        /* \"#utility.yul\":6437:6830   */\n    tag_130:\n        /* \"#utility.yul\":6506:6512   */\n      0x00\n        /* \"#utility.yul\":6556:6557   */\n      0x08\n        /* \"#utility.yul\":6544:6554   */\n      dup4\n        /* \"#utility.yul\":6540:6558   */\n      mul\n        /* \"#utility.yul\":6579:6676   */\n      tag_224\n        /* \"#utility.yul\":6609:6675   */\n      0xffffffffffffffffffffffffffffffffffffffffffffffffffffffffffffffff\n        /* \"#utility.yul\":6598:6607   */\n      dup3\n        /* \"#utility.yul\":6579:6676   */\n      tag_129\n      jump\t// in\n    tag_224:\n        /* \"#utility.yul\":6697:6736   */\n      tag_225\n        /* \"#utility.yul\":6727:6735   */\n      dup7\n        /* \"#utility.yul\":6716:6725   */\n      dup4\n        /* \"#utility.yul\":6697:6736   */\n      tag_129\n      jump\t// in\n    tag_225:\n        /* \"#utility.yul\":6685:6736   */\n      swap6\n      pop\n        /* \"#utility.yul\":6769:6773   */\n      dup1\n        /* \"#utility.yul\":6765:6774   */\n      not\n        /* \"#utility.yul\":6758:6763   */\n      dup5\n        /* \"#utility.yul\":6754:6775   */\n      and\n        /* \"#utility.yul\":6745:6775   */\n      swap4\n      pop\n        /* \"#utility.yul\":6818:6822   */\n      dup1\n        /* \"#utility.yul\":6808:6816   */\n      dup7\n        /* \"#utility.yul\":6804:6823   */\n      and\n        /* \"#utility.yul\":6797:6802   */\n      dup5\n        /* \"#utility.yul\":6794:6824   */\n      or\n        /* \"#utility.yul\":6784:6824   */\n      swap3\n      pop\n        /* \"#utility.yul\":6513:6830   */\n      pop\n      pop\n        /* \"#utility.yul\":6437:6830   */\n      swap4\n      swap3\n      pop\n      pop\n      pop\n      jump\t// out\n        /* \"#utility.yul\":6836:6913   */\n    tag_131:\n        /* \"#utility.yul\":6873:6880   */\n      0x00\n        /* \"#utility.yul\":6902:6907   */\n      dup2\n        /* \"#utility.yul\":6891:6907   */\n      swap1\n      pop\n        /* \"#utility.yul\":6836:6913   */\n      swap2\n      swap1\n      pop\n      jump\t// out\n        /* \"#utility.yul\":6919:6979   */\n    tag_132:\n        /* \"#utility.yul\":6947:6950   */\n      0x00\n        /* \"#utility.yul\":6968:6973   */\n      dup2\n        /* \"#utility.yul\":6961:6973   */\n      swap1\n      pop\n        /* \"#utility.yul\":6919:6979   */\n      swap2\n      swap1\n      pop\n      jump\t// out\n        /* \"#utility.yul\":6985:7127   */\n    tag_133:\n        /* \"#utility.yul\":7035:7044   */\n      0x00\n        /* \"#utility.yul\":7068:7121   */\n      tag_229\n        /* \"#utility.yul\":7086:7120   */\n      tag_230\n        /* \"#utility.yul\":7095:7119   */\n      tag_231\n        /* \"#utility.yul\":7113:7118   */\n      dup5\n        /* \"#utility.yul\":7095:7119   */\n      tag_131\n      jump\t// in\n    tag_231:\n        /* \"#utility.yul\":7086:7120   */\n      tag_132\n      jump\t// in\n    tag_230:\n        /* \"#utility.yul\":7068:7121   */\n      tag_131\n      jump\t// in\n    tag_229:\n        /* \"#utility.yul\":7055:7121   */\n      swap1\n      pop\n        /* \"#utility.yul\":6985:7127   */\n      swap2\n      swap1\n      pop\n      jump\t// out\n        /* \"#utility.yul\":7133:7208   */\n    tag_134:\n        /* \"#utility.yul\":7176:7179   */\n      0x00\n        /* \"#utility.yul\":7197:7202   */\n      dup2\n        /* \"#utility.yul\":7190:7202   */\n      swap1\n      pop\n        /* \"#utility.yul\":7133:7208   */\n      swap2\n      swap1\n      pop\n      jump\t// out\n        /* \"#utility.yul\":7214:7483   */\n    tag_135:\n        /* \"#utility.yul\":7324:7363   */\n      tag_234\n        /* \"#utility.yul\":7355:7362   */\n      dup4\n        /* \"#utility.yul\":7324:7363   */\n      tag_133\n      jump\t// in\n    tag_234:\n        /* \"#utility.yul\":7385:7476   */\n      tag_235\n        /* \"#utility.yul\":7434:7475   */\n      tag_236\n        /* \"#utility.yul\":7458:7474   */\n      dup3\n        /* \"#utility.yul\":7434:7475   */\n      tag_134\n      jump\t// in\n    tag_236:\n        /* \"#utility.yul\":7426:7432   */\n      dup5\n        /* \"#utility.yul\":7419:7423   */\n      dup5\n        /* \"#utility.yul\":7413:7424   */\n      sload\n        /* \"#utility.yul\":7385:7476   */\n      tag_130\n      jump\t// in\n    tag_235:\n        /* \"#utility.yul\":7379:7383   */\n      dup3\n        /* \"#utility.yul\":7372:7477   */\n      sstore\n        /* \"#utility.yul\":7290:7483   */\n      pop\n        /* \"#utility.yul\":7214:7483   */\n      pop\n      pop\n      pop\n      jump\t// out\n        /* \"#utility.yul\":7489:7562   */\n    tag_136:\n        /* \"#utility.yul\":7534:7537   */\n      0x00\n        /* \"#utility.yul\":7489:7562   */\n      swap1\n      jump\t// out\n        /* \"#utility.yul\":7568:7757   */\n    tag_137:\n        /* \"#utility.yul\":7645:7677   */\n      tag_239\n      tag_136\n      jump\t// in\n    tag_239:\n        /* \"#utility.yul\":7686:7751   */\n      tag_240\n        /* \"#utility.yul\":7744:7750   */\n      dup2\n        /* \"#utility.yul\":7736:7742   */\n      dup5\n        /* \"#utility.yul\":7730:7734   */\n      dup5\n        /* \"#utility.yul\":7686:7751   */\n      tag_135\n      jump\t// in\n    tag_240:\n        /* \"#utility.yul\":7621:7757   */\n      pop\n        /* \"#utility.yul\":7568:7757   */\n      pop\n      pop\n      jump\t// out\n        /* \"#utility.yul\":7763:7949   */\n    tag_138:\n        /* \"#utility.yul\":7823:7943   */\n    tag_242:\n        /* \"#utility.yul\":7840:7843   */\n      dup2\n        /* \"#utility.yul\":7833:7838   */\n      dup2\n        /* \"#utility.yul\":7830:7844   */\n      lt\n        /* \"#utility.yul\":7823:7943   */\n      iszero\n      tag_244\n      jumpi\n        /* \"#utility.yul\":7894:7933   */\n      tag_245\n        /* \"#utility.yul\":7931:7932   */\n      0x00\n        /* \"#utility.yul\":7924:7929   */\n      dup3\n        /* \"#utility.yul\":7894:7933   */\n      tag_137\n      jump\t// in\n    tag_245:\n        /* \"#utility.yul\":7867:7868   */\n      0x01\n        /* \"#utility.yul\":7860:7865   */\n      dup2\n        /* \"#utility.yul\":7856:7869   */\n      add\n        /* \"#utility.yul\":7847:7869   */\n      swap1\n      pop\n        /* \"#utility.yul\":7823:7943   */\n      jump(tag_242)\n    tag_244:\n        /* \"#utility.yul\":7763:7949   */\n      pop\n      pop\n      jump\t// out\n        /* \"#utility.yul\":7955:8498   */\n    tag_139:\n        /* \"#utility.yul\":8056:8058   */\n      0x1f\n        /* \"#utility.yul\":8051:8054   */\n      dup3\n        /* \"#utility.yul\":8048:8059   */\n      gt\n        /* \"#utility.yul\":8045:8491   */\n      iszero\n      tag_247\n      jumpi\n        /* \"#utility.yul\":8090:8128   */\n      tag_248\n        /* \"#utility.yul\":8122:8127   */\n      dup2\n        /* \"#utility.yul\":8090:8128   */\n      tag_127\n      jump\t// in\n    tag_248:\n        /* \"#utility.yul\":8174:8203   */\n      tag_249\n        /* \"#utility.yul\":8192:8202   */\n      dup5\n        /* \"#utility.yul\":8174:8203   */\n      tag_128\n      jump\t// in\n    tag_249:\n        /* \"#utility.yul\":8164:8172   */\n      dup2\n        /* \"#utility.yul\":8160:8204   */\n      add\n        /* \"#utility.yul\":8357:8359   */\n      0x20\n        /* \"#utility.yul\":8345:8355   */\n      dup6\n        /* \"#utility.yul\":8342:8360   */\n      lt\n        /* \"#utility.yul\":8339:8388   */\n      iszero\n      tag_250\n      jumpi\n        /* \"#utility.yul\":8378:8386   */\n      dup2\n        /* \"#utility.yul\":8363:8386   */\n      swap1\n      pop\n        /* \"#utility.yul\":8339:8388   */\n    tag_250:\n        /* \"#utility.yul\":8401:8481   */\n      tag_251\n        /* \"#utility.yul\":8457:8479   */\n      tag_252\n        /* \"#utility.yul\":8475:8478   */\n      dup6\n        /* \"#utility.yul\":8457:8479   */\n      tag_128\n      jump\t// in\n    tag_252:\n        /* \"#utility.yul\":8447:8455   */\n      dup4\n        /* \"#utility.yul\":8443:8480   */\n      add\n        /* \"#utility.yul\":8430:8441   */\n      dup3\n        /* \"#utility.yul\":8401:8481   */\n      tag_138\n      jump\t// in\n    tag_251:\n        /* \"#utility.yul\":8060:8491   */\n      pop\n      pop\n        /* \"#utility.yul\":8045:8491   */\n    tag_247:\n        /* \"#utility.yul\":7955:8498   */\n      pop\n      pop\n      pop\n      jump\t// out\n        /* \"#utility.yul\":8504:8621   */\n    tag_140:\n        /* \"#utility.yul\":8558:8566   */\n      0x00\n        /* \"#utility.yul\":8608:8613   */\n      dup3\n        /* \"#utility.yul\":8602:8606   */\n      dup3\n        /* \"#utility.yul\":8598:8614   */\n      shr\n        /* \"#utility.yul\":8577:8614   */\n      swap1\n      pop\n        /* \"#utility.yul\":8504:8621   */\n      swap3\n      swap2\n      pop\n      pop\n      jump\t// out\n        /* \"#utility.yul\":8627:8796   */\n    tag_141:\n        /* \"#utility.yul\":8671:8677   */\n      0x00\n        /* \"#utility.yul\":8704:8755   */\n      tag_255\n        /* \"#utility.yul\":8752:8753   */\n      0x00\n        /* \"#utility.yul\":8748:8754   */\n      not\n        /* \"#utility.yul\":8740:8745   */\n      dup5\n        /* \"#utility.yul\":8737:8738   */\n      0x08\n        /* \"#utility.yul\":8733:8746   */\n      mul\n        /* \"#utility.yul\":8704:8755   */\n      tag_140\n      jump\t// in\n    tag_255:\n        /* \"#utility.yul\":8700:8756   */\n      not\n        /* \"#utility.yul\":8785:8789   */\n      dup1\n        /* \"#utility.yul\":8779:8783   */\n      dup4\n        /* \"#utility.yul\":8775:8790   */\n      and\n        /* \"#utility.yul\":8765:8790   */\n      swap2\n      pop\n        /* \"#utility.yul\":8678:8796   */\n      pop\n        /* \"#utility.yul\":8627:8796   */\n      swap3\n      swap2\n      pop\n      pop\n      jump\t// out\n        /* \"#utility.yul\":8801:9096   */\n    tag_142:\n        /* \"#utility.yul\":8877:8881   */\n      0x00\n        /* \"#utility.yul\":9023:9052   */\n      tag_257\n        /* \"#utility.yul\":9048:9051   */\n      dup4\n        /* \"#utility.yul\":9042:9046   */\n      dup4\n        /* \"#utility.yul\":9023:9052   */\n      tag_141\n      jump\t// in\n    tag_257:\n        /* \"#utility.yul\":9015:9052   */\n      swap2\n      pop\n        /* \"#utility.yul\":9085:9088   */\n      dup3\n        /* \"#utility.yul\":9082:9083   */\n      0x02\n        /* \"#utility.yul\":9078:9089   */\n      mul\n        /* \"#utility.yul\":9072:9076   */\n      dup3\n        /* \"#utility.yul\":9069:9090   */\n      or\n        /* \"#utility.yul\":9061:9090   */\n      swap1\n      pop\n        /* \"#utility.yul\":8801:9096   */\n      swap3\n      swap2\n      pop\n      pop\n      jump\t// out\n        /* \"#utility.yul\":9101:10496   */\n    tag_23:\n        /* \"#utility.yul\":9218:9255   */\n      tag_259\n        /* \"#utility.yul\":9251:9254   */\n      dup3\n        /* \"#utility.yul\":9218:9255   */\n      tag_118\n      jump\t// in\n    tag_259:\n        /* \"#utility.yul\":9320:9338   */\n      0xffffffffffffffff\n        /* \"#utility.yul\":9312:9318   */\n      dup2\n        /* \"#utility.yul\":9309:9339   */\n      gt\n        /* \"#utility.yul\":9306:9362   */\n      iszero\n      tag_260\n      jumpi\n        /* \"#utility.yul\":9342:9360   */\n      tag_261\n      tag_111\n      jump\t// in\n    tag_261:\n        /* \"#utility.yul\":9306:9362   */\n    tag_260:\n        /* \"#utility.yul\":9386:9424   */\n      tag_262\n        /* \"#utility.yul\":9418:9422   */\n      dup3\n        /* \"#utility.yul\":9412:9423   */\n      sload\n        /* \"#utility.yul\":9386:9424   */\n      tag_25\n      jump\t// in\n    tag_262:\n        /* \"#utility.yul\":9471:9538   */\n      tag_263\n        /* \"#utility.yul\":9531:9537   */\n      dup3\n        /* \"#utility.yul\":9523:9529   */\n      dup3\n        /* \"#utility.yul\":9517:9521   */\n      dup6\n        /* \"#utility.yul\":9471:9538   */\n      tag_139\n      jump\t// in\n    tag_263:\n        /* \"#utility.yul\":9565:9566   */\n      0x00\n        /* \"#utility.yul\":9589:9593   */\n      0x20\n        /* \"#utility.yul\":9576:9593   */\n      swap1\n      pop\n        /* \"#utility.yul\":9621:9623   */\n      0x1f\n        /* \"#utility.yul\":9613:9619   */\n      dup4\n        /* \"#utility.yul\":9610:9624   */\n      gt\n        /* \"#utility.yul\":9638:9639   */\n      0x01\n        /* \"#utility.yul\":9633:10251   */\n      dup2\n      eq\n      tag_265\n      jumpi\n        /* \"#utility.yul\":10295:10296   */\n      0x00\n        /* \"#utility.yul\":10312:10318   */\n      dup5\n        /* \"#utility.yul\":10309:10386   */\n      iszero\n      tag_266\n      jumpi\n        /* \"#utility.yul\":10361:10370   */\n      dup3\n        /* \"#utility.yul\":10356:10359   */\n      dup8\n        /* \"#utility.yul\":10352:10371   */\n      add\n        /* \"#utility.yul\":10346:10372   */\n      mload\n        /* \"#utility.yul\":10337:10372   */\n      swap1\n      pop\n        /* \"#utility.yul\":10309:10386   */\n    tag_266:\n        /* \"#utility.yul\":10412:10479   */\n      tag_267\n        /* \"#utility.yul\":10472:10478   */\n      dup6\n        /* \"#utility.yul\":10465:10470   */\n      dup3\n        /* \"#utility.yul\":10412:10479   */\n      tag_142\n      jump\t// in\n    tag_267:\n        /* \"#utility.yul\":10406:10410   */\n      dup7\n        /* \"#utility.yul\":10399:10480   */\n      sstore\n        /* \"#utility.yul\":10268:10490   */\n      pop\n        /* \"#utility.yul\":9603:10490   */\n      jump(tag_264)\n        /* \"#utility.yul\":9633:10251   */\n    tag_265:\n        /* \"#utility.yul\":9685:9689   */\n      0x1f\n        /* \"#utility.yul\":9681:9690   */\n      not\n        /* \"#utility.yul\":9673:9679   */\n      dup5\n        /* \"#utility.yul\":9669:9691   */\n      and\n        /* \"#utility.yul\":9719:9756   */\n      tag_268\n        /* \"#utility.yul\":9751:9755   */\n      dup7\n        /* \"#utility.yul\":9719:9756   */\n      tag_127\n      jump\t// in\n    tag_268:\n        /* \"#utility.yul\":9778:9779   */\n      0x00\n        /* \"#utility.yul\":9792:10000   */\n    tag_269:\n        /* \"#utility.yul\":9806:9813   */\n      dup3\n        /* \"#utility.yul\":9803:9804   */\n      dup2\n        /* \"#utility.yul\":9800:9814   */\n      lt\n        /* \"#utility.yul\":9792:10000   */\n      iszero\n      tag_271\n      jumpi\n        /* \"#utility.yul\":9885:9894   */\n      dup5\n        /* \"#utility.yul\":9880:9883   */\n      dup10\n        /* \"#utility.yul\":9876:9895   */\n      add\n        /* \"#utility.yul\":9870:9896   */\n      mload\n        /* \"#utility.yul\":9862:9868   */\n      dup3\n        /* \"#utility.yul\":9855:9897   */\n      sstore\n        /* \"#utility.yul\":9936:9937   */\n      0x01\n        /* \"#utility.yul\":9928:9934   */\n      dup3\n        /* \"#utility.yul\":9924:9938   */\n      add\n        /* \"#utility.yul\":9914:9938   */\n      swap2\n      pop\n        /* \"#utility.yul\":9983:9985   */\n      0x20\n        /* \"#utility.yul\":9972:9981   */\n      dup6\n        /* \"#utility.yul\":9968:9986   */\n      add\n        /* \"#utility.yul\":9955:9986   */\n      swap5\n      pop\n        /* \"#utility.yul\":9829:9833   */\n      0x20\n        /* \"#utility.yul\":9826:9827   */\n      dup2\n        /* \"#utility.yul\":9822:9834   */\n      add\n        /* \"#utility.yul\":9817:9834   */\n      swap1\n      pop\n        /* \"#utility.yul\":9792:10000   */\n      jump(tag_269)\n    tag_271:\n        /* \"#utility.yul\":10028:10034   */\n      dup7\n        /* \"#utility.yul\":10019:10026   */\n      dup4\n        /* \"#utility.yul\":10016:10035   */\n      lt\n        /* \"#utility.yul\":10013:10192   */\n      iszero\n      tag_272\n      jumpi\n        /* \"#utility.yul\":10086:10095   */\n      dup5\n        /* \"#utility.yul\":10081:10084   */\n      dup10\n        /* \"#utility.yul\":10077:10096   */\n      add\n        /* \"#utility.yul\":10071:10097   */\n      mload\n        /* \"#utility.yul\":10129:10177   */\n      tag_273\n        /* \"#utility.yul\":10171:10175   */\n      0x1f\n        /* \"#utility.yul\":10163:10169   */\n      dup10\n        /* \"#utility.yul\":10159:10176   */\n      and\n        /* \"#utility.yul\":10148:10157   */\n      dup3\n        /* \"#utility.yul\":10129:10177   */\n      tag_141\n      jump\t// in\n    tag_273:\n        /* \"#utility.yul\":10121:10127   */\n      dup4\n        /* \"#utility.yul\":10114:10178   */\n      sstore\n        /* \"#utility.yul\":10036:10192   */\n      pop\n        /* \"#utility.yul\":10013:10192   */\n    tag_272:\n        /* \"#utility.yul\":10238:10239   */\n      0x01\n        /* \"#utility.yul\":10234:10235   */\n      0x02\n        /* \"#utility.yul\":10226:10232   */\n      dup9\n        /* \"#utility.yul\":10222:10236   */\n      mul\n        /* \"#utility.yul\":10218:10240   */\n      add\n        /* \"#utility.yul\":10212:10216   */\n      dup9\n        /* \"#utility.yul\":10205:10241   */\n      sstore\n        /* \"#utility.yul\":9640:10251   */\n      pop\n      pop\n      pop\n        /* \"#utility.yul\":9603:10490   */\n    tag_264:\n      pop\n        /* \"#utility.yul\":9193:10496   */\n      pop\n      pop\n      pop\n        /* \"#utility.yul\":9101:10496   */\n      pop\n      pop\n      jump\t// out\n        /* \"#utility.yul\":10502:10624   */\n    tag_143:\n        /* \"#utility.yul\":10575:10599   */\n      tag_275\n        /* \"#utility.yul\":10593:10598   */\n      dup2\n        /* \"#utility.yul\":10575:10599   */\n      tag_131\n      jump\t// in\n    tag_275:\n        /* \"#utility.yul\":10568:10573   */\n      dup2\n        /* \"#utility.yul\":10565:10600   */\n      eq\n        /* \"#utility.yul\":10555:10618   */\n      tag_276\n      jumpi\n        /* \"#utility.yul\":10614:10615   */\n      0x00\n        /* \"#utility.yul\":10611:10612   */\n      dup1\n        /* \"#utility.yul\":10604:10616   */\n      revert\n        /* \"#utility.yul\":10555:10618   */\n    tag_276:\n        /* \"#utility.yul\":10502:10624   */\n      pop\n      jump\t// out\n        /* \"#utility.yul\":10630:10773   */\n    tag_144:\n        /* \"#utility.yul\":10687:10692   */\n      0x00\n        /* \"#utility.yul\":10718:10724   */\n      dup2\n        /* \"#utility.yul\":10712:10725   */\n      mload\n        /* \"#utility.yul\":10703:10725   */\n      swap1\n      pop\n        /* \"#utility.yul\":10734:10767   */\n      tag_278\n        /* \"#utility.yul\":10761:10766   */\n      dup2\n        /* \"#utility.yul\":10734:10767   */\n      tag_143\n      jump\t// in\n    tag_278:\n        /* \"#utility.yul\":10630:10773   */\n      swap3\n      swap2\n      pop\n      pop\n      jump\t// out\n        /* \"#utility.yul\":10779:11130   */\n    tag_52:\n        /* \"#utility.yul\":10849:10855   */\n      0x00\n        /* \"#utility.yul\":10898:10900   */\n      0x20\n        /* \"#utility.yul\":10886:10895   */\n      dup3\n        /* \"#utility.yul\":10877:10884   */\n      dup5\n        /* \"#utility.yul\":10873:10896   */\n      sub\n        /* \"#utility.yul\":10869:10901   */\n      slt\n        /* \"#utility.yul\":10866:10985   */\n      iszero\n      tag_280\n      jumpi\n        /* \"#utility.yul\":10904:10983   */\n      tag_281\n      tag_103\n      jump\t// in\n    tag_281:\n        /* \"#utility.yul\":10866:10985   */\n    tag_280:\n        /* \"#utility.yul\":11024:11025   */\n      0x00\n        /* \"#utility.yul\":11049:11113   */\n      tag_282\n        /* \"#utility.yul\":11105:11112   */\n      dup5\n        /* \"#utility.yul\":11096:11102   */\n      dup3\n        /* \"#utility.yul\":11085:11094   */\n      dup6\n        /* \"#utility.yul\":11081:11103   */\n      add\n        /* \"#utility.yul\":11049:11113   */\n      tag_144\n      jump\t// in\n    tag_282:\n        /* \"#utility.yul\":11039:11113   */\n      swap2\n      pop\n        /* \"#utility.yul\":10995:11123   */\n      pop\n        /* \"#utility.yul\":10779:11130   */\n      swap3\n      swap2\n      pop\n      pop\n      jump\t// out\n        /* \"#utility.yul\":11136:11316   */\n    tag_145:\n        /* \"#utility.yul\":11184:11261   */\n      0x4e487b7100000000000000000000000000000000000000000000000000000000\n        /* \"#utility.yul\":11181:11182   */\n      0x00\n        /* \"#utility.yul\":11174:11262   */\n      mstore\n        /* \"#utility.yul\":11281:11285   */\n      0x11\n        /* \"#utility.yul\":11278:11279   */\n      0x04\n        /* \"#utility.yul\":11271:11286   */\n      mstore\n        /* \"#utility.yul\":11305:11309   */\n      0x24\n        /* \"#utility.yul\":11302:11303   */\n      0x00\n        /* \"#utility.yul\":11295:11310   */\n      revert\n        /* \"#utility.yul\":11322:11732   */\n    tag_54:\n        /* \"#utility.yul\":11362:11369   */\n      0x00\n        /* \"#utility.yul\":11385:11405   */\n      tag_285\n        /* \"#utility.yul\":11403:11404   */\n      dup3\n        /* \"#utility.yul\":11385:11405   */\n      tag_131\n      jump\t// in\n    tag_285:\n        /* \"#utility.yul\":11380:11405   */\n      swap2\n      pop\n        /* \"#utility.yul\":11419:11439   */\n      tag_286\n        /* \"#utility.yul\":11437:11438   */\n      dup4\n        /* \"#utility.yul\":11419:11439   */\n      tag_131\n      jump\t// in\n    tag_286:\n        /* \"#utility.yul\":11414:11439   */\n      swap3\n      pop\n        /* \"#utility.yul\":11474:11475   */\n      dup3\n        /* \"#utility.yul\":11471:11472   */\n      dup3\n        /* \"#utility.yul\":11467:11476   */\n      mul\n        /* \"#utility.yul\":11496:11526   */\n      tag_287\n        /* \"#utility.yul\":11514:11525   */\n      dup2\n        /* \"#utility.yul\":11496:11526   */\n      tag_131\n      jump\t// in\n    tag_287:\n        /* \"#utility.yul\":11485:11526   */\n      swap2\n      pop\n        /* \"#utility.yul\":11675:11676   */\n      dup3\n        /* \"#utility.yul\":11666:11673   */\n      dup3\n        /* \"#utility.yul\":11662:11677   */\n      div\n        /* \"#utility.yul\":11659:11660   */\n      dup5\n        /* \"#utility.yul\":11656:11678   */\n      eq\n        /* \"#utility.yul\":11636:11637   */\n      dup4\n        /* \"#utility.yul\":11629:11638   */\n      iszero\n        /* \"#utility.yul\":11609:11692   */\n      or\n        /* \"#utility.yul\":11586:11725   */\n      tag_288\n      jumpi\n        /* \"#utility.yul\":11705:11723   */\n      tag_289\n      tag_145\n      jump\t// in\n    tag_289:\n        /* \"#utility.yul\":11586:11725   */\n    tag_288:\n        /* \"#utility.yul\":11370:11732   */\n      pop\n        /* \"#utility.yul\":11322:11732   */\n      swap3\n      swap2\n      pop\n      pop\n      jump\t// out\n        /* \"#utility.yul\":11738:11929   */\n    tag_56:\n        /* \"#utility.yul\":11778:11781   */\n      0x00\n        /* \"#utility.yul\":11797:11817   */\n      tag_291\n        /* \"#utility.yul\":11815:11816   */\n      dup3\n        /* \"#utility.yul\":11797:11817   */\n      tag_131\n      jump\t// in\n    tag_291:\n        /* \"#utility.yul\":11792:11817   */\n      swap2\n      pop\n        /* \"#utility.yul\":11831:11851   */\n      tag_292\n        /* \"#utility.yul\":11849:11850   */\n      dup4\n        /* \"#utility.yul\":11831:11851   */\n      tag_131\n      jump\t// in\n    tag_292:\n        /* \"#utility.yul\":11826:11851   */\n      swap3\n      pop\n        /* \"#utility.yul\":11874:11875   */\n      dup3\n        /* \"#utility.yul\":11871:11872   */\n      dup3\n        /* \"#utility.yul\":11867:11876   */\n      add\n        /* \"#utility.yul\":11860:11876   */\n      swap1\n      pop\n        /* \"#utility.yul\":11895:11898   */\n      dup1\n        /* \"#utility.yul\":11892:11893   */\n      dup3\n        /* \"#utility.yul\":11889:11899   */\n      gt\n        /* \"#utility.yul\":11886:11922   */\n      iszero\n      tag_293\n      jumpi\n        /* \"#utility.yul\":11902:11920   */\n      tag_294\n      tag_145\n      jump\t// in\n    tag_294:\n        /* \"#utility.yul\":11886:11922   */\n    tag_293:\n        /* \"#utility.yul\":11738:11929   */\n      swap3\n      swap2\n      pop\n      pop\n      jump\t// out\n        /* \"#utility.yul\":11935:12020   */\n    tag_146:\n        /* \"#utility.yul\":11980:11987   */\n      0x00\n        /* \"#utility.yul\":12009:12014   */\n      dup2\n        /* \"#utility.yul\":11998:12014   */\n      swap1\n      pop\n        /* \"#utility.yul\":11935:12020   */\n      swap2\n      swap1\n      pop\n      jump\t// out\n        /* \"#utility.yul\":12026:12184   */\n    tag_147:\n        /* \"#utility.yul\":12084:12093   */\n      0x00\n        /* \"#utility.yul\":12117:12178   */\n      tag_297\n        /* \"#utility.yul\":12135:12177   */\n      tag_298\n        /* \"#utility.yul\":12144:12176   */\n      tag_299\n        /* \"#utility.yul\":12170:12175   */\n      dup5\n        /* \"#utility.yul\":12144:12176   */\n      tag_146\n      jump\t// in\n    tag_299:\n        /* \"#utility.yul\":12135:12177   */\n      tag_132\n      jump\t// in\n    tag_298:\n        /* \"#utility.yul\":12117:12178   */\n      tag_131\n      jump\t// in\n    tag_297:\n        /* \"#utility.yul\":12104:12178   */\n      swap1\n      pop\n        /* \"#utility.yul\":12026:12184   */\n      swap2\n      swap1\n      pop\n      jump\t// out\n        /* \"#utility.yul\":12190:12337   */\n    tag_148:\n        /* \"#utility.yul\":12285:12330   */\n      tag_301\n        /* \"#utility.yul\":12324:12329   */\n      dup2\n        /* \"#utility.yul\":12285:12330   */\n      tag_147\n      jump\t// in\n    tag_301:\n        /* \"#utility.yul\":12280:12283   */\n      dup3\n        /* \"#utility.yul\":12273:12331   */\n      mstore\n        /* \"#utility.yul\":12190:12337   */\n      pop\n      pop\n      jump\t// out\n        /* \"#utility.yul\":12343:12983   */\n    tag_59:\n        /* \"#utility.yul\":12540:12544   */\n      0x00\n        /* \"#utility.yul\":12578:12580   */\n      0x60\n        /* \"#utility.yul\":12567:12576   */\n      dup3\n        /* \"#utility.yul\":12563:12581   */\n      add\n        /* \"#utility.yul\":12555:12581   */\n      swap1\n      pop\n        /* \"#utility.yul\":12591:12670   */\n      tag_303\n        /* \"#utility.yul\":12667:12668   */\n      0x00\n        /* \"#utility.yul\":12656:12665   */\n      dup4\n        /* \"#utility.yul\":12652:12669   */\n      add\n        /* \"#utility.yul\":12643:12649   */\n      dup7\n        /* \"#utility.yul\":12591:12670   */\n      tag_148\n      jump\t// in\n    tag_303:\n        /* \"#utility.yul\":12717:12726   */\n      dup2\n        /* \"#utility.yul\":12711:12715   */\n      dup2\n        /* \"#utility.yul\":12707:12727   */\n      sub\n        /* \"#utility.yul\":12702:12704   */\n      0x20\n        /* \"#utility.yul\":12691:12700   */\n      dup4\n        /* \"#utility.yul\":12687:12705   */\n      add\n        /* \"#utility.yul\":12680:12728   */\n      mstore\n        /* \"#utility.yul\":12745:12823   */\n      tag_304\n        /* \"#utility.yul\":12818:12822   */\n      dup2\n        /* \"#utility.yul\":12809:12815   */\n      dup6\n        /* \"#utility.yul\":12745:12823   */\n      tag_121\n      jump\t// in\n    tag_304:\n        /* \"#utility.yul\":12737:12823   */\n      swap1\n      pop\n        /* \"#utility.yul\":12870:12879   */\n      dup2\n        /* \"#utility.yul\":12864:12868   */\n      dup2\n        /* \"#utility.yul\":12860:12880   */\n      sub\n        /* \"#utility.yul\":12855:12857   */\n      0x40\n        /* \"#utility.yul\":12844:12853   */\n      dup4\n        /* \"#utility.yul\":12840:12858   */\n      add\n        /* \"#utility.yul\":12833:12881   */\n      mstore\n        /* \"#utility.yul\":12898:12976   */\n      tag_305\n        /* \"#utility.yul\":12971:12975   */\n      dup2\n        /* \"#utility.yul\":12962:12968   */\n      dup5\n        /* \"#utility.yul\":12898:12976   */\n      tag_121\n      jump\t// in\n    tag_305:\n        /* \"#utility.yul\":12890:12976   */\n      swap1\n      pop\n        /* \"#utility.yul\":12343:12983   */\n      swap5\n      swap4\n      pop\n      pop\n      pop\n      pop\n      jump\t// out\n        /* \"#utility.yul\":12989:13132   */\n    tag_149:\n        /* \"#utility.yul\":13046:13051   */\n      0x00\n        /* \"#utility.yul\":13077:13083   */\n      dup2\n        /* \"#utility.yul\":13071:13084   */\n      mload\n        /* \"#utility.yul\":13062:13084   */\n      swap1\n      pop\n        /* \"#utility.yul\":13093:13126   */\n      tag_307\n        /* \"#utility.yul\":13120:13125   */\n      dup2\n        /* \"#utility.yul\":13093:13126   */\n      tag_106\n      jump\t// in\n    tag_307:\n        /* \"#utility.yul\":12989:13132   */\n      swap3\n      swap2\n      pop\n      pop\n      jump\t// out\n        /* \"#utility.yul\":13138:13489   */\n    tag_63:\n        /* \"#utility.yul\":13208:13214   */\n      0x00\n        /* \"#utility.yul\":13257:13259   */\n      0x20\n        /* \"#utility.yul\":13245:13254   */\n      dup3\n        /* \"#utility.yul\":13236:13243   */\n      dup5\n        /* \"#utility.yul\":13232:13255   */\n      sub\n        /* \"#utility.yul\":13228:13260   */\n      slt\n        /* \"#utility.yul\":13225:13344   */\n      iszero\n      tag_309\n      jumpi\n        /* \"#utility.yul\":13263:13342   */\n      tag_310\n      tag_103\n      jump\t// in\n    tag_310:\n        /* \"#utility.yul\":13225:13344   */\n    tag_309:\n        /* \"#utility.yul\":13383:13384   */\n      0x00\n        /* \"#utility.yul\":13408:13472   */\n      tag_311\n        /* \"#utility.yul\":13464:13471   */\n      dup5\n        /* \"#utility.yul\":13455:13461   */\n      dup3\n        /* \"#utility.yul\":13444:13453   */\n      dup6\n        /* \"#utility.yul\":13440:13462   */\n      add\n        /* \"#utility.yul\":13408:13472   */\n      tag_149\n      jump\t// in\n    tag_311:\n        /* \"#utility.yul\":13398:13472   */\n      swap2\n      pop\n        /* \"#utility.yul\":13354:13482   */\n      pop\n        /* \"#utility.yul\":13138:13489   */\n      swap3\n      swap2\n      pop\n      pop\n      jump\t// out\n    stop\n    data_5ce1bdb13e69e977a5dc5594f30e56d66526a5351fa78f20573104ffe824a92a 6a736f6e2868747470733a2f2f6d696e2d6170692e63727970746f636f6d706172652e636f6d2f646174612f70726963653f6673796d3d455448267473796d733d555344292e555344\n\n    auxdata: 0xa2646970667358221220d7f2f6469d64d802c20b9f3981b8b518d02290213d5f945ef83532ca158f01a664736f6c634300081a0033\n}\n",
				"bytecode": {
					"linkReferences": {},
					"object": "6080604052348015600e575f80fd5b5061158f8061001c5f395ff3fe608060405234801561000f575f80fd5b506004361061003f575f3560e01c806327dc297e146100435780638322fff21461005f578063fbe39bcf1461007d575b5f80fd5b61005d60048036038101906100589190610f2e565b610087565b005b61006761015e565b6040516100749190610fe8565b60405180910390f35b6100856101ea565b005b5f8054906101000a900473ffffffffffffffffffffffffffffffffffffffff1673ffffffffffffffffffffffffffffffffffffffff1663c281d19e6040518163ffffffff1660e01b81526004016020604051808303815f875af11580156100f0573d5f803e3d5ffd5b505050506040513d601f19601f820116820180604052508101906101149190611062565b73ffffffffffffffffffffffffffffffffffffffff163373ffffffffffffffffffffffffffffffffffffffff161461014a575f80fd5b80600590816101599190611290565b505050565b6005805461016b906110ba565b80601f0160208091040260200160405190810160405280929190818152602001828054610197906110ba565b80156101e25780601f106101b9576101008083540402835291602001916101e2565b820191905f5260205f20905b8154815290600101906020018083116101c557829003601f168201915b505050505081565b6102416040518060400160405280600381526020017f55524c000000000000000000000000000000000000000000000000000000000081525060405180608001604052806049815260200161151160499139610244565b50565b5f8073ffffffffffffffffffffffffffffffffffffffff1660015f9054906101000a900473ffffffffffffffffffffffffffffffffffffffff1673ffffffffffffffffffffffffffffffffffffffff1614806102c857505f6102c660015f9054906101000a900473ffffffffffffffffffffffffffffffffffffffff166105fe565b145b156102d8576102d65f610608565b505b60015f9054906101000a900473ffffffffffffffffffffffffffffffffffffffff1673ffffffffffffffffffffffffffffffffffffffff166338cc48316040518163ffffffff1660e01b81526004016020604051808303815f875af1158015610343573d5f803e3d5ffd5b505050506040513d601f19601f820116820180604052508101906103679190611062565b73ffffffffffffffffffffffffffffffffffffffff165f8054906101000a900473ffffffffffffffffffffffffffffffffffffffff1673ffffffffffffffffffffffffffffffffffffffff16146104865760015f9054906101000a900473ffffffffffffffffffffffffffffffffffffffff1673ffffffffffffffffffffffffffffffffffffffff166338cc48316040518163ffffffff1660e01b81526004016020604051808303815f875af1158015610423573d5f803e3d5ffd5b505050506040513d601f19601f820116820180604052508101906104479190611062565b5f806101000a81548173ffffffffffffffffffffffffffffffffffffffff021916908373ffffffffffffffffffffffffffffffffffffffff1602179055505b5f805f9054906101000a900473ffffffffffffffffffffffffffffffffffffffff1673ffffffffffffffffffffffffffffffffffffffff1663524f3889856040518263ffffffff1660e01b81526004016104e09190610fe8565b6020604051808303815f875af11580156104fc573d5f803e3d5ffd5b505050506040513d601f19601f820116820180604052508101906105209190611389565b905062030d403a61053191906113e1565b670de0b6b3a76400006105449190611422565b811115610556575f801b9150506105f8565b5f8054906101000a900473ffffffffffffffffffffffffffffffffffffffff1673ffffffffffffffffffffffffffffffffffffffff1663adf59f99825f87876040518563ffffffff1660e01b81526004016105b39392919061148e565b60206040518083038185885af11580156105cf573d5f803e3d5ffd5b50505050506040513d601f19601f820116820180604052508101906105f491906114e5565b9150505b92915050565b5f813b9050919050565b5f610611610618565b9050919050565b5f80610637731d3b2638a7cc9f2cb3d298a3da7a90b67e5506ed6105fe565b11156106d857731d3b2638a7cc9f2cb3d298a3da7a90b67e5506ed60015f6101000a81548173ffffffffffffffffffffffffffffffffffffffff021916908373ffffffffffffffffffffffffffffffffffffffff1602179055506106cf6040518060400160405280600b81526020017f6574685f6d61696e6e6574000000000000000000000000000000000000000000815250610d9b565b60019050610d98565b5f6106f673c03a2615d5efaf5f49f60b7bb6583eaec212fdf16105fe565b11156107975773c03a2615d5efaf5f49f60b7bb6583eaec212fdf160015f6101000a81548173ffffffffffffffffffffffffffffffffffffffff021916908373ffffffffffffffffffffffffffffffffffffffff16021790555061078e6040518060400160405280600c81526020017f6574685f726f707374656e330000000000000000000000000000000000000000815250610d9b565b60019050610d98565b5f6107b573b7a07bcf2ba2f2703b24c0691b5278999c59ac7e6105fe565b11156108565773b7a07bcf2ba2f2703b24c0691b5278999c59ac7e60015f6101000a81548173ffffffffffffffffffffffffffffffffffffffff021916908373ffffffffffffffffffffffffffffffffffffffff16021790555061084d6040518060400160405280600981526020017f6574685f6b6f76616e0000000000000000000000000000000000000000000000815250610d9b565b60019050610d98565b5f61087473146500cfd35b22e4a392fe0adc06de1a1368ed486105fe565b11156109155773146500cfd35b22e4a392fe0adc06de1a1368ed4860015f6101000a81548173ffffffffffffffffffffffffffffffffffffffff021916908373ffffffffffffffffffffffffffffffffffffffff16021790555061090c6040518060400160405280600b81526020017f6574685f72696e6b656279000000000000000000000000000000000000000000815250610d9b565b60019050610d98565b5f61093373a2998efd205fb9d4b4963afb70778d6354ad3a416105fe565b11156109d45773a2998efd205fb9d4b4963afb70778d6354ad3a4160015f6101000a81548173ffffffffffffffffffffffffffffffffffffffff021916908373ffffffffffffffffffffffffffffffffffffffff1602179055506109cb6040518060400160405280600a81526020017f6574685f676f65726c6900000000000000000000000000000000000000000000815250610d9b565b60019050610d98565b5f6109f27390a0f94702c9630036fb9846b52bf31a1c991a846105fe565b1115610a93577390a0f94702c9630036fb9846b52bf31a1c991a8460015f6101000a81548173ffffffffffffffffffffffffffffffffffffffff021916908373ffffffffffffffffffffffffffffffffffffffff160217905550610a8a6040518060400160405280600b81526020017f6273635f6d61696e6e6574000000000000000000000000000000000000000000815250610d9b565b60019050610d98565b5f610ab173816ec2af1b56183f82f8c05759e99fec3c3de6096105fe565b1115610b525773816ec2af1b56183f82f8c05759e99fec3c3de60960015f6101000a81548173ffffffffffffffffffffffffffffffffffffffff021916908373ffffffffffffffffffffffffffffffffffffffff160217905550610b496040518060400160405280600f81526020017f706f6c79676f6e5f6d61696e6e65740000000000000000000000000000000000815250610d9b565b60019050610d98565b5f610b707314b31a1c66a9f3d18dfac2d123fe8ce5847b7f856105fe565b1115610c11577314b31a1c66a9f3d18dfac2d123fe8ce5847b7f8560015f6101000a81548173ffffffffffffffffffffffffffffffffffffffff021916908373ffffffffffffffffffffffffffffffffffffffff160217905550610c086040518060400160405280600f81526020017f7365706f6c69615f6d61696e6e65740000000000000000000000000000000000815250610d9b565b60019050610d98565b5f610c2f736f485c8bf6fc43ea212e93bbf8ce046c7f1cb4756105fe565b1115610c9257736f485c8bf6fc43ea212e93bbf8ce046c7f1cb47560015f6101000a81548173ffffffffffffffffffffffffffffffffffffffff021916908373ffffffffffffffffffffffffffffffffffffffff16021790555060019050610d98565b5f610cb07320e12a1f859b3feae5fb2a0a32c18f5a65555bbf6105fe565b1115610d13577320e12a1f859b3feae5fb2a0a32c18f5a65555bbf60015f6101000a81548173ffffffffffffffffffffffffffffffffffffffff021916908373ffffffffffffffffffffffffffffffffffffffff16021790555060019050610d98565b5f610d317351efaf4c8b3c9afbd5ab9f4bbc82784ab6ef8faa6105fe565b1115610d94577351efaf4c8b3c9afbd5ab9f4bbc82784ab6ef8faa60015f6101000a81548173ffffffffffffffffffffffffffffffffffffffff021916908373ffffffffffffffffffffffffffffffffffffffff16021790555060019050610d98565b5f90505b90565b8060029081610daa9190611290565b5050565b5f604051905090565b5f80fd5b5f80fd5b5f819050919050565b610dd181610dbf565b8114610ddb575f80fd5b50565b5f81359050610dec81610dc8565b92915050565b5f80fd5b5f80fd5b5f601f19601f8301169050919050565b7f4e487b71000000000000000000000000000000000000000000000000000000005f52604160045260245ffd5b610e4082610dfa565b810181811067ffffffffffffffff82111715610e5f57610e5e610e0a565b5b80604052505050565b5f610e71610dae565b9050610e7d8282610e37565b919050565b5f67ffffffffffffffff821115610e9c57610e9b610e0a565b5b610ea582610dfa565b9050602081019050919050565b828183375f83830152505050565b5f610ed2610ecd84610e82565b610e68565b905082815260208101848484011115610eee57610eed610df6565b5b610ef9848285610eb2565b509392505050565b5f82601f830112610f1557610f14610df2565b5b8135610f25848260208601610ec0565b91505092915050565b5f8060408385031215610f4457610f43610db7565b5b5f610f5185828601610dde565b925050602083013567ffffffffffffffff811115610f7257610f71610dbb565b5b610f7e85828601610f01565b9150509250929050565b5f81519050919050565b5f82825260208201905092915050565b8281835e5f83830152505050565b5f610fba82610f88565b610fc48185610f92565b9350610fd4818560208601610fa2565b610fdd81610dfa565b840191505092915050565b5f6020820190508181035f8301526110008184610fb0565b905092915050565b5f73ffffffffffffffffffffffffffffffffffffffff82169050919050565b5f61103182611008565b9050919050565b61104181611027565b811461104b575f80fd5b50565b5f8151905061105c81611038565b92915050565b5f6020828403121561107757611076610db7565b5b5f6110848482850161104e565b91505092915050565b7f4e487b71000000000000000000000000000000000000000000000000000000005f52602260045260245ffd5b5f60028204905060018216806110d157607f821691505b6020821081036110e4576110e361108d565b5b50919050565b5f819050815f5260205f209050919050565b5f6020601f8301049050919050565b5f82821b905092915050565b5f600883026111467fffffffffffffffffffffffffffffffffffffffffffffffffffffffffffffffff8261110b565b611150868361110b565b95508019841693508086168417925050509392505050565b5f819050919050565b5f819050919050565b5f61119461118f61118a84611168565b611171565b611168565b9050919050565b5f819050919050565b6111ad8361117a565b6111c16111b98261119b565b848454611117565b825550505050565b5f90565b6111d56111c9565b6111e08184846111a4565b505050565b5b81811015611203576111f85f826111cd565b6001810190506111e6565b5050565b601f82111561124857611219816110ea565b611222846110fc565b81016020851015611231578190505b61124561123d856110fc565b8301826111e5565b50505b505050565b5f82821c905092915050565b5f6112685f198460080261124d565b1980831691505092915050565b5f6112808383611259565b9150826002028217905092915050565b61129982610f88565b67ffffffffffffffff8111156112b2576112b1610e0a565b5b6112bc82546110ba565b6112c7828285611207565b5f60209050601f8311600181146112f8575f84156112e6578287015190505b6112f08582611275565b865550611357565b601f198416611306866110ea565b5f5b8281101561132d57848901518255600182019150602085019450602081019050611308565b8683101561134a5784890151611346601f891682611259565b8355505b6001600288020188555050505b505050505050565b61136881611168565b8114611372575f80fd5b50565b5f815190506113838161135f565b92915050565b5f6020828403121561139e5761139d610db7565b5b5f6113ab84828501611375565b91505092915050565b7f4e487b71000000000000000000000000000000000000000000000000000000005f52601160045260245ffd5b5f6113eb82611168565b91506113f683611168565b925082820261140481611168565b9150828204841483151761141b5761141a6113b4565b5b5092915050565b5f61142c82611168565b915061143783611168565b925082820190508082111561144f5761144e6113b4565b5b92915050565b5f819050919050565b5f61147861147361146e84611455565b611171565b611168565b9050919050565b6114888161145e565b82525050565b5f6060820190506114a15f83018661147f565b81810360208301526114b38185610fb0565b905081810360408301526114c78184610fb0565b9050949350505050565b5f815190506114df81610dc8565b92915050565b5f602082840312156114fa576114f9610db7565b5b5f611507848285016114d1565b9150509291505056fe6a736f6e2868747470733a2f2f6d696e2d6170692e63727970746f636f6d706172652e636f6d2f646174612f70726963653f6673796d3d455448267473796d733d555344292e555344a2646970667358221220d7f2f6469d64d802c20b9f3981b8b518d02290213d5f945ef83532ca158f01a664736f6c634300081a0033",
					"opcodes": "PUSH1 0x80 PUSH1 0x40 MSTORE CALLVALUE DUP1 ISZERO PUSH1 0xE JUMPI PUSH0 DUP1 REVERT JUMPDEST POP PUSH2 0x158F DUP1 PUSH2 0x1C PUSH0 CODECOPY PUSH0 RETURN INVALID PUSH1 0x80 PUSH1 0x40 MSTORE CALLVALUE DUP1 ISZERO PUSH2 0xF JUMPI PUSH0 DUP1 REVERT JUMPDEST POP PUSH1 0x4 CALLDATASIZE LT PUSH2 0x3F JUMPI PUSH0 CALLDATALOAD PUSH1 0xE0 SHR DUP1 PUSH4 0x27DC297E EQ PUSH2 0x43 JUMPI DUP1 PUSH4 0x8322FFF2 EQ PUSH2 0x5F JUMPI DUP1 PUSH4 0xFBE39BCF EQ PUSH2 0x7D JUMPI JUMPDEST PUSH0 DUP1 REVERT JUMPDEST PUSH2 0x5D PUSH1 0x4 DUP1 CALLDATASIZE SUB DUP2 ADD SWAP1 PUSH2 0x58 SWAP2 SWAP1 PUSH2 0xF2E JUMP JUMPDEST PUSH2 0x87 JUMP JUMPDEST STOP JUMPDEST PUSH2 0x67 PUSH2 0x15E JUMP JUMPDEST PUSH1 0x40 MLOAD PUSH2 0x74 SWAP2 SWAP1 PUSH2 0xFE8 JUMP JUMPDEST PUSH1 0x40 MLOAD DUP1 SWAP2 SUB SWAP1 RETURN JUMPDEST PUSH2 0x85 PUSH2 0x1EA JUMP JUMPDEST STOP JUMPDEST PUSH0 DUP1 SLOAD SWAP1 PUSH2 0x100 EXP SWAP1 DIV PUSH20 0xFFFFFFFFFFFFFFFFFFFFFFFFFFFFFFFFFFFFFFFF AND PUSH20 0xFFFFFFFFFFFFFFFFFFFFFFFFFFFFFFFFFFFFFFFF AND PUSH4 0xC281D19E PUSH1 0x40 MLOAD DUP2 PUSH4 0xFFFFFFFF AND PUSH1 0xE0 SHL DUP2 MSTORE PUSH1 0x4 ADD PUSH1 0x20 PUSH1 0x40 MLOAD DUP1 DUP4 SUB DUP2 PUSH0 DUP8 GAS CALL ISZERO DUP1 ISZERO PUSH2 0xF0 JUMPI RETURNDATASIZE PUSH0 DUP1 RETURNDATACOPY RETURNDATASIZE PUSH0 REVERT JUMPDEST POP POP POP POP PUSH1 0x40 MLOAD RETURNDATASIZE PUSH1 0x1F NOT PUSH1 0x1F DUP3 ADD AND DUP3 ADD DUP1 PUSH1 0x40 MSTORE POP DUP2 ADD SWAP1 PUSH2 0x114 SWAP2 SWAP1 PUSH2 0x1062 JUMP JUMPDEST PUSH20 0xFFFFFFFFFFFFFFFFFFFFFFFFFFFFFFFFFFFFFFFF AND CALLER PUSH20 0xFFFFFFFFFFFFFFFFFFFFFFFFFFFFFFFFFFFFFFFF AND EQ PUSH2 0x14A JUMPI PUSH0 DUP1 REVERT JUMPDEST DUP1 PUSH1 0x5 SWAP1 DUP2 PUSH2 0x159 SWAP2 SWAP1 PUSH2 0x1290 JUMP JUMPDEST POP POP POP JUMP JUMPDEST PUSH1 0x5 DUP1 SLOAD PUSH2 0x16B SWAP1 PUSH2 0x10BA JUMP JUMPDEST DUP1 PUSH1 0x1F ADD PUSH1 0x20 DUP1 SWAP2 DIV MUL PUSH1 0x20 ADD PUSH1 0x40 MLOAD SWAP1 DUP2 ADD PUSH1 0x40 MSTORE DUP1 SWAP3 SWAP2 SWAP1 DUP2 DUP2 MSTORE PUSH1 0x20 ADD DUP3 DUP1 SLOAD PUSH2 0x197 SWAP1 PUSH2 0x10BA JUMP JUMPDEST DUP1 ISZERO PUSH2 0x1E2 JUMPI DUP1 PUSH1 0x1F LT PUSH2 0x1B9 JUMPI PUSH2 0x100 DUP1 DUP4 SLOAD DIV MUL DUP4 MSTORE SWAP2 PUSH1 0x20 ADD SWAP2 PUSH2 0x1E2 JUMP JUMPDEST DUP3 ADD SWAP2 SWAP1 PUSH0 MSTORE PUSH1 0x20 PUSH0 KECCAK256 SWAP1 JUMPDEST DUP2 SLOAD DUP2 MSTORE SWAP1 PUSH1 0x1 ADD SWAP1 PUSH1 0x20 ADD DUP1 DUP4 GT PUSH2 0x1C5 JUMPI DUP3 SWAP1 SUB PUSH1 0x1F AND DUP3 ADD SWAP2 JUMPDEST POP POP POP POP POP DUP2 JUMP JUMPDEST PUSH2 0x241 PUSH1 0x40 MLOAD DUP1 PUSH1 0x40 ADD PUSH1 0x40 MSTORE DUP1 PUSH1 0x3 DUP2 MSTORE PUSH1 0x20 ADD PUSH32 0x55524C0000000000000000000000000000000000000000000000000000000000 DUP2 MSTORE POP PUSH1 0x40 MLOAD DUP1 PUSH1 0x80 ADD PUSH1 0x40 MSTORE DUP1 PUSH1 0x49 DUP2 MSTORE PUSH1 0x20 ADD PUSH2 0x1511 PUSH1 0x49 SWAP2 CODECOPY PUSH2 0x244 JUMP JUMPDEST POP JUMP JUMPDEST PUSH0 DUP1 PUSH20 0xFFFFFFFFFFFFFFFFFFFFFFFFFFFFFFFFFFFFFFFF AND PUSH1 0x1 PUSH0 SWAP1 SLOAD SWAP1 PUSH2 0x100 EXP SWAP1 DIV PUSH20 0xFFFFFFFFFFFFFFFFFFFFFFFFFFFFFFFFFFFFFFFF AND PUSH20 0xFFFFFFFFFFFFFFFFFFFFFFFFFFFFFFFFFFFFFFFF AND EQ DUP1 PUSH2 0x2C8 JUMPI POP PUSH0 PUSH2 0x2C6 PUSH1 0x1 PUSH0 SWAP1 SLOAD SWAP1 PUSH2 0x100 EXP SWAP1 DIV PUSH20 0xFFFFFFFFFFFFFFFFFFFFFFFFFFFFFFFFFFFFFFFF AND PUSH2 0x5FE JUMP JUMPDEST EQ JUMPDEST ISZERO PUSH2 0x2D8 JUMPI PUSH2 0x2D6 PUSH0 PUSH2 0x608 JUMP JUMPDEST POP JUMPDEST PUSH1 0x1 PUSH0 SWAP1 SLOAD SWAP1 PUSH2 0x100 EXP SWAP1 DIV PUSH20 0xFFFFFFFFFFFFFFFFFFFFFFFFFFFFFFFFFFFFFFFF AND PUSH20 0xFFFFFFFFFFFFFFFFFFFFFFFFFFFFFFFFFFFFFFFF AND PUSH4 0x38CC4831 PUSH1 0x40 MLOAD DUP2 PUSH4 0xFFFFFFFF AND PUSH1 0xE0 SHL DUP2 MSTORE PUSH1 0x4 ADD PUSH1 0x20 PUSH1 0x40 MLOAD DUP1 DUP4 SUB DUP2 PUSH0 DUP8 GAS CALL ISZERO DUP1 ISZERO PUSH2 0x343 JUMPI RETURNDATASIZE PUSH0 DUP1 RETURNDATACOPY RETURNDATASIZE PUSH0 REVERT JUMPDEST POP POP POP POP PUSH1 0x40 MLOAD RETURNDATASIZE PUSH1 0x1F NOT PUSH1 0x1F DUP3 ADD AND DUP3 ADD DUP1 PUSH1 0x40 MSTORE POP DUP2 ADD SWAP1 PUSH2 0x367 SWAP2 SWAP1 PUSH2 0x1062 JUMP JUMPDEST PUSH20 0xFFFFFFFFFFFFFFFFFFFFFFFFFFFFFFFFFFFFFFFF AND PUSH0 DUP1 SLOAD SWAP1 PUSH2 0x100 EXP SWAP1 DIV PUSH20 0xFFFFFFFFFFFFFFFFFFFFFFFFFFFFFFFFFFFFFFFF AND PUSH20 0xFFFFFFFFFFFFFFFFFFFFFFFFFFFFFFFFFFFFFFFF AND EQ PUSH2 0x486 JUMPI PUSH1 0x1 PUSH0 SWAP1 SLOAD SWAP1 PUSH2 0x100 EXP SWAP1 DIV PUSH20 0xFFFFFFFFFFFFFFFFFFFFFFFFFFFFFFFFFFFFFFFF AND PUSH20 0xFFFFFFFFFFFFFFFFFFFFFFFFFFFFFFFFFFFFFFFF AND PUSH4 0x38CC4831 PUSH1 0x40 MLOAD DUP2 PUSH4 0xFFFFFFFF AND PUSH1 0xE0 SHL DUP2 MSTORE PUSH1 0x4 ADD PUSH1 0x20 PUSH1 0x40 MLOAD DUP1 DUP4 SUB DUP2 PUSH0 DUP8 GAS CALL ISZERO DUP1 ISZERO PUSH2 0x423 JUMPI RETURNDATASIZE PUSH0 DUP1 RETURNDATACOPY RETURNDATASIZE PUSH0 REVERT JUMPDEST POP POP POP POP PUSH1 0x40 MLOAD RETURNDATASIZE PUSH1 0x1F NOT PUSH1 0x1F DUP3 ADD AND DUP3 ADD DUP1 PUSH1 0x40 MSTORE POP DUP2 ADD SWAP1 PUSH2 0x447 SWAP2 SWAP1 PUSH2 0x1062 JUMP JUMPDEST PUSH0 DUP1 PUSH2 0x100 EXP DUP2 SLOAD DUP2 PUSH20 0xFFFFFFFFFFFFFFFFFFFFFFFFFFFFFFFFFFFFFFFF MUL NOT AND SWAP1 DUP4 PUSH20 0xFFFFFFFFFFFFFFFFFFFFFFFFFFFFFFFFFFFFFFFF AND MUL OR SWAP1 SSTORE POP JUMPDEST PUSH0 DUP1 PUSH0 SWAP1 SLOAD SWAP1 PUSH2 0x100 EXP SWAP1 DIV PUSH20 0xFFFFFFFFFFFFFFFFFFFFFFFFFFFFFFFFFFFFFFFF AND PUSH20 0xFFFFFFFFFFFFFFFFFFFFFFFFFFFFFFFFFFFFFFFF AND PUSH4 0x524F3889 DUP6 PUSH1 0x40 MLOAD DUP3 PUSH4 0xFFFFFFFF AND PUSH1 0xE0 SHL DUP2 MSTORE PUSH1 0x4 ADD PUSH2 0x4E0 SWAP2 SWAP1 PUSH2 0xFE8 JUMP JUMPDEST PUSH1 0x20 PUSH1 0x40 MLOAD DUP1 DUP4 SUB DUP2 PUSH0 DUP8 GAS CALL ISZERO DUP1 ISZERO PUSH2 0x4FC JUMPI RETURNDATASIZE PUSH0 DUP1 RETURNDATACOPY RETURNDATASIZE PUSH0 REVERT JUMPDEST POP POP POP POP PUSH1 0x40 MLOAD RETURNDATASIZE PUSH1 0x1F NOT PUSH1 0x1F DUP3 ADD AND DUP3 ADD DUP1 PUSH1 0x40 MSTORE POP DUP2 ADD SWAP1 PUSH2 0x520 SWAP2 SWAP1 PUSH2 0x1389 JUMP JUMPDEST SWAP1 POP PUSH3 0x30D40 GASPRICE PUSH2 0x531 SWAP2 SWAP1 PUSH2 0x13E1 JUMP JUMPDEST PUSH8 0xDE0B6B3A7640000 PUSH2 0x544 SWAP2 SWAP1 PUSH2 0x1422 JUMP JUMPDEST DUP2 GT ISZERO PUSH2 0x556 JUMPI PUSH0 DUP1 SHL SWAP2 POP POP PUSH2 0x5F8 JUMP JUMPDEST PUSH0 DUP1 SLOAD SWAP1 PUSH2 0x100 EXP SWAP1 DIV PUSH20 0xFFFFFFFFFFFFFFFFFFFFFFFFFFFFFFFFFFFFFFFF AND PUSH20 0xFFFFFFFFFFFFFFFFFFFFFFFFFFFFFFFFFFFFFFFF AND PUSH4 0xADF59F99 DUP3 PUSH0 DUP8 DUP8 PUSH1 0x40 MLOAD DUP6 PUSH4 0xFFFFFFFF AND PUSH1 0xE0 SHL DUP2 MSTORE PUSH1 0x4 ADD PUSH2 0x5B3 SWAP4 SWAP3 SWAP2 SWAP1 PUSH2 0x148E JUMP JUMPDEST PUSH1 0x20 PUSH1 0x40 MLOAD DUP1 DUP4 SUB DUP2 DUP6 DUP9 GAS CALL ISZERO DUP1 ISZERO PUSH2 0x5CF JUMPI RETURNDATASIZE PUSH0 DUP1 RETURNDATACOPY RETURNDATASIZE PUSH0 REVERT JUMPDEST POP POP POP POP POP PUSH1 0x40 MLOAD RETURNDATASIZE PUSH1 0x1F NOT PUSH1 0x1F DUP3 ADD AND DUP3 ADD DUP1 PUSH1 0x40 MSTORE POP DUP2 ADD SWAP1 PUSH2 0x5F4 SWAP2 SWAP1 PUSH2 0x14E5 JUMP JUMPDEST SWAP2 POP POP JUMPDEST SWAP3 SWAP2 POP POP JUMP JUMPDEST PUSH0 DUP2 EXTCODESIZE SWAP1 POP SWAP2 SWAP1 POP JUMP JUMPDEST PUSH0 PUSH2 0x611 PUSH2 0x618 JUMP JUMPDEST SWAP1 POP SWAP2 SWAP1 POP JUMP JUMPDEST PUSH0 DUP1 PUSH2 0x637 PUSH20 0x1D3B2638A7CC9F2CB3D298A3DA7A90B67E5506ED PUSH2 0x5FE JUMP JUMPDEST GT ISZERO PUSH2 0x6D8 JUMPI PUSH20 0x1D3B2638A7CC9F2CB3D298A3DA7A90B67E5506ED PUSH1 0x1 PUSH0 PUSH2 0x100 EXP DUP2 SLOAD DUP2 PUSH20 0xFFFFFFFFFFFFFFFFFFFFFFFFFFFFFFFFFFFFFFFF MUL NOT AND SWAP1 DUP4 PUSH20 0xFFFFFFFFFFFFFFFFFFFFFFFFFFFFFFFFFFFFFFFF AND MUL OR SWAP1 SSTORE POP PUSH2 0x6CF PUSH1 0x40 MLOAD DUP1 PUSH1 0x40 ADD PUSH1 0x40 MSTORE DUP1 PUSH1 0xB DUP2 MSTORE PUSH1 0x20 ADD PUSH32 0x6574685F6D61696E6E6574000000000000000000000000000000000000000000 DUP2 MSTORE POP PUSH2 0xD9B JUMP JUMPDEST PUSH1 0x1 SWAP1 POP PUSH2 0xD98 JUMP JUMPDEST PUSH0 PUSH2 0x6F6 PUSH20 0xC03A2615D5EFAF5F49F60B7BB6583EAEC212FDF1 PUSH2 0x5FE JUMP JUMPDEST GT ISZERO PUSH2 0x797 JUMPI PUSH20 0xC03A2615D5EFAF5F49F60B7BB6583EAEC212FDF1 PUSH1 0x1 PUSH0 PUSH2 0x100 EXP DUP2 SLOAD DUP2 PUSH20 0xFFFFFFFFFFFFFFFFFFFFFFFFFFFFFFFFFFFFFFFF MUL NOT AND SWAP1 DUP4 PUSH20 0xFFFFFFFFFFFFFFFFFFFFFFFFFFFFFFFFFFFFFFFF AND MUL OR SWAP1 SSTORE POP PUSH2 0x78E PUSH1 0x40 MLOAD DUP1 PUSH1 0x40 ADD PUSH1 0x40 MSTORE DUP1 PUSH1 0xC DUP2 MSTORE PUSH1 0x20 ADD PUSH32 0x6574685F726F707374656E330000000000000000000000000000000000000000 DUP2 MSTORE POP PUSH2 0xD9B JUMP JUMPDEST PUSH1 0x1 SWAP1 POP PUSH2 0xD98 JUMP JUMPDEST PUSH0 PUSH2 0x7B5 PUSH20 0xB7A07BCF2BA2F2703B24C0691B5278999C59AC7E PUSH2 0x5FE JUMP JUMPDEST GT ISZERO PUSH2 0x856 JUMPI PUSH20 0xB7A07BCF2BA2F2703B24C0691B5278999C59AC7E PUSH1 0x1 PUSH0 PUSH2 0x100 EXP DUP2 SLOAD DUP2 PUSH20 0xFFFFFFFFFFFFFFFFFFFFFFFFFFFFFFFFFFFFFFFF MUL NOT AND SWAP1 DUP4 PUSH20 0xFFFFFFFFFFFFFFFFFFFFFFFFFFFFFFFFFFFFFFFF AND MUL OR SWAP1 SSTORE POP PUSH2 0x84D PUSH1 0x40 MLOAD DUP1 PUSH1 0x40 ADD PUSH1 0x40 MSTORE DUP1 PUSH1 0x9 DUP2 MSTORE PUSH1 0x20 ADD PUSH32 0x6574685F6B6F76616E0000000000000000000000000000000000000000000000 DUP2 MSTORE POP PUSH2 0xD9B JUMP JUMPDEST PUSH1 0x1 SWAP1 POP PUSH2 0xD98 JUMP JUMPDEST PUSH0 PUSH2 0x874 PUSH20 0x146500CFD35B22E4A392FE0ADC06DE1A1368ED48 PUSH2 0x5FE JUMP JUMPDEST GT ISZERO PUSH2 0x915 JUMPI PUSH20 0x146500CFD35B22E4A392FE0ADC06DE1A1368ED48 PUSH1 0x1 PUSH0 PUSH2 0x100 EXP DUP2 SLOAD DUP2 PUSH20 0xFFFFFFFFFFFFFFFFFFFFFFFFFFFFFFFFFFFFFFFF MUL NOT AND SWAP1 DUP4 PUSH20 0xFFFFFFFFFFFFFFFFFFFFFFFFFFFFFFFFFFFFFFFF AND MUL OR SWAP1 SSTORE POP PUSH2 0x90C PUSH1 0x40 MLOAD DUP1 PUSH1 0x40 ADD PUSH1 0x40 MSTORE DUP1 PUSH1 0xB DUP2 MSTORE PUSH1 0x20 ADD PUSH32 0x6574685F72696E6B656279000000000000000000000000000000000000000000 DUP2 MSTORE POP PUSH2 0xD9B JUMP JUMPDEST PUSH1 0x1 SWAP1 POP PUSH2 0xD98 JUMP JUMPDEST PUSH0 PUSH2 0x933 PUSH20 0xA2998EFD205FB9D4B4963AFB70778D6354AD3A41 PUSH2 0x5FE JUMP JUMPDEST GT ISZERO PUSH2 0x9D4 JUMPI PUSH20 0xA2998EFD205FB9D4B4963AFB70778D6354AD3A41 PUSH1 0x1 PUSH0 PUSH2 0x100 EXP DUP2 SLOAD DUP2 PUSH20 0xFFFFFFFFFFFFFFFFFFFFFFFFFFFFFFFFFFFFFFFF MUL NOT AND SWAP1 DUP4 PUSH20 0xFFFFFFFFFFFFFFFFFFFFFFFFFFFFFFFFFFFFFFFF AND MUL OR SWAP1 SSTORE POP PUSH2 0x9CB PUSH1 0x40 MLOAD DUP1 PUSH1 0x40 ADD PUSH1 0x40 MSTORE DUP1 PUSH1 0xA DUP2 MSTORE PUSH1 0x20 ADD PUSH32 0x6574685F676F65726C6900000000000000000000000000000000000000000000 DUP2 MSTORE POP PUSH2 0xD9B JUMP JUMPDEST PUSH1 0x1 SWAP1 POP PUSH2 0xD98 JUMP JUMPDEST PUSH0 PUSH2 0x9F2 PUSH20 0x90A0F94702C9630036FB9846B52BF31A1C991A84 PUSH2 0x5FE JUMP JUMPDEST GT ISZERO PUSH2 0xA93 JUMPI PUSH20 0x90A0F94702C9630036FB9846B52BF31A1C991A84 PUSH1 0x1 PUSH0 PUSH2 0x100 EXP DUP2 SLOAD DUP2 PUSH20 0xFFFFFFFFFFFFFFFFFFFFFFFFFFFFFFFFFFFFFFFF MUL NOT AND SWAP1 DUP4 PUSH20 0xFFFFFFFFFFFFFFFFFFFFFFFFFFFFFFFFFFFFFFFF AND MUL OR SWAP1 SSTORE POP PUSH2 0xA8A PUSH1 0x40 MLOAD DUP1 PUSH1 0x40 ADD PUSH1 0x40 MSTORE DUP1 PUSH1 0xB DUP2 MSTORE PUSH1 0x20 ADD PUSH32 0x6273635F6D61696E6E6574000000000000000000000000000000000000000000 DUP2 MSTORE POP PUSH2 0xD9B JUMP JUMPDEST PUSH1 0x1 SWAP1 POP PUSH2 0xD98 JUMP JUMPDEST PUSH0 PUSH2 0xAB1 PUSH20 0x816EC2AF1B56183F82F8C05759E99FEC3C3DE609 PUSH2 0x5FE JUMP JUMPDEST GT ISZERO PUSH2 0xB52 JUMPI PUSH20 0x816EC2AF1B56183F82F8C05759E99FEC3C3DE609 PUSH1 0x1 PUSH0 PUSH2 0x100 EXP DUP2 SLOAD DUP2 PUSH20 0xFFFFFFFFFFFFFFFFFFFFFFFFFFFFFFFFFFFFFFFF MUL NOT AND SWAP1 DUP4 PUSH20 0xFFFFFFFFFFFFFFFFFFFFFFFFFFFFFFFFFFFFFFFF AND MUL OR SWAP1 SSTORE POP PUSH2 0xB49 PUSH1 0x40 MLOAD DUP1 PUSH1 0x40 ADD PUSH1 0x40 MSTORE DUP1 PUSH1 0xF DUP2 MSTORE PUSH1 0x20 ADD PUSH32 0x706F6C79676F6E5F6D61696E6E65740000000000000000000000000000000000 DUP2 MSTORE POP PUSH2 0xD9B JUMP JUMPDEST PUSH1 0x1 SWAP1 POP PUSH2 0xD98 JUMP JUMPDEST PUSH0 PUSH2 0xB70 PUSH20 0x14B31A1C66A9F3D18DFAC2D123FE8CE5847B7F85 PUSH2 0x5FE JUMP JUMPDEST GT ISZERO PUSH2 0xC11 JUMPI PUSH20 0x14B31A1C66A9F3D18DFAC2D123FE8CE5847B7F85 PUSH1 0x1 PUSH0 PUSH2 0x100 EXP DUP2 SLOAD DUP2 PUSH20 0xFFFFFFFFFFFFFFFFFFFFFFFFFFFFFFFFFFFFFFFF MUL NOT AND SWAP1 DUP4 PUSH20 0xFFFFFFFFFFFFFFFFFFFFFFFFFFFFFFFFFFFFFFFF AND MUL OR SWAP1 SSTORE POP PUSH2 0xC08 PUSH1 0x40 MLOAD DUP1 PUSH1 0x40 ADD PUSH1 0x40 MSTORE DUP1 PUSH1 0xF DUP2 MSTORE PUSH1 0x20 ADD PUSH32 0x7365706F6C69615F6D61696E6E65740000000000000000000000000000000000 DUP2 MSTORE POP PUSH2 0xD9B JUMP JUMPDEST PUSH1 0x1 SWAP1 POP PUSH2 0xD98 JUMP JUMPDEST PUSH0 PUSH2 0xC2F PUSH20 0x6F485C8BF6FC43EA212E93BBF8CE046C7F1CB475 PUSH2 0x5FE JUMP JUMPDEST GT ISZERO PUSH2 0xC92 JUMPI PUSH20 0x6F485C8BF6FC43EA212E93BBF8CE046C7F1CB475 PUSH1 0x1 PUSH0 PUSH2 0x100 EXP DUP2 SLOAD DUP2 PUSH20 0xFFFFFFFFFFFFFFFFFFFFFFFFFFFFFFFFFFFFFFFF MUL NOT AND SWAP1 DUP4 PUSH20 0xFFFFFFFFFFFFFFFFFFFFFFFFFFFFFFFFFFFFFFFF AND MUL OR SWAP1 SSTORE POP PUSH1 0x1 SWAP1 POP PUSH2 0xD98 JUMP JUMPDEST PUSH0 PUSH2 0xCB0 PUSH20 0x20E12A1F859B3FEAE5FB2A0A32C18F5A65555BBF PUSH2 0x5FE JUMP JUMPDEST GT ISZERO PUSH2 0xD13 JUMPI PUSH20 0x20E12A1F859B3FEAE5FB2A0A32C18F5A65555BBF PUSH1 0x1 PUSH0 PUSH2 0x100 EXP DUP2 SLOAD DUP2 PUSH20 0xFFFFFFFFFFFFFFFFFFFFFFFFFFFFFFFFFFFFFFFF MUL NOT AND SWAP1 DUP4 PUSH20 0xFFFFFFFFFFFFFFFFFFFFFFFFFFFFFFFFFFFFFFFF AND MUL OR SWAP1 SSTORE POP PUSH1 0x1 SWAP1 POP PUSH2 0xD98 JUMP JUMPDEST PUSH0 PUSH2 0xD31 PUSH20 0x51EFAF4C8B3C9AFBD5AB9F4BBC82784AB6EF8FAA PUSH2 0x5FE JUMP JUMPDEST GT ISZERO PUSH2 0xD94 JUMPI PUSH20 0x51EFAF4C8B3C9AFBD5AB9F4BBC82784AB6EF8FAA PUSH1 0x1 PUSH0 PUSH2 0x100 EXP DUP2 SLOAD DUP2 PUSH20 0xFFFFFFFFFFFFFFFFFFFFFFFFFFFFFFFFFFFFFFFF MUL NOT AND SWAP1 DUP4 PUSH20 0xFFFFFFFFFFFFFFFFFFFFFFFFFFFFFFFFFFFFFFFF AND MUL OR SWAP1 SSTORE POP PUSH1 0x1 SWAP1 POP PUSH2 0xD98 JUMP JUMPDEST PUSH0 SWAP1 POP JUMPDEST SWAP1 JUMP JUMPDEST DUP1 PUSH1 0x2 SWAP1 DUP2 PUSH2 0xDAA SWAP2 SWAP1 PUSH2 0x1290 JUMP JUMPDEST POP POP JUMP JUMPDEST PUSH0 PUSH1 0x40 MLOAD SWAP1 POP SWAP1 JUMP JUMPDEST PUSH0 DUP1 REVERT JUMPDEST PUSH0 DUP1 REVERT JUMPDEST PUSH0 DUP2 SWAP1 POP SWAP2 SWAP1 POP JUMP JUMPDEST PUSH2 0xDD1 DUP2 PUSH2 0xDBF JUMP JUMPDEST DUP2 EQ PUSH2 0xDDB JUMPI PUSH0 DUP1 REVERT JUMPDEST POP JUMP JUMPDEST PUSH0 DUP2 CALLDATALOAD SWAP1 POP PUSH2 0xDEC DUP2 PUSH2 0xDC8 JUMP JUMPDEST SWAP3 SWAP2 POP POP JUMP JUMPDEST PUSH0 DUP1 REVERT JUMPDEST PUSH0 DUP1 REVERT JUMPDEST PUSH0 PUSH1 0x1F NOT PUSH1 0x1F DUP4 ADD AND SWAP1 POP SWAP2 SWAP1 POP JUMP JUMPDEST PUSH32 0x4E487B7100000000000000000000000000000000000000000000000000000000 PUSH0 MSTORE PUSH1 0x41 PUSH1 0x4 MSTORE PUSH1 0x24 PUSH0 REVERT JUMPDEST PUSH2 0xE40 DUP3 PUSH2 0xDFA JUMP JUMPDEST DUP2 ADD DUP2 DUP2 LT PUSH8 0xFFFFFFFFFFFFFFFF DUP3 GT OR ISZERO PUSH2 0xE5F JUMPI PUSH2 0xE5E PUSH2 0xE0A JUMP JUMPDEST JUMPDEST DUP1 PUSH1 0x40 MSTORE POP POP POP JUMP JUMPDEST PUSH0 PUSH2 0xE71 PUSH2 0xDAE JUMP JUMPDEST SWAP1 POP PUSH2 0xE7D DUP3 DUP3 PUSH2 0xE37 JUMP JUMPDEST SWAP2 SWAP1 POP JUMP JUMPDEST PUSH0 PUSH8 0xFFFFFFFFFFFFFFFF DUP3 GT ISZERO PUSH2 0xE9C JUMPI PUSH2 0xE9B PUSH2 0xE0A JUMP JUMPDEST JUMPDEST PUSH2 0xEA5 DUP3 PUSH2 0xDFA JUMP JUMPDEST SWAP1 POP PUSH1 0x20 DUP2 ADD SWAP1 POP SWAP2 SWAP1 POP JUMP JUMPDEST DUP3 DUP2 DUP4 CALLDATACOPY PUSH0 DUP4 DUP4 ADD MSTORE POP POP POP JUMP JUMPDEST PUSH0 PUSH2 0xED2 PUSH2 0xECD DUP5 PUSH2 0xE82 JUMP JUMPDEST PUSH2 0xE68 JUMP JUMPDEST SWAP1 POP DUP3 DUP2 MSTORE PUSH1 0x20 DUP2 ADD DUP5 DUP5 DUP5 ADD GT ISZERO PUSH2 0xEEE JUMPI PUSH2 0xEED PUSH2 0xDF6 JUMP JUMPDEST JUMPDEST PUSH2 0xEF9 DUP5 DUP3 DUP6 PUSH2 0xEB2 JUMP JUMPDEST POP SWAP4 SWAP3 POP POP POP JUMP JUMPDEST PUSH0 DUP3 PUSH1 0x1F DUP4 ADD SLT PUSH2 0xF15 JUMPI PUSH2 0xF14 PUSH2 0xDF2 JUMP JUMPDEST JUMPDEST DUP2 CALLDATALOAD PUSH2 0xF25 DUP5 DUP3 PUSH1 0x20 DUP7 ADD PUSH2 0xEC0 JUMP JUMPDEST SWAP2 POP POP SWAP3 SWAP2 POP POP JUMP JUMPDEST PUSH0 DUP1 PUSH1 0x40 DUP4 DUP6 SUB SLT ISZERO PUSH2 0xF44 JUMPI PUSH2 0xF43 PUSH2 0xDB7 JUMP JUMPDEST JUMPDEST PUSH0 PUSH2 0xF51 DUP6 DUP3 DUP7 ADD PUSH2 0xDDE JUMP JUMPDEST SWAP3 POP POP PUSH1 0x20 DUP4 ADD CALLDATALOAD PUSH8 0xFFFFFFFFFFFFFFFF DUP2 GT ISZERO PUSH2 0xF72 JUMPI PUSH2 0xF71 PUSH2 0xDBB JUMP JUMPDEST JUMPDEST PUSH2 0xF7E DUP6 DUP3 DUP7 ADD PUSH2 0xF01 JUMP JUMPDEST SWAP2 POP POP SWAP3 POP SWAP3 SWAP1 POP JUMP JUMPDEST PUSH0 DUP2 MLOAD SWAP1 POP SWAP2 SWAP1 POP JUMP JUMPDEST PUSH0 DUP3 DUP3 MSTORE PUSH1 0x20 DUP3 ADD SWAP1 POP SWAP3 SWAP2 POP POP JUMP JUMPDEST DUP3 DUP2 DUP4 MCOPY PUSH0 DUP4 DUP4 ADD MSTORE POP POP POP JUMP JUMPDEST PUSH0 PUSH2 0xFBA DUP3 PUSH2 0xF88 JUMP JUMPDEST PUSH2 0xFC4 DUP2 DUP6 PUSH2 0xF92 JUMP JUMPDEST SWAP4 POP PUSH2 0xFD4 DUP2 DUP6 PUSH1 0x20 DUP7 ADD PUSH2 0xFA2 JUMP JUMPDEST PUSH2 0xFDD DUP2 PUSH2 0xDFA JUMP JUMPDEST DUP5 ADD SWAP2 POP POP SWAP3 SWAP2 POP POP JUMP JUMPDEST PUSH0 PUSH1 0x20 DUP3 ADD SWAP1 POP DUP2 DUP2 SUB PUSH0 DUP4 ADD MSTORE PUSH2 0x1000 DUP2 DUP5 PUSH2 0xFB0 JUMP JUMPDEST SWAP1 POP SWAP3 SWAP2 POP POP JUMP JUMPDEST PUSH0 PUSH20 0xFFFFFFFFFFFFFFFFFFFFFFFFFFFFFFFFFFFFFFFF DUP3 AND SWAP1 POP SWAP2 SWAP1 POP JUMP JUMPDEST PUSH0 PUSH2 0x1031 DUP3 PUSH2 0x1008 JUMP JUMPDEST SWAP1 POP SWAP2 SWAP1 POP JUMP JUMPDEST PUSH2 0x1041 DUP2 PUSH2 0x1027 JUMP JUMPDEST DUP2 EQ PUSH2 0x104B JUMPI PUSH0 DUP1 REVERT JUMPDEST POP JUMP JUMPDEST PUSH0 DUP2 MLOAD SWAP1 POP PUSH2 0x105C DUP2 PUSH2 0x1038 JUMP JUMPDEST SWAP3 SWAP2 POP POP JUMP JUMPDEST PUSH0 PUSH1 0x20 DUP3 DUP5 SUB SLT ISZERO PUSH2 0x1077 JUMPI PUSH2 0x1076 PUSH2 0xDB7 JUMP JUMPDEST JUMPDEST PUSH0 PUSH2 0x1084 DUP5 DUP3 DUP6 ADD PUSH2 0x104E JUMP JUMPDEST SWAP2 POP POP SWAP3 SWAP2 POP POP JUMP JUMPDEST PUSH32 0x4E487B7100000000000000000000000000000000000000000000000000000000 PUSH0 MSTORE PUSH1 0x22 PUSH1 0x4 MSTORE PUSH1 0x24 PUSH0 REVERT JUMPDEST PUSH0 PUSH1 0x2 DUP3 DIV SWAP1 POP PUSH1 0x1 DUP3 AND DUP1 PUSH2 0x10D1 JUMPI PUSH1 0x7F DUP3 AND SWAP2 POP JUMPDEST PUSH1 0x20 DUP3 LT DUP2 SUB PUSH2 0x10E4 JUMPI PUSH2 0x10E3 PUSH2 0x108D JUMP JUMPDEST JUMPDEST POP SWAP2 SWAP1 POP JUMP JUMPDEST PUSH0 DUP2 SWAP1 POP DUP2 PUSH0 MSTORE PUSH1 0x20 PUSH0 KECCAK256 SWAP1 POP SWAP2 SWAP1 POP JUMP JUMPDEST PUSH0 PUSH1 0x20 PUSH1 0x1F DUP4 ADD DIV SWAP1 POP SWAP2 SWAP1 POP JUMP JUMPDEST PUSH0 DUP3 DUP3 SHL SWAP1 POP SWAP3 SWAP2 POP POP JUMP JUMPDEST PUSH0 PUSH1 0x8 DUP4 MUL PUSH2 0x1146 PUSH32 0xFFFFFFFFFFFFFFFFFFFFFFFFFFFFFFFFFFFFFFFFFFFFFFFFFFFFFFFFFFFFFFFF DUP3 PUSH2 0x110B JUMP JUMPDEST PUSH2 0x1150 DUP7 DUP4 PUSH2 0x110B JUMP JUMPDEST SWAP6 POP DUP1 NOT DUP5 AND SWAP4 POP DUP1 DUP7 AND DUP5 OR SWAP3 POP POP POP SWAP4 SWAP3 POP POP POP JUMP JUMPDEST PUSH0 DUP2 SWAP1 POP SWAP2 SWAP1 POP JUMP JUMPDEST PUSH0 DUP2 SWAP1 POP SWAP2 SWAP1 POP JUMP JUMPDEST PUSH0 PUSH2 0x1194 PUSH2 0x118F PUSH2 0x118A DUP5 PUSH2 0x1168 JUMP JUMPDEST PUSH2 0x1171 JUMP JUMPDEST PUSH2 0x1168 JUMP JUMPDEST SWAP1 POP SWAP2 SWAP1 POP JUMP JUMPDEST PUSH0 DUP2 SWAP1 POP SWAP2 SWAP1 POP JUMP JUMPDEST PUSH2 0x11AD DUP4 PUSH2 0x117A JUMP JUMPDEST PUSH2 0x11C1 PUSH2 0x11B9 DUP3 PUSH2 0x119B JUMP JUMPDEST DUP5 DUP5 SLOAD PUSH2 0x1117 JUMP JUMPDEST DUP3 SSTORE POP POP POP POP JUMP JUMPDEST PUSH0 SWAP1 JUMP JUMPDEST PUSH2 0x11D5 PUSH2 0x11C9 JUMP JUMPDEST PUSH2 0x11E0 DUP2 DUP5 DUP5 PUSH2 0x11A4 JUMP JUMPDEST POP POP POP JUMP JUMPDEST JUMPDEST DUP2 DUP2 LT ISZERO PUSH2 0x1203 JUMPI PUSH2 0x11F8 PUSH0 DUP3 PUSH2 0x11CD JUMP JUMPDEST PUSH1 0x1 DUP2 ADD SWAP1 POP PUSH2 0x11E6 JUMP JUMPDEST POP POP JUMP JUMPDEST PUSH1 0x1F DUP3 GT ISZERO PUSH2 0x1248 JUMPI PUSH2 0x1219 DUP2 PUSH2 0x10EA JUMP JUMPDEST PUSH2 0x1222 DUP5 PUSH2 0x10FC JUMP JUMPDEST DUP2 ADD PUSH1 0x20 DUP6 LT ISZERO PUSH2 0x1231 JUMPI DUP2 SWAP1 POP JUMPDEST PUSH2 0x1245 PUSH2 0x123D DUP6 PUSH2 0x10FC JUMP JUMPDEST DUP4 ADD DUP3 PUSH2 0x11E5 JUMP JUMPDEST POP POP JUMPDEST POP POP POP JUMP JUMPDEST PUSH0 DUP3 DUP3 SHR SWAP1 POP SWAP3 SWAP2 POP POP JUMP JUMPDEST PUSH0 PUSH2 0x1268 PUSH0 NOT DUP5 PUSH1 0x8 MUL PUSH2 0x124D JUMP JUMPDEST NOT DUP1 DUP4 AND SWAP2 POP POP SWAP3 SWAP2 POP POP JUMP JUMPDEST PUSH0 PUSH2 0x1280 DUP4 DUP4 PUSH2 0x1259 JUMP JUMPDEST SWAP2 POP DUP3 PUSH1 0x2 MUL DUP3 OR SWAP1 POP SWAP3 SWAP2 POP POP JUMP JUMPDEST PUSH2 0x1299 DUP3 PUSH2 0xF88 JUMP JUMPDEST PUSH8 0xFFFFFFFFFFFFFFFF DUP2 GT ISZERO PUSH2 0x12B2 JUMPI PUSH2 0x12B1 PUSH2 0xE0A JUMP JUMPDEST JUMPDEST PUSH2 0x12BC DUP3 SLOAD PUSH2 0x10BA JUMP JUMPDEST PUSH2 0x12C7 DUP3 DUP3 DUP6 PUSH2 0x1207 JUMP JUMPDEST PUSH0 PUSH1 0x20 SWAP1 POP PUSH1 0x1F DUP4 GT PUSH1 0x1 DUP2 EQ PUSH2 0x12F8 JUMPI PUSH0 DUP5 ISZERO PUSH2 0x12E6 JUMPI DUP3 DUP8 ADD MLOAD SWAP1 POP JUMPDEST PUSH2 0x12F0 DUP6 DUP3 PUSH2 0x1275 JUMP JUMPDEST DUP7 SSTORE POP PUSH2 0x1357 JUMP JUMPDEST PUSH1 0x1F NOT DUP5 AND PUSH2 0x1306 DUP7 PUSH2 0x10EA JUMP JUMPDEST PUSH0 JUMPDEST DUP3 DUP2 LT ISZERO PUSH2 0x132D JUMPI DUP5 DUP10 ADD MLOAD DUP3 SSTORE PUSH1 0x1 DUP3 ADD SWAP2 POP PUSH1 0x20 DUP6 ADD SWAP5 POP PUSH1 0x20 DUP2 ADD SWAP1 POP PUSH2 0x1308 JUMP JUMPDEST DUP7 DUP4 LT ISZERO PUSH2 0x134A JUMPI DUP5 DUP10 ADD MLOAD PUSH2 0x1346 PUSH1 0x1F DUP10 AND DUP3 PUSH2 0x1259 JUMP JUMPDEST DUP4 SSTORE POP JUMPDEST PUSH1 0x1 PUSH1 0x2 DUP9 MUL ADD DUP9 SSTORE POP POP POP JUMPDEST POP POP POP POP POP POP JUMP JUMPDEST PUSH2 0x1368 DUP2 PUSH2 0x1168 JUMP JUMPDEST DUP2 EQ PUSH2 0x1372 JUMPI PUSH0 DUP1 REVERT JUMPDEST POP JUMP JUMPDEST PUSH0 DUP2 MLOAD SWAP1 POP PUSH2 0x1383 DUP2 PUSH2 0x135F JUMP JUMPDEST SWAP3 SWAP2 POP POP JUMP JUMPDEST PUSH0 PUSH1 0x20 DUP3 DUP5 SUB SLT ISZERO PUSH2 0x139E JUMPI PUSH2 0x139D PUSH2 0xDB7 JUMP JUMPDEST JUMPDEST PUSH0 PUSH2 0x13AB DUP5 DUP3 DUP6 ADD PUSH2 0x1375 JUMP JUMPDEST SWAP2 POP POP SWAP3 SWAP2 POP POP JUMP JUMPDEST PUSH32 0x4E487B7100000000000000000000000000000000000000000000000000000000 PUSH0 MSTORE PUSH1 0x11 PUSH1 0x4 MSTORE PUSH1 0x24 PUSH0 REVERT JUMPDEST PUSH0 PUSH2 0x13EB DUP3 PUSH2 0x1168 JUMP JUMPDEST SWAP2 POP PUSH2 0x13F6 DUP4 PUSH2 0x1168 JUMP JUMPDEST SWAP3 POP DUP3 DUP3 MUL PUSH2 0x1404 DUP2 PUSH2 0x1168 JUMP JUMPDEST SWAP2 POP DUP3 DUP3 DIV DUP5 EQ DUP4 ISZERO OR PUSH2 0x141B JUMPI PUSH2 0x141A PUSH2 0x13B4 JUMP JUMPDEST JUMPDEST POP SWAP3 SWAP2 POP POP JUMP JUMPDEST PUSH0 PUSH2 0x142C DUP3 PUSH2 0x1168 JUMP JUMPDEST SWAP2 POP PUSH2 0x1437 DUP4 PUSH2 0x1168 JUMP JUMPDEST SWAP3 POP DUP3 DUP3 ADD SWAP1 POP DUP1 DUP3 GT ISZERO PUSH2 0x144F JUMPI PUSH2 0x144E PUSH2 0x13B4 JUMP JUMPDEST JUMPDEST SWAP3 SWAP2 POP POP JUMP JUMPDEST PUSH0 DUP2 SWAP1 POP SWAP2 SWAP1 POP JUMP JUMPDEST PUSH0 PUSH2 0x1478 PUSH2 0x1473 PUSH2 0x146E DUP5 PUSH2 0x1455 JUMP JUMPDEST PUSH2 0x1171 JUMP JUMPDEST PUSH2 0x1168 JUMP JUMPDEST SWAP1 POP SWAP2 SWAP1 POP JUMP JUMPDEST PUSH2 0x1488 DUP2 PUSH2 0x145E JUMP JUMPDEST DUP3 MSTORE POP POP JUMP JUMPDEST PUSH0 PUSH1 0x60 DUP3 ADD SWAP1 POP PUSH2 0x14A1 PUSH0 DUP4 ADD DUP7 PUSH2 0x147F JUMP JUMPDEST DUP2 DUP2 SUB PUSH1 0x20 DUP4 ADD MSTORE PUSH2 0x14B3 DUP2 DUP6 PUSH2 0xFB0 JUMP JUMPDEST SWAP1 POP DUP2 DUP2 SUB PUSH1 0x40 DUP4 ADD MSTORE PUSH2 0x14C7 DUP2 DUP5 PUSH2 0xFB0 JUMP JUMPDEST SWAP1 POP SWAP5 SWAP4 POP POP POP POP JUMP JUMPDEST PUSH0 DUP2 MLOAD SWAP1 POP PUSH2 0x14DF DUP2 PUSH2 0xDC8 JUMP JUMPDEST SWAP3 SWAP2 POP POP JUMP JUMPDEST PUSH0 PUSH1 0x20 DUP3 DUP5 SUB SLT ISZERO PUSH2 0x14FA JUMPI PUSH2 0x14F9 PUSH2 0xDB7 JUMP JUMPDEST JUMPDEST PUSH0 PUSH2 0x1507 DUP5 DUP3 DUP6 ADD PUSH2 0x14D1 JUMP JUMPDEST SWAP2 POP POP SWAP3 SWAP2 POP POP JUMP INVALID PUSH11 0x736F6E2868747470733A2F 0x2F PUSH14 0x696E2D6170692E63727970746F63 PUSH16 0x6D706172652E636F6D2F646174612F70 PUSH19 0x6963653F6673796D3D455448267473796D733D SSTORE MSTORE8 PREVRANDAO 0x29 0x2E SSTORE MSTORE8 PREVRANDAO LOG2 PUSH5 0x6970667358 0x22 SLT KECCAK256 0xD7 CALLCODE 0xF6 CHAINID SWAP14 PUSH5 0xD802C20B9F CODECOPY DUP2 0xB8 0xB5 XOR 0xD0 0x22 SWAP1 0x21 RETURNDATASIZE PUSH0 SWAP5 MCOPY 0xF8 CALLDATALOAD ORIGIN 0xCA ISZERO DUP16 ADD 0xA6 PUSH5 0x736F6C6343 STOP ADDMOD BYTE STOP CALLER "
				},
				"gasEstimates": {
					"creation": {
						"codeDepositCost": "1103800",
						"executionCost": "1145",
						"totalCost": "1104945"
					},
					"external": {
						"ETH()": "infinite",
						"__callback(bytes32,string)": "infinite",
						"getEthProce()": "infinite"
					}
				},
				"methodIdentifiers": {
					"ETH()": "8322fff2",
					"__callback(bytes32,string)": "27dc297e",
					"getEthProce()": "fbe39bcf"
				}
			},
			"storageLayout": {
				"storage": [
					{
						"astId": 746,
						"contract": "contracts/Orcal.sol:Orcale",
						"label": "provable",
						"offset": 0,
						"slot": "0",
						"type": "t_contract(ProvableI)162"
					},
					{
						"astId": 749,
						"contract": "contracts/Orcal.sol:Orcale",
						"label": "OAR",
						"offset": 0,
						"slot": "1",
						"type": "t_contract(OracleAddrResolverI)47"
					},
					{
						"astId": 794,
						"contract": "contracts/Orcal.sol:Orcale",
						"label": "provable_network_name",
						"offset": 0,
						"slot": "2",
						"type": "t_string_storage"
					},
					{
						"astId": 813,
						"contract": "contracts/Orcal.sol:Orcale",
						"label": "provable_randomDS_args",
						"offset": 0,
						"slot": "3",
						"type": "t_mapping(t_bytes32,t_bytes32)"
					},
					{
						"astId": 817,
						"contract": "contracts/Orcal.sol:Orcale",
						"label": "provable_randomDS_sessionKeysHashVerified",
						"offset": 0,
						"slot": "4",
						"type": "t_mapping(t_bytes32,t_bool)"
					},
					{
						"astId": 6,
						"contract": "contracts/Orcal.sol:Orcale",
						"label": "ETH",
						"offset": 0,
						"slot": "5",
						"type": "t_string_storage"
					}
				],
				"types": {
					"t_bool": {
						"encoding": "inplace",
						"label": "bool",
						"numberOfBytes": "1"
					},
					"t_bytes32": {
						"encoding": "inplace",
						"label": "bytes32",
						"numberOfBytes": "32"
					},
					"t_contract(OracleAddrResolverI)47": {
						"encoding": "inplace",
						"label": "contract OracleAddrResolverI",
						"numberOfBytes": "20"
					},
					"t_contract(ProvableI)162": {
						"encoding": "inplace",
						"label": "contract ProvableI",
						"numberOfBytes": "20"
					},
					"t_mapping(t_bytes32,t_bool)": {
						"encoding": "mapping",
						"key": "t_bytes32",
						"label": "mapping(bytes32 => bool)",
						"numberOfBytes": "32",
						"value": "t_bool"
					},
					"t_mapping(t_bytes32,t_bytes32)": {
						"encoding": "mapping",
						"key": "t_bytes32",
						"label": "mapping(bytes32 => bytes32)",
						"numberOfBytes": "32",
						"value": "t_bytes32"
					},
					"t_string_storage": {
						"encoding": "bytes",
						"label": "string",
						"numberOfBytes": "32"
					}
				}
			},
			"userdoc": {
				"kind": "user",
				"methods": {},
				"version": 1
			}
		}
	}
}