{
	"data": {
		"bytecode": {
			"linkReferences": {},
			"object": "608060405267016345785d8a0000600655670429d069189e00006007555f600860146101000a81548160ff02191690836002811115603e57603d6087565b5b02179055503360085f6101000a81548173ffffffffffffffffffffffffffffffffffffffff021916908373ffffffffffffffffffffffffffffffffffffffff16021790555060b4565b7f4e487b71000000000000000000000000000000000000000000000000000000005f52602160045260245ffd5b612155806100c15f395ff3fe6080604052600436106100dc575f3560e01c8063b7db908a1161007e578063e45dd66611610058578063e45dd6661461022a578063f203644a14610254578063fbe39bcf1461027e578063fd44510014610294576100dc565b8063b7db908a146101d6578063b8e53ae7146101ec578063be4a11fa14610214576100dc565b80638181502f116100ba5780638181502f1461014e5780638322fff2146101585780638da5cb5b14610182578063925b8148146101ac576100dc565b806327dc297e146100e0578063410085df146101085780634d9b373514610124575b5f80fd5b3480156100eb575f80fd5b5061010660048036038101906101019190611695565b61029e565b005b610122600480360381019061011d919061177c565b610375565b005b34801561012f575f80fd5b50610138610512565b60405161014591906117c9565b60405180910390f35b610156610519565b005b348015610163575f80fd5b5061016c610633565b6040516101799190611842565b60405180910390f35b34801561018d575f80fd5b506101966106bf565b6040516101a39190611871565b60405180910390f35b3480156101b7575f80fd5b506101c06106e4565b6040516101cd91906117c9565b60405180910390f35b3480156101e1575f80fd5b506101ea6106ea565b005b3480156101f7575f80fd5b50610212600480360381019061020d91906118ad565b61076d565b005b34801561021f575f80fd5b5061022861079a565b005b348015610235575f80fd5b5061023e61081e565b60405161024b919061194b565b60405180910390f35b34801561025f575f80fd5b50610268610831565b60405161027591906117c9565b60405180910390f35b348015610289575f80fd5b50610292610837565b005b61029c610891565b005b5f8054906101000a900473ffffffffffffffffffffffffffffffffffffffff1673ffffffffffffffffffffffffffffffffffffffff1663c281d19e6040518163ffffffff1660e01b81526004016020604051808303815f875af1158015610307573d5f803e3d5ffd5b505050506040513d601f19601f8201168201806040525081019061032b9190611978565b73ffffffffffffffffffffffffffffffffffffffff163373ffffffffffffffffffffffffffffffffffffffff1614610361575f80fd5b80600590816103709190611b9d565b505050565b815f73ffffffffffffffffffffffffffffffffffffffff168173ffffffffffffffffffffffffffffffffffffffff16036103e4576040517f08c379a00000000000000000000000000000000000000000000000000000000081526004016103db90611cb6565b60405180910390fd5b6006548214806103f5575060075482145b610434576040517f08c379a000000000000000000000000000000000000000000000000000000000815260040161042b90611d44565b60405180910390fd5b5f4790508281106104b6575f8473ffffffffffffffffffffffffffffffffffffffff168460405161046490611d8f565b5f6040518083038185875af1925050503d805f811461049e576040519150601f19603f3d011682016040523d82523d5f602084013e6104a3565b606091505b50509050806104b0575f80fd5b506104f1565b6040517f08c379a00000000000000000000000000000000000000000000000000000000081526004016104e890611ded565b60405180910390fd5b82816104fd9190611e38565b471461050c5761050b611e6b565b5b50505050565b5f47905090565b6007548034101561055f576040517f08c379a000000000000000000000000000000000000000000000000000000000815260040161055690611ee2565b60405180910390fd5b5f806002811115610573576105726118d8565b5b600860149054906101000a900460ff166002811115610595576105946118d8565b5b146105d5576040517f08c379a00000000000000000000000000000000000000000000000000000000081526004016105cc90611f4a565b60405180910390fd5b6105df600161076d565b3373ffffffffffffffffffffffffffffffffffffffff167f9e1ac5b8eeaf15c65411853c2e8ed509222e76a5a3b424cd53a633c1b27d6e5360075460405161062791906117c9565b60405180910390a25050565b60058054610640906119d0565b80601f016020809104026020016040519081016040528092919081815260200182805461066c906119d0565b80156106b75780601f1061068e576101008083540402835291602001916106b7565b820191905f5260205f20905b81548152906001019060200180831161069a57829003601f168201915b505050505081565b60085f9054906101000a900473ffffffffffffffffffffffffffffffffffffffff1681565b60075481565b60028060028111156106ff576106fe6118d8565b5b600860149054906101000a900460ff166002811115610721576107206118d8565b5b14610761576040517f08c379a000000000000000000000000000000000000000000000000000000000815260040161075890611f4a565b60405180910390fd5b61076a5f61076d565b50565b80600860146101000a81548160ff02191690836002811115610792576107916118d8565b5b021790555050565b60018060028111156107af576107ae6118d8565b5b600860149054906101000a900460ff1660028111156107d1576107d06118d8565b5b14610811576040517f08c379a000000000000000000000000000000000000000000000000000000000815260040161080890611f4a565b60405180910390fd5b61081b600261076d565b50565b600860149054906101000a900460ff1681565b60065481565b61088e6040518060400160405280600381526020017f55524c00000000000000000000000000000000000000000000000000000000008152506040518060800160405280604981526020016120d7604991396109ab565b50565b600654803410156108d7576040517f08c379a00000000000000000000000000000000000000000000000000000000081526004016108ce90611ee2565b60405180910390fd5b5f8060028111156108eb576108ea6118d8565b5b600860149054906101000a900460ff16600281111561090d5761090c6118d8565b5b1461094d576040517f08c379a000000000000000000000000000000000000000000000000000000000815260040161094490611f4a565b60405180910390fd5b610957600161076d565b3373ffffffffffffffffffffffffffffffffffffffff167f9e1ac5b8eeaf15c65411853c2e8ed509222e76a5a3b424cd53a633c1b27d6e5360065460405161099f91906117c9565b60405180910390a25050565b5f8073ffffffffffffffffffffffffffffffffffffffff1660015f9054906101000a900473ffffffffffffffffffffffffffffffffffffffff1673ffffffffffffffffffffffffffffffffffffffff161480610a2f57505f610a2d60015f9054906101000a900473ffffffffffffffffffffffffffffffffffffffff16610d65565b145b15610a3f57610a3d5f610d6f565b505b60015f9054906101000a900473ffffffffffffffffffffffffffffffffffffffff1673ffffffffffffffffffffffffffffffffffffffff166338cc48316040518163ffffffff1660e01b81526004016020604051808303815f875af1158015610aaa573d5f803e3d5ffd5b505050506040513d601f19601f82011682018060405250810190610ace9190611978565b73ffffffffffffffffffffffffffffffffffffffff165f8054906101000a900473ffffffffffffffffffffffffffffffffffffffff1673ffffffffffffffffffffffffffffffffffffffff1614610bed5760015f9054906101000a900473ffffffffffffffffffffffffffffffffffffffff1673ffffffffffffffffffffffffffffffffffffffff166338cc48316040518163ffffffff1660e01b81526004016020604051808303815f875af1158015610b8a573d5f803e3d5ffd5b505050506040513d601f19601f82011682018060405250810190610bae9190611978565b5f806101000a81548173ffffffffffffffffffffffffffffffffffffffff021916908373ffffffffffffffffffffffffffffffffffffffff1602179055505b5f805f9054906101000a900473ffffffffffffffffffffffffffffffffffffffff1673ffffffffffffffffffffffffffffffffffffffff1663524f3889856040518263ffffffff1660e01b8152600401610c479190611842565b6020604051808303815f875af1158015610c63573d5f803e3d5ffd5b505050506040513d601f19601f82011682018060405250810190610c879190611f7c565b905062030d403a610c989190611fa7565b670de0b6b3a7640000610cab9190611fe8565b811115610cbd575f801b915050610d5f565b5f8054906101000a900473ffffffffffffffffffffffffffffffffffffffff1673ffffffffffffffffffffffffffffffffffffffff1663adf59f99825f87876040518563ffffffff1660e01b8152600401610d1a93929190612054565b60206040518083038185885af1158015610d36573d5f803e3d5ffd5b50505050506040513d601f19601f82011682018060405250810190610d5b91906120ab565b9150505b92915050565b5f813b9050919050565b5f610d78610d7f565b9050919050565b5f80610d9e731d3b2638a7cc9f2cb3d298a3da7a90b67e5506ed610d65565b1115610e3f57731d3b2638a7cc9f2cb3d298a3da7a90b67e5506ed60015f6101000a81548173ffffffffffffffffffffffffffffffffffffffff021916908373ffffffffffffffffffffffffffffffffffffffff160217905550610e366040518060400160405280600b81526020017f6574685f6d61696e6e6574000000000000000000000000000000000000000000815250611502565b600190506114ff565b5f610e5d73c03a2615d5efaf5f49f60b7bb6583eaec212fdf1610d65565b1115610efe5773c03a2615d5efaf5f49f60b7bb6583eaec212fdf160015f6101000a81548173ffffffffffffffffffffffffffffffffffffffff021916908373ffffffffffffffffffffffffffffffffffffffff160217905550610ef56040518060400160405280600c81526020017f6574685f726f707374656e330000000000000000000000000000000000000000815250611502565b600190506114ff565b5f610f1c73b7a07bcf2ba2f2703b24c0691b5278999c59ac7e610d65565b1115610fbd5773b7a07bcf2ba2f2703b24c0691b5278999c59ac7e60015f6101000a81548173ffffffffffffffffffffffffffffffffffffffff021916908373ffffffffffffffffffffffffffffffffffffffff160217905550610fb46040518060400160405280600981526020017f6574685f6b6f76616e0000000000000000000000000000000000000000000000815250611502565b600190506114ff565b5f610fdb73146500cfd35b22e4a392fe0adc06de1a1368ed48610d65565b111561107c5773146500cfd35b22e4a392fe0adc06de1a1368ed4860015f6101000a81548173ffffffffffffffffffffffffffffffffffffffff021916908373ffffffffffffffffffffffffffffffffffffffff1602179055506110736040518060400160405280600b81526020017f6574685f72696e6b656279000000000000000000000000000000000000000000815250611502565b600190506114ff565b5f61109a73a2998efd205fb9d4b4963afb70778d6354ad3a41610d65565b111561113b5773a2998efd205fb9d4b4963afb70778d6354ad3a4160015f6101000a81548173ffffffffffffffffffffffffffffffffffffffff021916908373ffffffffffffffffffffffffffffffffffffffff1602179055506111326040518060400160405280600a81526020017f6574685f676f65726c6900000000000000000000000000000000000000000000815250611502565b600190506114ff565b5f6111597390a0f94702c9630036fb9846b52bf31a1c991a84610d65565b11156111fa577390a0f94702c9630036fb9846b52bf31a1c991a8460015f6101000a81548173ffffffffffffffffffffffffffffffffffffffff021916908373ffffffffffffffffffffffffffffffffffffffff1602179055506111f16040518060400160405280600b81526020017f6273635f6d61696e6e6574000000000000000000000000000000000000000000815250611502565b600190506114ff565b5f61121873816ec2af1b56183f82f8c05759e99fec3c3de609610d65565b11156112b95773816ec2af1b56183f82f8c05759e99fec3c3de60960015f6101000a81548173ffffffffffffffffffffffffffffffffffffffff021916908373ffffffffffffffffffffffffffffffffffffffff1602179055506112b06040518060400160405280600f81526020017f706f6c79676f6e5f6d61696e6e65740000000000000000000000000000000000815250611502565b600190506114ff565b5f6112d77314b31a1c66a9f3d18dfac2d123fe8ce5847b7f85610d65565b1115611378577314b31a1c66a9f3d18dfac2d123fe8ce5847b7f8560015f6101000a81548173ffffffffffffffffffffffffffffffffffffffff021916908373ffffffffffffffffffffffffffffffffffffffff16021790555061136f6040518060400160405280600f81526020017f7365706f6c69615f6d61696e6e65740000000000000000000000000000000000815250611502565b600190506114ff565b5f611396736f485c8bf6fc43ea212e93bbf8ce046c7f1cb475610d65565b11156113f957736f485c8bf6fc43ea212e93bbf8ce046c7f1cb47560015f6101000a81548173ffffffffffffffffffffffffffffffffffffffff021916908373ffffffffffffffffffffffffffffffffffffffff160217905550600190506114ff565b5f6114177320e12a1f859b3feae5fb2a0a32c18f5a65555bbf610d65565b111561147a577320e12a1f859b3feae5fb2a0a32c18f5a65555bbf60015f6101000a81548173ffffffffffffffffffffffffffffffffffffffff021916908373ffffffffffffffffffffffffffffffffffffffff160217905550600190506114ff565b5f6114987351efaf4c8b3c9afbd5ab9f4bbc82784ab6ef8faa610d65565b11156114fb577351efaf4c8b3c9afbd5ab9f4bbc82784ab6ef8faa60015f6101000a81548173ffffffffffffffffffffffffffffffffffffffff021916908373ffffffffffffffffffffffffffffffffffffffff160217905550600190506114ff565b5f90505b90565b80600290816115119190611b9d565b5050565b5f604051905090565b5f80fd5b5f80fd5b5f819050919050565b61153881611526565b8114611542575f80fd5b50565b5f813590506115538161152f565b92915050565b5f80fd5b5f80fd5b5f601f19601f8301169050919050565b7f4e487b71000000000000000000000000000000000000000000000000000000005f52604160045260245ffd5b6115a782611561565b810181811067ffffffffffffffff821117156115c6576115c5611571565b5b80604052505050565b5f6115d8611515565b90506115e4828261159e565b919050565b5f67ffffffffffffffff82111561160357611602611571565b5b61160c82611561565b9050602081019050919050565b828183375f83830152505050565b5f611639611634846115e9565b6115cf565b9050828152602081018484840111156116555761165461155d565b5b611660848285611619565b509392505050565b5f82601f83011261167c5761167b611559565b5b813561168c848260208601611627565b91505092915050565b5f80604083850312156116ab576116aa61151e565b5b5f6116b885828601611545565b925050602083013567ffffffffffffffff8111156116d9576116d8611522565b5b6116e585828601611668565b9150509250929050565b5f73ffffffffffffffffffffffffffffffffffffffff82169050919050565b5f611718826116ef565b9050919050565b6117288161170e565b8114611732575f80fd5b50565b5f813590506117438161171f565b92915050565b5f819050919050565b61175b81611749565b8114611765575f80fd5b50565b5f8135905061177681611752565b92915050565b5f80604083850312156117925761179161151e565b5b5f61179f85828601611735565b92505060206117b085828601611768565b9150509250929050565b6117c381611749565b82525050565b5f6020820190506117dc5f8301846117ba565b92915050565b5f81519050919050565b5f82825260208201905092915050565b8281835e5f83830152505050565b5f611814826117e2565b61181e81856117ec565b935061182e8185602086016117fc565b61183781611561565b840191505092915050565b5f6020820190508181035f83015261185a818461180a565b905092915050565b61186b8161170e565b82525050565b5f6020820190506118845f830184611862565b92915050565b60038110611896575f80fd5b50565b5f813590506118a78161188a565b92915050565b5f602082840312156118c2576118c161151e565b5b5f6118cf84828501611899565b91505092915050565b7f4e487b71000000000000000000000000000000000000000000000000000000005f52602160045260245ffd5b60038110611916576119156118d8565b5b50565b5f81905061192682611905565b919050565b5f61193582611919565b9050919050565b6119458161192b565b82525050565b5f60208201905061195e5f83018461193c565b92915050565b5f815190506119728161171f565b92915050565b5f6020828403121561198d5761198c61151e565b5b5f61199a84828501611964565b91505092915050565b7f4e487b71000000000000000000000000000000000000000000000000000000005f52602260045260245ffd5b5f60028204905060018216806119e757607f821691505b6020821081036119fa576119f96119a3565b5b50919050565b5f819050815f5260205f209050919050565b5f6020601f8301049050919050565b5f82821b905092915050565b5f60088302611a5c7fffffffffffffffffffffffffffffffffffffffffffffffffffffffffffffffff82611a21565b611a668683611a21565b95508019841693508086168417925050509392505050565b5f819050919050565b5f611aa1611a9c611a9784611749565b611a7e565b611749565b9050919050565b5f819050919050565b611aba83611a87565b611ace611ac682611aa8565b848454611a2d565b825550505050565b5f90565b611ae2611ad6565b611aed818484611ab1565b505050565b5b81811015611b1057611b055f82611ada565b600181019050611af3565b5050565b601f821115611b5557611b2681611a00565b611b2f84611a12565b81016020851015611b3e578190505b611b52611b4a85611a12565b830182611af2565b50505b505050565b5f82821c905092915050565b5f611b755f1984600802611b5a565b1980831691505092915050565b5f611b8d8383611b66565b9150826002028217905092915050565b611ba6826117e2565b67ffffffffffffffff811115611bbf57611bbe611571565b5b611bc982546119d0565b611bd4828285611b14565b5f60209050601f831160018114611c05575f8415611bf3578287015190505b611bfd8582611b82565b865550611c64565b601f198416611c1386611a00565b5f5b82811015611c3a57848901518255600182019150602085019450602081019050611c15565b86831015611c575784890151611c53601f891682611b66565b8355505b6001600288020188555050505b505050505050565b7f496e76616c6964206164647265737300000000000000000000000000000000005f82015250565b5f611ca0600f836117ec565b9150611cab82611c6c565b602082019050919050565b5f6020820190508181035f830152611ccd81611c94565b9050919050565b7f596f752061726520747279696e6720726566756e64207468652077726f6e67205f8201527f616d6f756e742100000000000000000000000000000000000000000000000000602082015250565b5f611d2e6027836117ec565b9150611d3982611cd4565b604082019050919050565b5f6020820190508181035f830152611d5b81611d22565b9050919050565b5f81905092915050565b50565b5f611d7a5f83611d62565b9150611d8582611d6c565b5f82019050919050565b5f611d9982611d6f565b9150819050919050565b7f4e6f7420656e6f7567682066756e6473000000000000000000000000000000005f82015250565b5f611dd76010836117ec565b9150611de282611da3565b602082019050919050565b5f6020820190508181035f830152611e0481611dcb565b9050919050565b7f4e487b71000000000000000000000000000000000000000000000000000000005f52601160045260245ffd5b5f611e4282611749565b9150611e4d83611749565b9250828203905081811115611e6557611e64611e0b565b5b92915050565b7f4e487b71000000000000000000000000000000000000000000000000000000005f52600160045260245ffd5b7f5468652062757267657220636f7374206d6f72652100000000000000000000005f82015250565b5f611ecc6015836117ec565b9150611ed782611e98565b602082019050919050565b5f6020820190508181035f830152611ef981611ec0565b9050919050565b7f4e6f7420696e20636f72726563742073746167652e00000000000000000000005f82015250565b5f611f346015836117ec565b9150611f3f82611f00565b602082019050919050565b5f6020820190508181035f830152611f6181611f28565b9050919050565b5f81519050611f7681611752565b92915050565b5f60208284031215611f9157611f9061151e565b5b5f611f9e84828501611f68565b91505092915050565b5f611fb182611749565b9150611fbc83611749565b9250828202611fca81611749565b91508282048414831517611fe157611fe0611e0b565b5b5092915050565b5f611ff282611749565b9150611ffd83611749565b925082820190508082111561201557612014611e0b565b5b92915050565b5f819050919050565b5f61203e6120396120348461201b565b611a7e565b611749565b9050919050565b61204e81612024565b82525050565b5f6060820190506120675f830186612045565b8181036020830152612079818561180a565b9050818103604083015261208d818461180a565b9050949350505050565b5f815190506120a58161152f565b92915050565b5f602082840312156120c0576120bf61151e565b5b5f6120cd84828501612097565b9150509291505056fe6a736f6e2868747470733a2f2f6d696e2d6170692e63727970746f636f6d706172652e636f6d2f646174612f70726963653f6673796d3d455448267473796d733d555344292e555344a26469706673582212205ad2dd780b48b48702c1a6be14a661cdbbf19a4242800d46945175ddbf8ce20664736f6c634300081a0033",
			"opcodes": "PUSH1 0x80 PUSH1 0x40 MSTORE PUSH8 0x16345785D8A0000 PUSH1 0x6 SSTORE PUSH8 0x429D069189E0000 PUSH1 0x7 SSTORE PUSH0 PUSH1 0x8 PUSH1 0x14 PUSH2 0x100 EXP DUP2 SLOAD DUP2 PUSH1 0xFF MUL NOT AND SWAP1 DUP4 PUSH1 0x2 DUP2 GT ISZERO PUSH1 0x3E JUMPI PUSH1 0x3D PUSH1 0x87 JUMP JUMPDEST JUMPDEST MUL OR SWAP1 SSTORE POP CALLER PUSH1 0x8 PUSH0 PUSH2 0x100 EXP DUP2 SLOAD DUP2 PUSH20 0xFFFFFFFFFFFFFFFFFFFFFFFFFFFFFFFFFFFFFFFF MUL NOT AND SWAP1 DUP4 PUSH20 0xFFFFFFFFFFFFFFFFFFFFFFFFFFFFFFFFFFFFFFFF AND MUL OR SWAP1 SSTORE POP PUSH1 0xB4 JUMP JUMPDEST PUSH32 0x4E487B7100000000000000000000000000000000000000000000000000000000 PUSH0 MSTORE PUSH1 0x21 PUSH1 0x4 MSTORE PUSH1 0x24 PUSH0 REVERT JUMPDEST PUSH2 0x2155 DUP1 PUSH2 0xC1 PUSH0 CODECOPY PUSH0 RETURN INVALID PUSH1 0x80 PUSH1 0x40 MSTORE PUSH1 0x4 CALLDATASIZE LT PUSH2 0xDC JUMPI PUSH0 CALLDATALOAD PUSH1 0xE0 SHR DUP1 PUSH4 0xB7DB908A GT PUSH2 0x7E JUMPI DUP1 PUSH4 0xE45DD666 GT PUSH2 0x58 JUMPI DUP1 PUSH4 0xE45DD666 EQ PUSH2 0x22A JUMPI DUP1 PUSH4 0xF203644A EQ PUSH2 0x254 JUMPI DUP1 PUSH4 0xFBE39BCF EQ PUSH2 0x27E JUMPI DUP1 PUSH4 0xFD445100 EQ PUSH2 0x294 JUMPI PUSH2 0xDC JUMP JUMPDEST DUP1 PUSH4 0xB7DB908A EQ PUSH2 0x1D6 JUMPI DUP1 PUSH4 0xB8E53AE7 EQ PUSH2 0x1EC JUMPI DUP1 PUSH4 0xBE4A11FA EQ PUSH2 0x214 JUMPI PUSH2 0xDC JUMP JUMPDEST DUP1 PUSH4 0x8181502F GT PUSH2 0xBA JUMPI DUP1 PUSH4 0x8181502F EQ PUSH2 0x14E JUMPI DUP1 PUSH4 0x8322FFF2 EQ PUSH2 0x158 JUMPI DUP1 PUSH4 0x8DA5CB5B EQ PUSH2 0x182 JUMPI DUP1 PUSH4 0x925B8148 EQ PUSH2 0x1AC JUMPI PUSH2 0xDC JUMP JUMPDEST DUP1 PUSH4 0x27DC297E EQ PUSH2 0xE0 JUMPI DUP1 PUSH4 0x410085DF EQ PUSH2 0x108 JUMPI DUP1 PUSH4 0x4D9B3735 EQ PUSH2 0x124 JUMPI JUMPDEST PUSH0 DUP1 REVERT JUMPDEST CALLVALUE DUP1 ISZERO PUSH2 0xEB JUMPI PUSH0 DUP1 REVERT JUMPDEST POP PUSH2 0x106 PUSH1 0x4 DUP1 CALLDATASIZE SUB DUP2 ADD SWAP1 PUSH2 0x101 SWAP2 SWAP1 PUSH2 0x1695 JUMP JUMPDEST PUSH2 0x29E JUMP JUMPDEST STOP JUMPDEST PUSH2 0x122 PUSH1 0x4 DUP1 CALLDATASIZE SUB DUP2 ADD SWAP1 PUSH2 0x11D SWAP2 SWAP1 PUSH2 0x177C JUMP JUMPDEST PUSH2 0x375 JUMP JUMPDEST STOP JUMPDEST CALLVALUE DUP1 ISZERO PUSH2 0x12F JUMPI PUSH0 DUP1 REVERT JUMPDEST POP PUSH2 0x138 PUSH2 0x512 JUMP JUMPDEST PUSH1 0x40 MLOAD PUSH2 0x145 SWAP2 SWAP1 PUSH2 0x17C9 JUMP JUMPDEST PUSH1 0x40 MLOAD DUP1 SWAP2 SUB SWAP1 RETURN JUMPDEST PUSH2 0x156 PUSH2 0x519 JUMP JUMPDEST STOP JUMPDEST CALLVALUE DUP1 ISZERO PUSH2 0x163 JUMPI PUSH0 DUP1 REVERT JUMPDEST POP PUSH2 0x16C PUSH2 0x633 JUMP JUMPDEST PUSH1 0x40 MLOAD PUSH2 0x179 SWAP2 SWAP1 PUSH2 0x1842 JUMP JUMPDEST PUSH1 0x40 MLOAD DUP1 SWAP2 SUB SWAP1 RETURN JUMPDEST CALLVALUE DUP1 ISZERO PUSH2 0x18D JUMPI PUSH0 DUP1 REVERT JUMPDEST POP PUSH2 0x196 PUSH2 0x6BF JUMP JUMPDEST PUSH1 0x40 MLOAD PUSH2 0x1A3 SWAP2 SWAP1 PUSH2 0x1871 JUMP JUMPDEST PUSH1 0x40 MLOAD DUP1 SWAP2 SUB SWAP1 RETURN JUMPDEST CALLVALUE DUP1 ISZERO PUSH2 0x1B7 JUMPI PUSH0 DUP1 REVERT JUMPDEST POP PUSH2 0x1C0 PUSH2 0x6E4 JUMP JUMPDEST PUSH1 0x40 MLOAD PUSH2 0x1CD SWAP2 SWAP1 PUSH2 0x17C9 JUMP JUMPDEST PUSH1 0x40 MLOAD DUP1 SWAP2 SUB SWAP1 RETURN JUMPDEST CALLVALUE DUP1 ISZERO PUSH2 0x1E1 JUMPI PUSH0 DUP1 REVERT JUMPDEST POP PUSH2 0x1EA PUSH2 0x6EA JUMP JUMPDEST STOP JUMPDEST CALLVALUE DUP1 ISZERO PUSH2 0x1F7 JUMPI PUSH0 DUP1 REVERT JUMPDEST POP PUSH2 0x212 PUSH1 0x4 DUP1 CALLDATASIZE SUB DUP2 ADD SWAP1 PUSH2 0x20D SWAP2 SWAP1 PUSH2 0x18AD JUMP JUMPDEST PUSH2 0x76D JUMP JUMPDEST STOP JUMPDEST CALLVALUE DUP1 ISZERO PUSH2 0x21F JUMPI PUSH0 DUP1 REVERT JUMPDEST POP PUSH2 0x228 PUSH2 0x79A JUMP JUMPDEST STOP JUMPDEST CALLVALUE DUP1 ISZERO PUSH2 0x235 JUMPI PUSH0 DUP1 REVERT JUMPDEST POP PUSH2 0x23E PUSH2 0x81E JUMP JUMPDEST PUSH1 0x40 MLOAD PUSH2 0x24B SWAP2 SWAP1 PUSH2 0x194B JUMP JUMPDEST PUSH1 0x40 MLOAD DUP1 SWAP2 SUB SWAP1 RETURN JUMPDEST CALLVALUE DUP1 ISZERO PUSH2 0x25F JUMPI PUSH0 DUP1 REVERT JUMPDEST POP PUSH2 0x268 PUSH2 0x831 JUMP JUMPDEST PUSH1 0x40 MLOAD PUSH2 0x275 SWAP2 SWAP1 PUSH2 0x17C9 JUMP JUMPDEST PUSH1 0x40 MLOAD DUP1 SWAP2 SUB SWAP1 RETURN JUMPDEST CALLVALUE DUP1 ISZERO PUSH2 0x289 JUMPI PUSH0 DUP1 REVERT JUMPDEST POP PUSH2 0x292 PUSH2 0x837 JUMP JUMPDEST STOP JUMPDEST PUSH2 0x29C PUSH2 0x891 JUMP JUMPDEST STOP JUMPDEST PUSH0 DUP1 SLOAD SWAP1 PUSH2 0x100 EXP SWAP1 DIV PUSH20 0xFFFFFFFFFFFFFFFFFFFFFFFFFFFFFFFFFFFFFFFF AND PUSH20 0xFFFFFFFFFFFFFFFFFFFFFFFFFFFFFFFFFFFFFFFF AND PUSH4 0xC281D19E PUSH1 0x40 MLOAD DUP2 PUSH4 0xFFFFFFFF AND PUSH1 0xE0 SHL DUP2 MSTORE PUSH1 0x4 ADD PUSH1 0x20 PUSH1 0x40 MLOAD DUP1 DUP4 SUB DUP2 PUSH0 DUP8 GAS CALL ISZERO DUP1 ISZERO PUSH2 0x307 JUMPI RETURNDATASIZE PUSH0 DUP1 RETURNDATACOPY RETURNDATASIZE PUSH0 REVERT JUMPDEST POP POP POP POP PUSH1 0x40 MLOAD RETURNDATASIZE PUSH1 0x1F NOT PUSH1 0x1F DUP3 ADD AND DUP3 ADD DUP1 PUSH1 0x40 MSTORE POP DUP2 ADD SWAP1 PUSH2 0x32B SWAP2 SWAP1 PUSH2 0x1978 JUMP JUMPDEST PUSH20 0xFFFFFFFFFFFFFFFFFFFFFFFFFFFFFFFFFFFFFFFF AND CALLER PUSH20 0xFFFFFFFFFFFFFFFFFFFFFFFFFFFFFFFFFFFFFFFF AND EQ PUSH2 0x361 JUMPI PUSH0 DUP1 REVERT JUMPDEST DUP1 PUSH1 0x5 SWAP1 DUP2 PUSH2 0x370 SWAP2 SWAP1 PUSH2 0x1B9D JUMP JUMPDEST POP POP POP JUMP JUMPDEST DUP2 PUSH0 PUSH20 0xFFFFFFFFFFFFFFFFFFFFFFFFFFFFFFFFFFFFFFFF AND DUP2 PUSH20 0xFFFFFFFFFFFFFFFFFFFFFFFFFFFFFFFFFFFFFFFF AND SUB PUSH2 0x3E4 JUMPI PUSH1 0x40 MLOAD PUSH32 0x8C379A000000000000000000000000000000000000000000000000000000000 DUP2 MSTORE PUSH1 0x4 ADD PUSH2 0x3DB SWAP1 PUSH2 0x1CB6 JUMP JUMPDEST PUSH1 0x40 MLOAD DUP1 SWAP2 SUB SWAP1 REVERT JUMPDEST PUSH1 0x6 SLOAD DUP3 EQ DUP1 PUSH2 0x3F5 JUMPI POP PUSH1 0x7 SLOAD DUP3 EQ JUMPDEST PUSH2 0x434 JUMPI PUSH1 0x40 MLOAD PUSH32 0x8C379A000000000000000000000000000000000000000000000000000000000 DUP2 MSTORE PUSH1 0x4 ADD PUSH2 0x42B SWAP1 PUSH2 0x1D44 JUMP JUMPDEST PUSH1 0x40 MLOAD DUP1 SWAP2 SUB SWAP1 REVERT JUMPDEST PUSH0 SELFBALANCE SWAP1 POP DUP3 DUP2 LT PUSH2 0x4B6 JUMPI PUSH0 DUP5 PUSH20 0xFFFFFFFFFFFFFFFFFFFFFFFFFFFFFFFFFFFFFFFF AND DUP5 PUSH1 0x40 MLOAD PUSH2 0x464 SWAP1 PUSH2 0x1D8F JUMP JUMPDEST PUSH0 PUSH1 0x40 MLOAD DUP1 DUP4 SUB DUP2 DUP6 DUP8 GAS CALL SWAP3 POP POP POP RETURNDATASIZE DUP1 PUSH0 DUP2 EQ PUSH2 0x49E JUMPI PUSH1 0x40 MLOAD SWAP2 POP PUSH1 0x1F NOT PUSH1 0x3F RETURNDATASIZE ADD AND DUP3 ADD PUSH1 0x40 MSTORE RETURNDATASIZE DUP3 MSTORE RETURNDATASIZE PUSH0 PUSH1 0x20 DUP5 ADD RETURNDATACOPY PUSH2 0x4A3 JUMP JUMPDEST PUSH1 0x60 SWAP2 POP JUMPDEST POP POP SWAP1 POP DUP1 PUSH2 0x4B0 JUMPI PUSH0 DUP1 REVERT JUMPDEST POP PUSH2 0x4F1 JUMP JUMPDEST PUSH1 0x40 MLOAD PUSH32 0x8C379A000000000000000000000000000000000000000000000000000000000 DUP2 MSTORE PUSH1 0x4 ADD PUSH2 0x4E8 SWAP1 PUSH2 0x1DED JUMP JUMPDEST PUSH1 0x40 MLOAD DUP1 SWAP2 SUB SWAP1 REVERT JUMPDEST DUP3 DUP2 PUSH2 0x4FD SWAP2 SWAP1 PUSH2 0x1E38 JUMP JUMPDEST SELFBALANCE EQ PUSH2 0x50C JUMPI PUSH2 0x50B PUSH2 0x1E6B JUMP JUMPDEST JUMPDEST POP POP POP POP JUMP JUMPDEST PUSH0 SELFBALANCE SWAP1 POP SWAP1 JUMP JUMPDEST PUSH1 0x7 SLOAD DUP1 CALLVALUE LT ISZERO PUSH2 0x55F JUMPI PUSH1 0x40 MLOAD PUSH32 0x8C379A000000000000000000000000000000000000000000000000000000000 DUP2 MSTORE PUSH1 0x4 ADD PUSH2 0x556 SWAP1 PUSH2 0x1EE2 JUMP JUMPDEST PUSH1 0x40 MLOAD DUP1 SWAP2 SUB SWAP1 REVERT JUMPDEST PUSH0 DUP1 PUSH1 0x2 DUP2 GT ISZERO PUSH2 0x573 JUMPI PUSH2 0x572 PUSH2 0x18D8 JUMP JUMPDEST JUMPDEST PUSH1 0x8 PUSH1 0x14 SWAP1 SLOAD SWAP1 PUSH2 0x100 EXP SWAP1 DIV PUSH1 0xFF AND PUSH1 0x2 DUP2 GT ISZERO PUSH2 0x595 JUMPI PUSH2 0x594 PUSH2 0x18D8 JUMP JUMPDEST JUMPDEST EQ PUSH2 0x5D5 JUMPI PUSH1 0x40 MLOAD PUSH32 0x8C379A000000000000000000000000000000000000000000000000000000000 DUP2 MSTORE PUSH1 0x4 ADD PUSH2 0x5CC SWAP1 PUSH2 0x1F4A JUMP JUMPDEST PUSH1 0x40 MLOAD DUP1 SWAP2 SUB SWAP1 REVERT JUMPDEST PUSH2 0x5DF PUSH1 0x1 PUSH2 0x76D JUMP JUMPDEST CALLER PUSH20 0xFFFFFFFFFFFFFFFFFFFFFFFFFFFFFFFFFFFFFFFF AND PUSH32 0x9E1AC5B8EEAF15C65411853C2E8ED509222E76A5A3B424CD53A633C1B27D6E53 PUSH1 0x7 SLOAD PUSH1 0x40 MLOAD PUSH2 0x627 SWAP2 SWAP1 PUSH2 0x17C9 JUMP JUMPDEST PUSH1 0x40 MLOAD DUP1 SWAP2 SUB SWAP1 LOG2 POP POP JUMP JUMPDEST PUSH1 0x5 DUP1 SLOAD PUSH2 0x640 SWAP1 PUSH2 0x19D0 JUMP JUMPDEST DUP1 PUSH1 0x1F ADD PUSH1 0x20 DUP1 SWAP2 DIV MUL PUSH1 0x20 ADD PUSH1 0x40 MLOAD SWAP1 DUP2 ADD PUSH1 0x40 MSTORE DUP1 SWAP3 SWAP2 SWAP1 DUP2 DUP2 MSTORE PUSH1 0x20 ADD DUP3 DUP1 SLOAD PUSH2 0x66C SWAP1 PUSH2 0x19D0 JUMP JUMPDEST DUP1 ISZERO PUSH2 0x6B7 JUMPI DUP1 PUSH1 0x1F LT PUSH2 0x68E JUMPI PUSH2 0x100 DUP1 DUP4 SLOAD DIV MUL DUP4 MSTORE SWAP2 PUSH1 0x20 ADD SWAP2 PUSH2 0x6B7 JUMP JUMPDEST DUP3 ADD SWAP2 SWAP1 PUSH0 MSTORE PUSH1 0x20 PUSH0 KECCAK256 SWAP1 JUMPDEST DUP2 SLOAD DUP2 MSTORE SWAP1 PUSH1 0x1 ADD SWAP1 PUSH1 0x20 ADD DUP1 DUP4 GT PUSH2 0x69A JUMPI DUP3 SWAP1 SUB PUSH1 0x1F AND DUP3 ADD SWAP2 JUMPDEST POP POP POP POP POP DUP2 JUMP JUMPDEST PUSH1 0x8 PUSH0 SWAP1 SLOAD SWAP1 PUSH2 0x100 EXP SWAP1 DIV PUSH20 0xFFFFFFFFFFFFFFFFFFFFFFFFFFFFFFFFFFFFFFFF AND DUP2 JUMP JUMPDEST PUSH1 0x7 SLOAD DUP2 JUMP JUMPDEST PUSH1 0x2 DUP1 PUSH1 0x2 DUP2 GT ISZERO PUSH2 0x6FF JUMPI PUSH2 0x6FE PUSH2 0x18D8 JUMP JUMPDEST JUMPDEST PUSH1 0x8 PUSH1 0x14 SWAP1 SLOAD SWAP1 PUSH2 0x100 EXP SWAP1 DIV PUSH1 0xFF AND PUSH1 0x2 DUP2 GT ISZERO PUSH2 0x721 JUMPI PUSH2 0x720 PUSH2 0x18D8 JUMP JUMPDEST JUMPDEST EQ PUSH2 0x761 JUMPI PUSH1 0x40 MLOAD PUSH32 0x8C379A000000000000000000000000000000000000000000000000000000000 DUP2 MSTORE PUSH1 0x4 ADD PUSH2 0x758 SWAP1 PUSH2 0x1F4A JUMP JUMPDEST PUSH1 0x40 MLOAD DUP1 SWAP2 SUB SWAP1 REVERT JUMPDEST PUSH2 0x76A PUSH0 PUSH2 0x76D JUMP JUMPDEST POP JUMP JUMPDEST DUP1 PUSH1 0x8 PUSH1 0x14 PUSH2 0x100 EXP DUP2 SLOAD DUP2 PUSH1 0xFF MUL NOT AND SWAP1 DUP4 PUSH1 0x2 DUP2 GT ISZERO PUSH2 0x792 JUMPI PUSH2 0x791 PUSH2 0x18D8 JUMP JUMPDEST JUMPDEST MUL OR SWAP1 SSTORE POP POP JUMP JUMPDEST PUSH1 0x1 DUP1 PUSH1 0x2 DUP2 GT ISZERO PUSH2 0x7AF JUMPI PUSH2 0x7AE PUSH2 0x18D8 JUMP JUMPDEST JUMPDEST PUSH1 0x8 PUSH1 0x14 SWAP1 SLOAD SWAP1 PUSH2 0x100 EXP SWAP1 DIV PUSH1 0xFF AND PUSH1 0x2 DUP2 GT ISZERO PUSH2 0x7D1 JUMPI PUSH2 0x7D0 PUSH2 0x18D8 JUMP JUMPDEST JUMPDEST EQ PUSH2 0x811 JUMPI PUSH1 0x40 MLOAD PUSH32 0x8C379A000000000000000000000000000000000000000000000000000000000 DUP2 MSTORE PUSH1 0x4 ADD PUSH2 0x808 SWAP1 PUSH2 0x1F4A JUMP JUMPDEST PUSH1 0x40 MLOAD DUP1 SWAP2 SUB SWAP1 REVERT JUMPDEST PUSH2 0x81B PUSH1 0x2 PUSH2 0x76D JUMP JUMPDEST POP JUMP JUMPDEST PUSH1 0x8 PUSH1 0x14 SWAP1 SLOAD SWAP1 PUSH2 0x100 EXP SWAP1 DIV PUSH1 0xFF AND DUP2 JUMP JUMPDEST PUSH1 0x6 SLOAD DUP2 JUMP JUMPDEST PUSH2 0x88E PUSH1 0x40 MLOAD DUP1 PUSH1 0x40 ADD PUSH1 0x40 MSTORE DUP1 PUSH1 0x3 DUP2 MSTORE PUSH1 0x20 ADD PUSH32 0x55524C0000000000000000000000000000000000000000000000000000000000 DUP2 MSTORE POP PUSH1 0x40 MLOAD DUP1 PUSH1 0x80 ADD PUSH1 0x40 MSTORE DUP1 PUSH1 0x49 DUP2 MSTORE PUSH1 0x20 ADD PUSH2 0x20D7 PUSH1 0x49 SWAP2 CODECOPY PUSH2 0x9AB JUMP JUMPDEST POP JUMP JUMPDEST PUSH1 0x6 SLOAD DUP1 CALLVALUE LT ISZERO PUSH2 0x8D7 JUMPI PUSH1 0x40 MLOAD PUSH32 0x8C379A000000000000000000000000000000000000000000000000000000000 DUP2 MSTORE PUSH1 0x4 ADD PUSH2 0x8CE SWAP1 PUSH2 0x1EE2 JUMP JUMPDEST PUSH1 0x40 MLOAD DUP1 SWAP2 SUB SWAP1 REVERT JUMPDEST PUSH0 DUP1 PUSH1 0x2 DUP2 GT ISZERO PUSH2 0x8EB JUMPI PUSH2 0x8EA PUSH2 0x18D8 JUMP JUMPDEST JUMPDEST PUSH1 0x8 PUSH1 0x14 SWAP1 SLOAD SWAP1 PUSH2 0x100 EXP SWAP1 DIV PUSH1 0xFF AND PUSH1 0x2 DUP2 GT ISZERO PUSH2 0x90D JUMPI PUSH2 0x90C PUSH2 0x18D8 JUMP JUMPDEST JUMPDEST EQ PUSH2 0x94D JUMPI PUSH1 0x40 MLOAD PUSH32 0x8C379A000000000000000000000000000000000000000000000000000000000 DUP2 MSTORE PUSH1 0x4 ADD PUSH2 0x944 SWAP1 PUSH2 0x1F4A JUMP JUMPDEST PUSH1 0x40 MLOAD DUP1 SWAP2 SUB SWAP1 REVERT JUMPDEST PUSH2 0x957 PUSH1 0x1 PUSH2 0x76D JUMP JUMPDEST CALLER PUSH20 0xFFFFFFFFFFFFFFFFFFFFFFFFFFFFFFFFFFFFFFFF AND PUSH32 0x9E1AC5B8EEAF15C65411853C2E8ED509222E76A5A3B424CD53A633C1B27D6E53 PUSH1 0x6 SLOAD PUSH1 0x40 MLOAD PUSH2 0x99F SWAP2 SWAP1 PUSH2 0x17C9 JUMP JUMPDEST PUSH1 0x40 MLOAD DUP1 SWAP2 SUB SWAP1 LOG2 POP POP JUMP JUMPDEST PUSH0 DUP1 PUSH20 0xFFFFFFFFFFFFFFFFFFFFFFFFFFFFFFFFFFFFFFFF AND PUSH1 0x1 PUSH0 SWAP1 SLOAD SWAP1 PUSH2 0x100 EXP SWAP1 DIV PUSH20 0xFFFFFFFFFFFFFFFFFFFFFFFFFFFFFFFFFFFFFFFF AND PUSH20 0xFFFFFFFFFFFFFFFFFFFFFFFFFFFFFFFFFFFFFFFF AND EQ DUP1 PUSH2 0xA2F JUMPI POP PUSH0 PUSH2 0xA2D PUSH1 0x1 PUSH0 SWAP1 SLOAD SWAP1 PUSH2 0x100 EXP SWAP1 DIV PUSH20 0xFFFFFFFFFFFFFFFFFFFFFFFFFFFFFFFFFFFFFFFF AND PUSH2 0xD65 JUMP JUMPDEST EQ JUMPDEST ISZERO PUSH2 0xA3F JUMPI PUSH2 0xA3D PUSH0 PUSH2 0xD6F JUMP JUMPDEST POP JUMPDEST PUSH1 0x1 PUSH0 SWAP1 SLOAD SWAP1 PUSH2 0x100 EXP SWAP1 DIV PUSH20 0xFFFFFFFFFFFFFFFFFFFFFFFFFFFFFFFFFFFFFFFF AND PUSH20 0xFFFFFFFFFFFFFFFFFFFFFFFFFFFFFFFFFFFFFFFF AND PUSH4 0x38CC4831 PUSH1 0x40 MLOAD DUP2 PUSH4 0xFFFFFFFF AND PUSH1 0xE0 SHL DUP2 MSTORE PUSH1 0x4 ADD PUSH1 0x20 PUSH1 0x40 MLOAD DUP1 DUP4 SUB DUP2 PUSH0 DUP8 GAS CALL ISZERO DUP1 ISZERO PUSH2 0xAAA JUMPI RETURNDATASIZE PUSH0 DUP1 RETURNDATACOPY RETURNDATASIZE PUSH0 REVERT JUMPDEST POP POP POP POP PUSH1 0x40 MLOAD RETURNDATASIZE PUSH1 0x1F NOT PUSH1 0x1F DUP3 ADD AND DUP3 ADD DUP1 PUSH1 0x40 MSTORE POP DUP2 ADD SWAP1 PUSH2 0xACE SWAP2 SWAP1 PUSH2 0x1978 JUMP JUMPDEST PUSH20 0xFFFFFFFFFFFFFFFFFFFFFFFFFFFFFFFFFFFFFFFF AND PUSH0 DUP1 SLOAD SWAP1 PUSH2 0x100 EXP SWAP1 DIV PUSH20 0xFFFFFFFFFFFFFFFFFFFFFFFFFFFFFFFFFFFFFFFF AND PUSH20 0xFFFFFFFFFFFFFFFFFFFFFFFFFFFFFFFFFFFFFFFF AND EQ PUSH2 0xBED JUMPI PUSH1 0x1 PUSH0 SWAP1 SLOAD SWAP1 PUSH2 0x100 EXP SWAP1 DIV PUSH20 0xFFFFFFFFFFFFFFFFFFFFFFFFFFFFFFFFFFFFFFFF AND PUSH20 0xFFFFFFFFFFFFFFFFFFFFFFFFFFFFFFFFFFFFFFFF AND PUSH4 0x38CC4831 PUSH1 0x40 MLOAD DUP2 PUSH4 0xFFFFFFFF AND PUSH1 0xE0 SHL DUP2 MSTORE PUSH1 0x4 ADD PUSH1 0x20 PUSH1 0x40 MLOAD DUP1 DUP4 SUB DUP2 PUSH0 DUP8 GAS CALL ISZERO DUP1 ISZERO PUSH2 0xB8A JUMPI RETURNDATASIZE PUSH0 DUP1 RETURNDATACOPY RETURNDATASIZE PUSH0 REVERT JUMPDEST POP POP POP POP PUSH1 0x40 MLOAD RETURNDATASIZE PUSH1 0x1F NOT PUSH1 0x1F DUP3 ADD AND DUP3 ADD DUP1 PUSH1 0x40 MSTORE POP DUP2 ADD SWAP1 PUSH2 0xBAE SWAP2 SWAP1 PUSH2 0x1978 JUMP JUMPDEST PUSH0 DUP1 PUSH2 0x100 EXP DUP2 SLOAD DUP2 PUSH20 0xFFFFFFFFFFFFFFFFFFFFFFFFFFFFFFFFFFFFFFFF MUL NOT AND SWAP1 DUP4 PUSH20 0xFFFFFFFFFFFFFFFFFFFFFFFFFFFFFFFFFFFFFFFF AND MUL OR SWAP1 SSTORE POP JUMPDEST PUSH0 DUP1 PUSH0 SWAP1 SLOAD SWAP1 PUSH2 0x100 EXP SWAP1 DIV PUSH20 0xFFFFFFFFFFFFFFFFFFFFFFFFFFFFFFFFFFFFFFFF AND PUSH20 0xFFFFFFFFFFFFFFFFFFFFFFFFFFFFFFFFFFFFFFFF AND PUSH4 0x524F3889 DUP6 PUSH1 0x40 MLOAD DUP3 PUSH4 0xFFFFFFFF AND PUSH1 0xE0 SHL DUP2 MSTORE PUSH1 0x4 ADD PUSH2 0xC47 SWAP2 SWAP1 PUSH2 0x1842 JUMP JUMPDEST PUSH1 0x20 PUSH1 0x40 MLOAD DUP1 DUP4 SUB DUP2 PUSH0 DUP8 GAS CALL ISZERO DUP1 ISZERO PUSH2 0xC63 JUMPI RETURNDATASIZE PUSH0 DUP1 RETURNDATACOPY RETURNDATASIZE PUSH0 REVERT JUMPDEST POP POP POP POP PUSH1 0x40 MLOAD RETURNDATASIZE PUSH1 0x1F NOT PUSH1 0x1F DUP3 ADD AND DUP3 ADD DUP1 PUSH1 0x40 MSTORE POP DUP2 ADD SWAP1 PUSH2 0xC87 SWAP2 SWAP1 PUSH2 0x1F7C JUMP JUMPDEST SWAP1 POP PUSH3 0x30D40 GASPRICE PUSH2 0xC98 SWAP2 SWAP1 PUSH2 0x1FA7 JUMP JUMPDEST PUSH8 0xDE0B6B3A7640000 PUSH2 0xCAB SWAP2 SWAP1 PUSH2 0x1FE8 JUMP JUMPDEST DUP2 GT ISZERO PUSH2 0xCBD JUMPI PUSH0 DUP1 SHL SWAP2 POP POP PUSH2 0xD5F JUMP JUMPDEST PUSH0 DUP1 SLOAD SWAP1 PUSH2 0x100 EXP SWAP1 DIV PUSH20 0xFFFFFFFFFFFFFFFFFFFFFFFFFFFFFFFFFFFFFFFF AND PUSH20 0xFFFFFFFFFFFFFFFFFFFFFFFFFFFFFFFFFFFFFFFF AND PUSH4 0xADF59F99 DUP3 PUSH0 DUP8 DUP8 PUSH1 0x40 MLOAD DUP6 PUSH4 0xFFFFFFFF AND PUSH1 0xE0 SHL DUP2 MSTORE PUSH1 0x4 ADD PUSH2 0xD1A SWAP4 SWAP3 SWAP2 SWAP1 PUSH2 0x2054 JUMP JUMPDEST PUSH1 0x20 PUSH1 0x40 MLOAD DUP1 DUP4 SUB DUP2 DUP6 DUP9 GAS CALL ISZERO DUP1 ISZERO PUSH2 0xD36 JUMPI RETURNDATASIZE PUSH0 DUP1 RETURNDATACOPY RETURNDATASIZE PUSH0 REVERT JUMPDEST POP POP POP POP POP PUSH1 0x40 MLOAD RETURNDATASIZE PUSH1 0x1F NOT PUSH1 0x1F DUP3 ADD AND DUP3 ADD DUP1 PUSH1 0x40 MSTORE POP DUP2 ADD SWAP1 PUSH2 0xD5B SWAP2 SWAP1 PUSH2 0x20AB JUMP JUMPDEST SWAP2 POP POP JUMPDEST SWAP3 SWAP2 POP POP JUMP JUMPDEST PUSH0 DUP2 EXTCODESIZE SWAP1 POP SWAP2 SWAP1 POP JUMP JUMPDEST PUSH0 PUSH2 0xD78 PUSH2 0xD7F JUMP JUMPDEST SWAP1 POP SWAP2 SWAP1 POP JUMP JUMPDEST PUSH0 DUP1 PUSH2 0xD9E PUSH20 0x1D3B2638A7CC9F2CB3D298A3DA7A90B67E5506ED PUSH2 0xD65 JUMP JUMPDEST GT ISZERO PUSH2 0xE3F JUMPI PUSH20 0x1D3B2638A7CC9F2CB3D298A3DA7A90B67E5506ED PUSH1 0x1 PUSH0 PUSH2 0x100 EXP DUP2 SLOAD DUP2 PUSH20 0xFFFFFFFFFFFFFFFFFFFFFFFFFFFFFFFFFFFFFFFF MUL NOT AND SWAP1 DUP4 PUSH20 0xFFFFFFFFFFFFFFFFFFFFFFFFFFFFFFFFFFFFFFFF AND MUL OR SWAP1 SSTORE POP PUSH2 0xE36 PUSH1 0x40 MLOAD DUP1 PUSH1 0x40 ADD PUSH1 0x40 MSTORE DUP1 PUSH1 0xB DUP2 MSTORE PUSH1 0x20 ADD PUSH32 0x6574685F6D61696E6E6574000000000000000000000000000000000000000000 DUP2 MSTORE POP PUSH2 0x1502 JUMP JUMPDEST PUSH1 0x1 SWAP1 POP PUSH2 0x14FF JUMP JUMPDEST PUSH0 PUSH2 0xE5D PUSH20 0xC03A2615D5EFAF5F49F60B7BB6583EAEC212FDF1 PUSH2 0xD65 JUMP JUMPDEST GT ISZERO PUSH2 0xEFE JUMPI PUSH20 0xC03A2615D5EFAF5F49F60B7BB6583EAEC212FDF1 PUSH1 0x1 PUSH0 PUSH2 0x100 EXP DUP2 SLOAD DUP2 PUSH20 0xFFFFFFFFFFFFFFFFFFFFFFFFFFFFFFFFFFFFFFFF MUL NOT AND SWAP1 DUP4 PUSH20 0xFFFFFFFFFFFFFFFFFFFFFFFFFFFFFFFFFFFFFFFF AND MUL OR SWAP1 SSTORE POP PUSH2 0xEF5 PUSH1 0x40 MLOAD DUP1 PUSH1 0x40 ADD PUSH1 0x40 MSTORE DUP1 PUSH1 0xC DUP2 MSTORE PUSH1 0x20 ADD PUSH32 0x6574685F726F707374656E330000000000000000000000000000000000000000 DUP2 MSTORE POP PUSH2 0x1502 JUMP JUMPDEST PUSH1 0x1 SWAP1 POP PUSH2 0x14FF JUMP JUMPDEST PUSH0 PUSH2 0xF1C PUSH20 0xB7A07BCF2BA2F2703B24C0691B5278999C59AC7E PUSH2 0xD65 JUMP JUMPDEST GT ISZERO PUSH2 0xFBD JUMPI PUSH20 0xB7A07BCF2BA2F2703B24C0691B5278999C59AC7E PUSH1 0x1 PUSH0 PUSH2 0x100 EXP DUP2 SLOAD DUP2 PUSH20 0xFFFFFFFFFFFFFFFFFFFFFFFFFFFFFFFFFFFFFFFF MUL NOT AND SWAP1 DUP4 PUSH20 0xFFFFFFFFFFFFFFFFFFFFFFFFFFFFFFFFFFFFFFFF AND MUL OR SWAP1 SSTORE POP PUSH2 0xFB4 PUSH1 0x40 MLOAD DUP1 PUSH1 0x40 ADD PUSH1 0x40 MSTORE DUP1 PUSH1 0x9 DUP2 MSTORE PUSH1 0x20 ADD PUSH32 0x6574685F6B6F76616E0000000000000000000000000000000000000000000000 DUP2 MSTORE POP PUSH2 0x1502 JUMP JUMPDEST PUSH1 0x1 SWAP1 POP PUSH2 0x14FF JUMP JUMPDEST PUSH0 PUSH2 0xFDB PUSH20 0x146500CFD35B22E4A392FE0ADC06DE1A1368ED48 PUSH2 0xD65 JUMP JUMPDEST GT ISZERO PUSH2 0x107C JUMPI PUSH20 0x146500CFD35B22E4A392FE0ADC06DE1A1368ED48 PUSH1 0x1 PUSH0 PUSH2 0x100 EXP DUP2 SLOAD DUP2 PUSH20 0xFFFFFFFFFFFFFFFFFFFFFFFFFFFFFFFFFFFFFFFF MUL NOT AND SWAP1 DUP4 PUSH20 0xFFFFFFFFFFFFFFFFFFFFFFFFFFFFFFFFFFFFFFFF AND MUL OR SWAP1 SSTORE POP PUSH2 0x1073 PUSH1 0x40 MLOAD DUP1 PUSH1 0x40 ADD PUSH1 0x40 MSTORE DUP1 PUSH1 0xB DUP2 MSTORE PUSH1 0x20 ADD PUSH32 0x6574685F72696E6B656279000000000000000000000000000000000000000000 DUP2 MSTORE POP PUSH2 0x1502 JUMP JUMPDEST PUSH1 0x1 SWAP1 POP PUSH2 0x14FF JUMP JUMPDEST PUSH0 PUSH2 0x109A PUSH20 0xA2998EFD205FB9D4B4963AFB70778D6354AD3A41 PUSH2 0xD65 JUMP JUMPDEST GT ISZERO PUSH2 0x113B JUMPI PUSH20 0xA2998EFD205FB9D4B4963AFB70778D6354AD3A41 PUSH1 0x1 PUSH0 PUSH2 0x100 EXP DUP2 SLOAD DUP2 PUSH20 0xFFFFFFFFFFFFFFFFFFFFFFFFFFFFFFFFFFFFFFFF MUL NOT AND SWAP1 DUP4 PUSH20 0xFFFFFFFFFFFFFFFFFFFFFFFFFFFFFFFFFFFFFFFF AND MUL OR SWAP1 SSTORE POP PUSH2 0x1132 PUSH1 0x40 MLOAD DUP1 PUSH1 0x40 ADD PUSH1 0x40 MSTORE DUP1 PUSH1 0xA DUP2 MSTORE PUSH1 0x20 ADD PUSH32 0x6574685F676F65726C6900000000000000000000000000000000000000000000 DUP2 MSTORE POP PUSH2 0x1502 JUMP JUMPDEST PUSH1 0x1 SWAP1 POP PUSH2 0x14FF JUMP JUMPDEST PUSH0 PUSH2 0x1159 PUSH20 0x90A0F94702C9630036FB9846B52BF31A1C991A84 PUSH2 0xD65 JUMP JUMPDEST GT ISZERO PUSH2 0x11FA JUMPI PUSH20 0x90A0F94702C9630036FB9846B52BF31A1C991A84 PUSH1 0x1 PUSH0 PUSH2 0x100 EXP DUP2 SLOAD DUP2 PUSH20 0xFFFFFFFFFFFFFFFFFFFFFFFFFFFFFFFFFFFFFFFF MUL NOT AND SWAP1 DUP4 PUSH20 0xFFFFFFFFFFFFFFFFFFFFFFFFFFFFFFFFFFFFFFFF AND MUL OR SWAP1 SSTORE POP PUSH2 0x11F1 PUSH1 0x40 MLOAD DUP1 PUSH1 0x40 ADD PUSH1 0x40 MSTORE DUP1 PUSH1 0xB DUP2 MSTORE PUSH1 0x20 ADD PUSH32 0x6273635F6D61696E6E6574000000000000000000000000000000000000000000 DUP2 MSTORE POP PUSH2 0x1502 JUMP JUMPDEST PUSH1 0x1 SWAP1 POP PUSH2 0x14FF JUMP JUMPDEST PUSH0 PUSH2 0x1218 PUSH20 0x816EC2AF1B56183F82F8C05759E99FEC3C3DE609 PUSH2 0xD65 JUMP JUMPDEST GT ISZERO PUSH2 0x12B9 JUMPI PUSH20 0x816EC2AF1B56183F82F8C05759E99FEC3C3DE609 PUSH1 0x1 PUSH0 PUSH2 0x100 EXP DUP2 SLOAD DUP2 PUSH20 0xFFFFFFFFFFFFFFFFFFFFFFFFFFFFFFFFFFFFFFFF MUL NOT AND SWAP1 DUP4 PUSH20 0xFFFFFFFFFFFFFFFFFFFFFFFFFFFFFFFFFFFFFFFF AND MUL OR SWAP1 SSTORE POP PUSH2 0x12B0 PUSH1 0x40 MLOAD DUP1 PUSH1 0x40 ADD PUSH1 0x40 MSTORE DUP1 PUSH1 0xF DUP2 MSTORE PUSH1 0x20 ADD PUSH32 0x706F6C79676F6E5F6D61696E6E65740000000000000000000000000000000000 DUP2 MSTORE POP PUSH2 0x1502 JUMP JUMPDEST PUSH1 0x1 SWAP1 POP PUSH2 0x14FF JUMP JUMPDEST PUSH0 PUSH2 0x12D7 PUSH20 0x14B31A1C66A9F3D18DFAC2D123FE8CE5847B7F85 PUSH2 0xD65 JUMP JUMPDEST GT ISZERO PUSH2 0x1378 JUMPI PUSH20 0x14B31A1C66A9F3D18DFAC2D123FE8CE5847B7F85 PUSH1 0x1 PUSH0 PUSH2 0x100 EXP DUP2 SLOAD DUP2 PUSH20 0xFFFFFFFFFFFFFFFFFFFFFFFFFFFFFFFFFFFFFFFF MUL NOT AND SWAP1 DUP4 PUSH20 0xFFFFFFFFFFFFFFFFFFFFFFFFFFFFFFFFFFFFFFFF AND MUL OR SWAP1 SSTORE POP PUSH2 0x136F PUSH1 0x40 MLOAD DUP1 PUSH1 0x40 ADD PUSH1 0x40 MSTORE DUP1 PUSH1 0xF DUP2 MSTORE PUSH1 0x20 ADD PUSH32 0x7365706F6C69615F6D61696E6E65740000000000000000000000000000000000 DUP2 MSTORE POP PUSH2 0x1502 JUMP JUMPDEST PUSH1 0x1 SWAP1 POP PUSH2 0x14FF JUMP JUMPDEST PUSH0 PUSH2 0x1396 PUSH20 0x6F485C8BF6FC43EA212E93BBF8CE046C7F1CB475 PUSH2 0xD65 JUMP JUMPDEST GT ISZERO PUSH2 0x13F9 JUMPI PUSH20 0x6F485C8BF6FC43EA212E93BBF8CE046C7F1CB475 PUSH1 0x1 PUSH0 PUSH2 0x100 EXP DUP2 SLOAD DUP2 PUSH20 0xFFFFFFFFFFFFFFFFFFFFFFFFFFFFFFFFFFFFFFFF MUL NOT AND SWAP1 DUP4 PUSH20 0xFFFFFFFFFFFFFFFFFFFFFFFFFFFFFFFFFFFFFFFF AND MUL OR SWAP1 SSTORE POP PUSH1 0x1 SWAP1 POP PUSH2 0x14FF JUMP JUMPDEST PUSH0 PUSH2 0x1417 PUSH20 0x20E12A1F859B3FEAE5FB2A0A32C18F5A65555BBF PUSH2 0xD65 JUMP JUMPDEST GT ISZERO PUSH2 0x147A JUMPI PUSH20 0x20E12A1F859B3FEAE5FB2A0A32C18F5A65555BBF PUSH1 0x1 PUSH0 PUSH2 0x100 EXP DUP2 SLOAD DUP2 PUSH20 0xFFFFFFFFFFFFFFFFFFFFFFFFFFFFFFFFFFFFFFFF MUL NOT AND SWAP1 DUP4 PUSH20 0xFFFFFFFFFFFFFFFFFFFFFFFFFFFFFFFFFFFFFFFF AND MUL OR SWAP1 SSTORE POP PUSH1 0x1 SWAP1 POP PUSH2 0x14FF JUMP JUMPDEST PUSH0 PUSH2 0x1498 PUSH20 0x51EFAF4C8B3C9AFBD5AB9F4BBC82784AB6EF8FAA PUSH2 0xD65 JUMP JUMPDEST GT ISZERO PUSH2 0x14FB JUMPI PUSH20 0x51EFAF4C8B3C9AFBD5AB9F4BBC82784AB6EF8FAA PUSH1 0x1 PUSH0 PUSH2 0x100 EXP DUP2 SLOAD DUP2 PUSH20 0xFFFFFFFFFFFFFFFFFFFFFFFFFFFFFFFFFFFFFFFF MUL NOT AND SWAP1 DUP4 PUSH20 0xFFFFFFFFFFFFFFFFFFFFFFFFFFFFFFFFFFFFFFFF AND MUL OR SWAP1 SSTORE POP PUSH1 0x1 SWAP1 POP PUSH2 0x14FF JUMP JUMPDEST PUSH0 SWAP1 POP JUMPDEST SWAP1 JUMP JUMPDEST DUP1 PUSH1 0x2 SWAP1 DUP2 PUSH2 0x1511 SWAP2 SWAP1 PUSH2 0x1B9D JUMP JUMPDEST POP POP JUMP JUMPDEST PUSH0 PUSH1 0x40 MLOAD SWAP1 POP SWAP1 JUMP JUMPDEST PUSH0 DUP1 REVERT JUMPDEST PUSH0 DUP1 REVERT JUMPDEST PUSH0 DUP2 SWAP1 POP SWAP2 SWAP1 POP JUMP JUMPDEST PUSH2 0x1538 DUP2 PUSH2 0x1526 JUMP JUMPDEST DUP2 EQ PUSH2 0x1542 JUMPI PUSH0 DUP1 REVERT JUMPDEST POP JUMP JUMPDEST PUSH0 DUP2 CALLDATALOAD SWAP1 POP PUSH2 0x1553 DUP2 PUSH2 0x152F JUMP JUMPDEST SWAP3 SWAP2 POP POP JUMP JUMPDEST PUSH0 DUP1 REVERT JUMPDEST PUSH0 DUP1 REVERT JUMPDEST PUSH0 PUSH1 0x1F NOT PUSH1 0x1F DUP4 ADD AND SWAP1 POP SWAP2 SWAP1 POP JUMP JUMPDEST PUSH32 0x4E487B7100000000000000000000000000000000000000000000000000000000 PUSH0 MSTORE PUSH1 0x41 PUSH1 0x4 MSTORE PUSH1 0x24 PUSH0 REVERT JUMPDEST PUSH2 0x15A7 DUP3 PUSH2 0x1561 JUMP JUMPDEST DUP2 ADD DUP2 DUP2 LT PUSH8 0xFFFFFFFFFFFFFFFF DUP3 GT OR ISZERO PUSH2 0x15C6 JUMPI PUSH2 0x15C5 PUSH2 0x1571 JUMP JUMPDEST JUMPDEST DUP1 PUSH1 0x40 MSTORE POP POP POP JUMP JUMPDEST PUSH0 PUSH2 0x15D8 PUSH2 0x1515 JUMP JUMPDEST SWAP1 POP PUSH2 0x15E4 DUP3 DUP3 PUSH2 0x159E JUMP JUMPDEST SWAP2 SWAP1 POP JUMP JUMPDEST PUSH0 PUSH8 0xFFFFFFFFFFFFFFFF DUP3 GT ISZERO PUSH2 0x1603 JUMPI PUSH2 0x1602 PUSH2 0x1571 JUMP JUMPDEST JUMPDEST PUSH2 0x160C DUP3 PUSH2 0x1561 JUMP JUMPDEST SWAP1 POP PUSH1 0x20 DUP2 ADD SWAP1 POP SWAP2 SWAP1 POP JUMP JUMPDEST DUP3 DUP2 DUP4 CALLDATACOPY PUSH0 DUP4 DUP4 ADD MSTORE POP POP POP JUMP JUMPDEST PUSH0 PUSH2 0x1639 PUSH2 0x1634 DUP5 PUSH2 0x15E9 JUMP JUMPDEST PUSH2 0x15CF JUMP JUMPDEST SWAP1 POP DUP3 DUP2 MSTORE PUSH1 0x20 DUP2 ADD DUP5 DUP5 DUP5 ADD GT ISZERO PUSH2 0x1655 JUMPI PUSH2 0x1654 PUSH2 0x155D JUMP JUMPDEST JUMPDEST PUSH2 0x1660 DUP5 DUP3 DUP6 PUSH2 0x1619 JUMP JUMPDEST POP SWAP4 SWAP3 POP POP POP JUMP JUMPDEST PUSH0 DUP3 PUSH1 0x1F DUP4 ADD SLT PUSH2 0x167C JUMPI PUSH2 0x167B PUSH2 0x1559 JUMP JUMPDEST JUMPDEST DUP2 CALLDATALOAD PUSH2 0x168C DUP5 DUP3 PUSH1 0x20 DUP7 ADD PUSH2 0x1627 JUMP JUMPDEST SWAP2 POP POP SWAP3 SWAP2 POP POP JUMP JUMPDEST PUSH0 DUP1 PUSH1 0x40 DUP4 DUP6 SUB SLT ISZERO PUSH2 0x16AB JUMPI PUSH2 0x16AA PUSH2 0x151E JUMP JUMPDEST JUMPDEST PUSH0 PUSH2 0x16B8 DUP6 DUP3 DUP7 ADD PUSH2 0x1545 JUMP JUMPDEST SWAP3 POP POP PUSH1 0x20 DUP4 ADD CALLDATALOAD PUSH8 0xFFFFFFFFFFFFFFFF DUP2 GT ISZERO PUSH2 0x16D9 JUMPI PUSH2 0x16D8 PUSH2 0x1522 JUMP JUMPDEST JUMPDEST PUSH2 0x16E5 DUP6 DUP3 DUP7 ADD PUSH2 0x1668 JUMP JUMPDEST SWAP2 POP POP SWAP3 POP SWAP3 SWAP1 POP JUMP JUMPDEST PUSH0 PUSH20 0xFFFFFFFFFFFFFFFFFFFFFFFFFFFFFFFFFFFFFFFF DUP3 AND SWAP1 POP SWAP2 SWAP1 POP JUMP JUMPDEST PUSH0 PUSH2 0x1718 DUP3 PUSH2 0x16EF JUMP JUMPDEST SWAP1 POP SWAP2 SWAP1 POP JUMP JUMPDEST PUSH2 0x1728 DUP2 PUSH2 0x170E JUMP JUMPDEST DUP2 EQ PUSH2 0x1732 JUMPI PUSH0 DUP1 REVERT JUMPDEST POP JUMP JUMPDEST PUSH0 DUP2 CALLDATALOAD SWAP1 POP PUSH2 0x1743 DUP2 PUSH2 0x171F JUMP JUMPDEST SWAP3 SWAP2 POP POP JUMP JUMPDEST PUSH0 DUP2 SWAP1 POP SWAP2 SWAP1 POP JUMP JUMPDEST PUSH2 0x175B DUP2 PUSH2 0x1749 JUMP JUMPDEST DUP2 EQ PUSH2 0x1765 JUMPI PUSH0 DUP1 REVERT JUMPDEST POP JUMP JUMPDEST PUSH0 DUP2 CALLDATALOAD SWAP1 POP PUSH2 0x1776 DUP2 PUSH2 0x1752 JUMP JUMPDEST SWAP3 SWAP2 POP POP JUMP JUMPDEST PUSH0 DUP1 PUSH1 0x40 DUP4 DUP6 SUB SLT ISZERO PUSH2 0x1792 JUMPI PUSH2 0x1791 PUSH2 0x151E JUMP JUMPDEST JUMPDEST PUSH0 PUSH2 0x179F DUP6 DUP3 DUP7 ADD PUSH2 0x1735 JUMP JUMPDEST SWAP3 POP POP PUSH1 0x20 PUSH2 0x17B0 DUP6 DUP3 DUP7 ADD PUSH2 0x1768 JUMP JUMPDEST SWAP2 POP POP SWAP3 POP SWAP3 SWAP1 POP JUMP JUMPDEST PUSH2 0x17C3 DUP2 PUSH2 0x1749 JUMP JUMPDEST DUP3 MSTORE POP POP JUMP JUMPDEST PUSH0 PUSH1 0x20 DUP3 ADD SWAP1 POP PUSH2 0x17DC PUSH0 DUP4 ADD DUP5 PUSH2 0x17BA JUMP JUMPDEST SWAP3 SWAP2 POP POP JUMP JUMPDEST PUSH0 DUP2 MLOAD SWAP1 POP SWAP2 SWAP1 POP JUMP JUMPDEST PUSH0 DUP3 DUP3 MSTORE PUSH1 0x20 DUP3 ADD SWAP1 POP SWAP3 SWAP2 POP POP JUMP JUMPDEST DUP3 DUP2 DUP4 MCOPY PUSH0 DUP4 DUP4 ADD MSTORE POP POP POP JUMP JUMPDEST PUSH0 PUSH2 0x1814 DUP3 PUSH2 0x17E2 JUMP JUMPDEST PUSH2 0x181E DUP2 DUP6 PUSH2 0x17EC JUMP JUMPDEST SWAP4 POP PUSH2 0x182E DUP2 DUP6 PUSH1 0x20 DUP7 ADD PUSH2 0x17FC JUMP JUMPDEST PUSH2 0x1837 DUP2 PUSH2 0x1561 JUMP JUMPDEST DUP5 ADD SWAP2 POP POP SWAP3 SWAP2 POP POP JUMP JUMPDEST PUSH0 PUSH1 0x20 DUP3 ADD SWAP1 POP DUP2 DUP2 SUB PUSH0 DUP4 ADD MSTORE PUSH2 0x185A DUP2 DUP5 PUSH2 0x180A JUMP JUMPDEST SWAP1 POP SWAP3 SWAP2 POP POP JUMP JUMPDEST PUSH2 0x186B DUP2 PUSH2 0x170E JUMP JUMPDEST DUP3 MSTORE POP POP JUMP JUMPDEST PUSH0 PUSH1 0x20 DUP3 ADD SWAP1 POP PUSH2 0x1884 PUSH0 DUP4 ADD DUP5 PUSH2 0x1862 JUMP JUMPDEST SWAP3 SWAP2 POP POP JUMP JUMPDEST PUSH1 0x3 DUP2 LT PUSH2 0x1896 JUMPI PUSH0 DUP1 REVERT JUMPDEST POP JUMP JUMPDEST PUSH0 DUP2 CALLDATALOAD SWAP1 POP PUSH2 0x18A7 DUP2 PUSH2 0x188A JUMP JUMPDEST SWAP3 SWAP2 POP POP JUMP JUMPDEST PUSH0 PUSH1 0x20 DUP3 DUP5 SUB SLT ISZERO PUSH2 0x18C2 JUMPI PUSH2 0x18C1 PUSH2 0x151E JUMP JUMPDEST JUMPDEST PUSH0 PUSH2 0x18CF DUP5 DUP3 DUP6 ADD PUSH2 0x1899 JUMP JUMPDEST SWAP2 POP POP SWAP3 SWAP2 POP POP JUMP JUMPDEST PUSH32 0x4E487B7100000000000000000000000000000000000000000000000000000000 PUSH0 MSTORE PUSH1 0x21 PUSH1 0x4 MSTORE PUSH1 0x24 PUSH0 REVERT JUMPDEST PUSH1 0x3 DUP2 LT PUSH2 0x1916 JUMPI PUSH2 0x1915 PUSH2 0x18D8 JUMP JUMPDEST JUMPDEST POP JUMP JUMPDEST PUSH0 DUP2 SWAP1 POP PUSH2 0x1926 DUP3 PUSH2 0x1905 JUMP JUMPDEST SWAP2 SWAP1 POP JUMP JUMPDEST PUSH0 PUSH2 0x1935 DUP3 PUSH2 0x1919 JUMP JUMPDEST SWAP1 POP SWAP2 SWAP1 POP JUMP JUMPDEST PUSH2 0x1945 DUP2 PUSH2 0x192B JUMP JUMPDEST DUP3 MSTORE POP POP JUMP JUMPDEST PUSH0 PUSH1 0x20 DUP3 ADD SWAP1 POP PUSH2 0x195E PUSH0 DUP4 ADD DUP5 PUSH2 0x193C JUMP JUMPDEST SWAP3 SWAP2 POP POP JUMP JUMPDEST PUSH0 DUP2 MLOAD SWAP1 POP PUSH2 0x1972 DUP2 PUSH2 0x171F JUMP JUMPDEST SWAP3 SWAP2 POP POP JUMP JUMPDEST PUSH0 PUSH1 0x20 DUP3 DUP5 SUB SLT ISZERO PUSH2 0x198D JUMPI PUSH2 0x198C PUSH2 0x151E JUMP JUMPDEST JUMPDEST PUSH0 PUSH2 0x199A DUP5 DUP3 DUP6 ADD PUSH2 0x1964 JUMP JUMPDEST SWAP2 POP POP SWAP3 SWAP2 POP POP JUMP JUMPDEST PUSH32 0x4E487B7100000000000000000000000000000000000000000000000000000000 PUSH0 MSTORE PUSH1 0x22 PUSH1 0x4 MSTORE PUSH1 0x24 PUSH0 REVERT JUMPDEST PUSH0 PUSH1 0x2 DUP3 DIV SWAP1 POP PUSH1 0x1 DUP3 AND DUP1 PUSH2 0x19E7 JUMPI PUSH1 0x7F DUP3 AND SWAP2 POP JUMPDEST PUSH1 0x20 DUP3 LT DUP2 SUB PUSH2 0x19FA JUMPI PUSH2 0x19F9 PUSH2 0x19A3 JUMP JUMPDEST JUMPDEST POP SWAP2 SWAP1 POP JUMP JUMPDEST PUSH0 DUP2 SWAP1 POP DUP2 PUSH0 MSTORE PUSH1 0x20 PUSH0 KECCAK256 SWAP1 POP SWAP2 SWAP1 POP JUMP JUMPDEST PUSH0 PUSH1 0x20 PUSH1 0x1F DUP4 ADD DIV SWAP1 POP SWAP2 SWAP1 POP JUMP JUMPDEST PUSH0 DUP3 DUP3 SHL SWAP1 POP SWAP3 SWAP2 POP POP JUMP JUMPDEST PUSH0 PUSH1 0x8 DUP4 MUL PUSH2 0x1A5C PUSH32 0xFFFFFFFFFFFFFFFFFFFFFFFFFFFFFFFFFFFFFFFFFFFFFFFFFFFFFFFFFFFFFFFF DUP3 PUSH2 0x1A21 JUMP JUMPDEST PUSH2 0x1A66 DUP7 DUP4 PUSH2 0x1A21 JUMP JUMPDEST SWAP6 POP DUP1 NOT DUP5 AND SWAP4 POP DUP1 DUP7 AND DUP5 OR SWAP3 POP POP POP SWAP4 SWAP3 POP POP POP JUMP JUMPDEST PUSH0 DUP2 SWAP1 POP SWAP2 SWAP1 POP JUMP JUMPDEST PUSH0 PUSH2 0x1AA1 PUSH2 0x1A9C PUSH2 0x1A97 DUP5 PUSH2 0x1749 JUMP JUMPDEST PUSH2 0x1A7E JUMP JUMPDEST PUSH2 0x1749 JUMP JUMPDEST SWAP1 POP SWAP2 SWAP1 POP JUMP JUMPDEST PUSH0 DUP2 SWAP1 POP SWAP2 SWAP1 POP JUMP JUMPDEST PUSH2 0x1ABA DUP4 PUSH2 0x1A87 JUMP JUMPDEST PUSH2 0x1ACE PUSH2 0x1AC6 DUP3 PUSH2 0x1AA8 JUMP JUMPDEST DUP5 DUP5 SLOAD PUSH2 0x1A2D JUMP JUMPDEST DUP3 SSTORE POP POP POP POP JUMP JUMPDEST PUSH0 SWAP1 JUMP JUMPDEST PUSH2 0x1AE2 PUSH2 0x1AD6 JUMP JUMPDEST PUSH2 0x1AED DUP2 DUP5 DUP5 PUSH2 0x1AB1 JUMP JUMPDEST POP POP POP JUMP JUMPDEST JUMPDEST DUP2 DUP2 LT ISZERO PUSH2 0x1B10 JUMPI PUSH2 0x1B05 PUSH0 DUP3 PUSH2 0x1ADA JUMP JUMPDEST PUSH1 0x1 DUP2 ADD SWAP1 POP PUSH2 0x1AF3 JUMP JUMPDEST POP POP JUMP JUMPDEST PUSH1 0x1F DUP3 GT ISZERO PUSH2 0x1B55 JUMPI PUSH2 0x1B26 DUP2 PUSH2 0x1A00 JUMP JUMPDEST PUSH2 0x1B2F DUP5 PUSH2 0x1A12 JUMP JUMPDEST DUP2 ADD PUSH1 0x20 DUP6 LT ISZERO PUSH2 0x1B3E JUMPI DUP2 SWAP1 POP JUMPDEST PUSH2 0x1B52 PUSH2 0x1B4A DUP6 PUSH2 0x1A12 JUMP JUMPDEST DUP4 ADD DUP3 PUSH2 0x1AF2 JUMP JUMPDEST POP POP JUMPDEST POP POP POP JUMP JUMPDEST PUSH0 DUP3 DUP3 SHR SWAP1 POP SWAP3 SWAP2 POP POP JUMP JUMPDEST PUSH0 PUSH2 0x1B75 PUSH0 NOT DUP5 PUSH1 0x8 MUL PUSH2 0x1B5A JUMP JUMPDEST NOT DUP1 DUP4 AND SWAP2 POP POP SWAP3 SWAP2 POP POP JUMP JUMPDEST PUSH0 PUSH2 0x1B8D DUP4 DUP4 PUSH2 0x1B66 JUMP JUMPDEST SWAP2 POP DUP3 PUSH1 0x2 MUL DUP3 OR SWAP1 POP SWAP3 SWAP2 POP POP JUMP JUMPDEST PUSH2 0x1BA6 DUP3 PUSH2 0x17E2 JUMP JUMPDEST PUSH8 0xFFFFFFFFFFFFFFFF DUP2 GT ISZERO PUSH2 0x1BBF JUMPI PUSH2 0x1BBE PUSH2 0x1571 JUMP JUMPDEST JUMPDEST PUSH2 0x1BC9 DUP3 SLOAD PUSH2 0x19D0 JUMP JUMPDEST PUSH2 0x1BD4 DUP3 DUP3 DUP6 PUSH2 0x1B14 JUMP JUMPDEST PUSH0 PUSH1 0x20 SWAP1 POP PUSH1 0x1F DUP4 GT PUSH1 0x1 DUP2 EQ PUSH2 0x1C05 JUMPI PUSH0 DUP5 ISZERO PUSH2 0x1BF3 JUMPI DUP3 DUP8 ADD MLOAD SWAP1 POP JUMPDEST PUSH2 0x1BFD DUP6 DUP3 PUSH2 0x1B82 JUMP JUMPDEST DUP7 SSTORE POP PUSH2 0x1C64 JUMP JUMPDEST PUSH1 0x1F NOT DUP5 AND PUSH2 0x1C13 DUP7 PUSH2 0x1A00 JUMP JUMPDEST PUSH0 JUMPDEST DUP3 DUP2 LT ISZERO PUSH2 0x1C3A JUMPI DUP5 DUP10 ADD MLOAD DUP3 SSTORE PUSH1 0x1 DUP3 ADD SWAP2 POP PUSH1 0x20 DUP6 ADD SWAP5 POP PUSH1 0x20 DUP2 ADD SWAP1 POP PUSH2 0x1C15 JUMP JUMPDEST DUP7 DUP4 LT ISZERO PUSH2 0x1C57 JUMPI DUP5 DUP10 ADD MLOAD PUSH2 0x1C53 PUSH1 0x1F DUP10 AND DUP3 PUSH2 0x1B66 JUMP JUMPDEST DUP4 SSTORE POP JUMPDEST PUSH1 0x1 PUSH1 0x2 DUP9 MUL ADD DUP9 SSTORE POP POP POP JUMPDEST POP POP POP POP POP POP JUMP JUMPDEST PUSH32 0x496E76616C696420616464726573730000000000000000000000000000000000 PUSH0 DUP3 ADD MSTORE POP JUMP JUMPDEST PUSH0 PUSH2 0x1CA0 PUSH1 0xF DUP4 PUSH2 0x17EC JUMP JUMPDEST SWAP2 POP PUSH2 0x1CAB DUP3 PUSH2 0x1C6C JUMP JUMPDEST PUSH1 0x20 DUP3 ADD SWAP1 POP SWAP2 SWAP1 POP JUMP JUMPDEST PUSH0 PUSH1 0x20 DUP3 ADD SWAP1 POP DUP2 DUP2 SUB PUSH0 DUP4 ADD MSTORE PUSH2 0x1CCD DUP2 PUSH2 0x1C94 JUMP JUMPDEST SWAP1 POP SWAP2 SWAP1 POP JUMP JUMPDEST PUSH32 0x596F752061726520747279696E6720726566756E64207468652077726F6E6720 PUSH0 DUP3 ADD MSTORE PUSH32 0x616D6F756E742100000000000000000000000000000000000000000000000000 PUSH1 0x20 DUP3 ADD MSTORE POP JUMP JUMPDEST PUSH0 PUSH2 0x1D2E PUSH1 0x27 DUP4 PUSH2 0x17EC JUMP JUMPDEST SWAP2 POP PUSH2 0x1D39 DUP3 PUSH2 0x1CD4 JUMP JUMPDEST PUSH1 0x40 DUP3 ADD SWAP1 POP SWAP2 SWAP1 POP JUMP JUMPDEST PUSH0 PUSH1 0x20 DUP3 ADD SWAP1 POP DUP2 DUP2 SUB PUSH0 DUP4 ADD MSTORE PUSH2 0x1D5B DUP2 PUSH2 0x1D22 JUMP JUMPDEST SWAP1 POP SWAP2 SWAP1 POP JUMP JUMPDEST PUSH0 DUP2 SWAP1 POP SWAP3 SWAP2 POP POP JUMP JUMPDEST POP JUMP JUMPDEST PUSH0 PUSH2 0x1D7A PUSH0 DUP4 PUSH2 0x1D62 JUMP JUMPDEST SWAP2 POP PUSH2 0x1D85 DUP3 PUSH2 0x1D6C JUMP JUMPDEST PUSH0 DUP3 ADD SWAP1 POP SWAP2 SWAP1 POP JUMP JUMPDEST PUSH0 PUSH2 0x1D99 DUP3 PUSH2 0x1D6F JUMP JUMPDEST SWAP2 POP DUP2 SWAP1 POP SWAP2 SWAP1 POP JUMP JUMPDEST PUSH32 0x4E6F7420656E6F7567682066756E647300000000000000000000000000000000 PUSH0 DUP3 ADD MSTORE POP JUMP JUMPDEST PUSH0 PUSH2 0x1DD7 PUSH1 0x10 DUP4 PUSH2 0x17EC JUMP JUMPDEST SWAP2 POP PUSH2 0x1DE2 DUP3 PUSH2 0x1DA3 JUMP JUMPDEST PUSH1 0x20 DUP3 ADD SWAP1 POP SWAP2 SWAP1 POP JUMP JUMPDEST PUSH0 PUSH1 0x20 DUP3 ADD SWAP1 POP DUP2 DUP2 SUB PUSH0 DUP4 ADD MSTORE PUSH2 0x1E04 DUP2 PUSH2 0x1DCB JUMP JUMPDEST SWAP1 POP SWAP2 SWAP1 POP JUMP JUMPDEST PUSH32 0x4E487B7100000000000000000000000000000000000000000000000000000000 PUSH0 MSTORE PUSH1 0x11 PUSH1 0x4 MSTORE PUSH1 0x24 PUSH0 REVERT JUMPDEST PUSH0 PUSH2 0x1E42 DUP3 PUSH2 0x1749 JUMP JUMPDEST SWAP2 POP PUSH2 0x1E4D DUP4 PUSH2 0x1749 JUMP JUMPDEST SWAP3 POP DUP3 DUP3 SUB SWAP1 POP DUP2 DUP2 GT ISZERO PUSH2 0x1E65 JUMPI PUSH2 0x1E64 PUSH2 0x1E0B JUMP JUMPDEST JUMPDEST SWAP3 SWAP2 POP POP JUMP JUMPDEST PUSH32 0x4E487B7100000000000000000000000000000000000000000000000000000000 PUSH0 MSTORE PUSH1 0x1 PUSH1 0x4 MSTORE PUSH1 0x24 PUSH0 REVERT JUMPDEST PUSH32 0x5468652062757267657220636F7374206D6F7265210000000000000000000000 PUSH0 DUP3 ADD MSTORE POP JUMP JUMPDEST PUSH0 PUSH2 0x1ECC PUSH1 0x15 DUP4 PUSH2 0x17EC JUMP JUMPDEST SWAP2 POP PUSH2 0x1ED7 DUP3 PUSH2 0x1E98 JUMP JUMPDEST PUSH1 0x20 DUP3 ADD SWAP1 POP SWAP2 SWAP1 POP JUMP JUMPDEST PUSH0 PUSH1 0x20 DUP3 ADD SWAP1 POP DUP2 DUP2 SUB PUSH0 DUP4 ADD MSTORE PUSH2 0x1EF9 DUP2 PUSH2 0x1EC0 JUMP JUMPDEST SWAP1 POP SWAP2 SWAP1 POP JUMP JUMPDEST PUSH32 0x4E6F7420696E20636F72726563742073746167652E0000000000000000000000 PUSH0 DUP3 ADD MSTORE POP JUMP JUMPDEST PUSH0 PUSH2 0x1F34 PUSH1 0x15 DUP4 PUSH2 0x17EC JUMP JUMPDEST SWAP2 POP PUSH2 0x1F3F DUP3 PUSH2 0x1F00 JUMP JUMPDEST PUSH1 0x20 DUP3 ADD SWAP1 POP SWAP2 SWAP1 POP JUMP JUMPDEST PUSH0 PUSH1 0x20 DUP3 ADD SWAP1 POP DUP2 DUP2 SUB PUSH0 DUP4 ADD MSTORE PUSH2 0x1F61 DUP2 PUSH2 0x1F28 JUMP JUMPDEST SWAP1 POP SWAP2 SWAP1 POP JUMP JUMPDEST PUSH0 DUP2 MLOAD SWAP1 POP PUSH2 0x1F76 DUP2 PUSH2 0x1752 JUMP JUMPDEST SWAP3 SWAP2 POP POP JUMP JUMPDEST PUSH0 PUSH1 0x20 DUP3 DUP5 SUB SLT ISZERO PUSH2 0x1F91 JUMPI PUSH2 0x1F90 PUSH2 0x151E JUMP JUMPDEST JUMPDEST PUSH0 PUSH2 0x1F9E DUP5 DUP3 DUP6 ADD PUSH2 0x1F68 JUMP JUMPDEST SWAP2 POP POP SWAP3 SWAP2 POP POP JUMP JUMPDEST PUSH0 PUSH2 0x1FB1 DUP3 PUSH2 0x1749 JUMP JUMPDEST SWAP2 POP PUSH2 0x1FBC DUP4 PUSH2 0x1749 JUMP JUMPDEST SWAP3 POP DUP3 DUP3 MUL PUSH2 0x1FCA DUP2 PUSH2 0x1749 JUMP JUMPDEST SWAP2 POP DUP3 DUP3 DIV DUP5 EQ DUP4 ISZERO OR PUSH2 0x1FE1 JUMPI PUSH2 0x1FE0 PUSH2 0x1E0B JUMP JUMPDEST JUMPDEST POP SWAP3 SWAP2 POP POP JUMP JUMPDEST PUSH0 PUSH2 0x1FF2 DUP3 PUSH2 0x1749 JUMP JUMPDEST SWAP2 POP PUSH2 0x1FFD DUP4 PUSH2 0x1749 JUMP JUMPDEST SWAP3 POP DUP3 DUP3 ADD SWAP1 POP DUP1 DUP3 GT ISZERO PUSH2 0x2015 JUMPI PUSH2 0x2014 PUSH2 0x1E0B JUMP JUMPDEST JUMPDEST SWAP3 SWAP2 POP POP JUMP JUMPDEST PUSH0 DUP2 SWAP1 POP SWAP2 SWAP1 POP JUMP JUMPDEST PUSH0 PUSH2 0x203E PUSH2 0x2039 PUSH2 0x2034 DUP5 PUSH2 0x201B JUMP JUMPDEST PUSH2 0x1A7E JUMP JUMPDEST PUSH2 0x1749 JUMP JUMPDEST SWAP1 POP SWAP2 SWAP1 POP JUMP JUMPDEST PUSH2 0x204E DUP2 PUSH2 0x2024 JUMP JUMPDEST DUP3 MSTORE POP POP JUMP JUMPDEST PUSH0 PUSH1 0x60 DUP3 ADD SWAP1 POP PUSH2 0x2067 PUSH0 DUP4 ADD DUP7 PUSH2 0x2045 JUMP JUMPDEST DUP2 DUP2 SUB PUSH1 0x20 DUP4 ADD MSTORE PUSH2 0x2079 DUP2 DUP6 PUSH2 0x180A JUMP JUMPDEST SWAP1 POP DUP2 DUP2 SUB PUSH1 0x40 DUP4 ADD MSTORE PUSH2 0x208D DUP2 DUP5 PUSH2 0x180A JUMP JUMPDEST SWAP1 POP SWAP5 SWAP4 POP POP POP POP JUMP JUMPDEST PUSH0 DUP2 MLOAD SWAP1 POP PUSH2 0x20A5 DUP2 PUSH2 0x152F JUMP JUMPDEST SWAP3 SWAP2 POP POP JUMP JUMPDEST PUSH0 PUSH1 0x20 DUP3 DUP5 SUB SLT ISZERO PUSH2 0x20C0 JUMPI PUSH2 0x20BF PUSH2 0x151E JUMP JUMPDEST JUMPDEST PUSH0 PUSH2 0x20CD DUP5 DUP3 DUP6 ADD PUSH2 0x2097 JUMP JUMPDEST SWAP2 POP POP SWAP3 SWAP2 POP POP JUMP INVALID PUSH11 0x736F6E2868747470733A2F 0x2F PUSH14 0x696E2D6170692E63727970746F63 PUSH16 0x6D706172652E636F6D2F646174612F70 PUSH19 0x6963653F6673796D3D455448267473796D733D SSTORE MSTORE8 PREVRANDAO 0x29 0x2E SSTORE MSTORE8 PREVRANDAO LOG2 PUSH5 0x6970667358 0x22 SLT KECCAK256 GAS 0xD2 0xDD PUSH25 0xB48B48702C1A6BE14A661CDBBF19A4242800D46945175DDBF DUP13 0xE2 MOD PUSH5 0x736F6C6343 STOP ADDMOD BYTE STOP CALLER "
		},
		"gasEstimates": {
			"creation": {
				"codeDepositCost": "1706600",
				"executionCost": "94591",
				"totalCost": "1801191"
			},
			"external": {
				"ETH()": "infinite",
				"__callback(bytes32,string)": "infinite",
				"burgerShopStage()": "2627",
				"buyBurger()": "32639",
				"buyDeluxBurge()": "32574",
				"deliverBurger()": "26842",
				"deluxCost()": "2514",
				"getEthProce()": "infinite",
				"getFunds()": "402",
				"normalCost()": "2469",
				"owner()": "2575",
				"pickUpBurger()": "26797",
				"refund(address,uint256)": "infinite",
				"updateStage(uint8)": "24741"
			}
		},
		"methodIdentifiers": {
			"ETH()": "8322fff2",
			"__callback(bytes32,string)": "27dc297e",
			"burgerShopStage()": "e45dd666",
			"buyBurger()": "fd445100",
			"buyDeluxBurge()": "8181502f",
			"deliverBurger()": "be4a11fa",
			"deluxCost()": "925b8148",
			"getEthProce()": "fbe39bcf",
			"getFunds()": "4d9b3735",
			"normalCost()": "f203644a",
			"owner()": "8da5cb5b",
			"pickUpBurger()": "b7db908a",
			"refund(address,uint256)": "410085df",
			"updateStage(uint8)": "b8e53ae7"
		}
	},
	"abi": [
		{
			"inputs": [],
			"stateMutability": "payable",
			"type": "constructor"
		},
		{
			"anonymous": false,
			"inputs": [
				{
					"indexed": true,
					"internalType": "address",
					"name": "_from",
					"type": "address"
				},
				{
					"indexed": false,
					"internalType": "uint256",
					"name": "_cost",
					"type": "uint256"
				}
			],
			"name": "BoughetBurger",
			"type": "event"
		},
		{
			"inputs": [],
			"name": "ETH",
			"outputs": [
				{
					"internalType": "string",
					"name": "",
					"type": "string"
				}
			],
			"stateMutability": "view",
			"type": "function"
		},
		{
			"inputs": [
				{
					"internalType": "bytes32",
					"name": "_myid",
					"type": "bytes32"
				},
				{
					"internalType": "string",
					"name": "_result",
					"type": "string"
				}
			],
			"name": "__callback",
			"outputs": [],
			"stateMutability": "nonpayable",
			"type": "function"
		},
		{
			"inputs": [],
			"name": "burgerShopStage",
			"outputs": [
				{
					"internalType": "enum BurgerShop.Stages",
					"name": "",
					"type": "uint8"
				}
			],
			"stateMutability": "view",
			"type": "function"
		},
		{
			"inputs": [],
			"name": "buyBurger",
			"outputs": [],
			"stateMutability": "payable",
			"type": "function"
		},
		{
			"inputs": [],
			"name": "buyDeluxBurge",
			"outputs": [],
			"stateMutability": "payable",
			"type": "function"
		},
		{
			"inputs": [],
			"name": "deliverBurger",
			"outputs": [],
			"stateMutability": "nonpayable",
			"type": "function"
		},
		{
			"inputs": [],
			"name": "deluxCost",
			"outputs": [
				{
					"internalType": "uint256",
					"name": "",
					"type": "uint256"
				}
			],
			"stateMutability": "view",
			"type": "function"
		},
		{
			"inputs": [],
			"name": "getEthProce",
			"outputs": [],
			"stateMutability": "nonpayable",
			"type": "function"
		},
		{
			"inputs": [],
			"name": "getFunds",
			"outputs": [
				{
					"internalType": "uint256",
					"name": "balance",
					"type": "uint256"
				}
			],
			"stateMutability": "view",
			"type": "function"
		},
		{
			"inputs": [],
			"name": "normalCost",
			"outputs": [
				{
					"internalType": "uint256",
					"name": "",
					"type": "uint256"
				}
			],
			"stateMutability": "view",
			"type": "function"
		},
		{
			"inputs": [],
			"name": "owner",
			"outputs": [
				{
					"internalType": "address",
					"name": "",
					"type": "address"
				}
			],
			"stateMutability": "view",
			"type": "function"
		},
		{
			"inputs": [],
			"name": "pickUpBurger",
			"outputs": [],
			"stateMutability": "nonpayable",
			"type": "function"
		},
		{
			"inputs": [
				{
					"internalType": "address",
					"name": "_to",
					"type": "address"
				},
				{
					"internalType": "uint256",
					"name": "_cost",
					"type": "uint256"
				}
			],
			"name": "refund",
			"outputs": [],
			"stateMutability": "payable",
			"type": "function"
		},
		{
			"inputs": [
				{
					"internalType": "enum BurgerShop.Stages",
					"name": "_stage",
					"type": "uint8"
				}
			],
			"name": "updateStage",
			"outputs": [],
			"stateMutability": "nonpayable",
			"type": "function"
		}
	]
}